{
  "address": "0x5FbDB2315678afecb367f032d93F642f64180aa3",
  "abi": [
    {
      "inputs": [
        {
          "internalType": "uint256",
          "name": "mintPrice_",
          "type": "uint256"
        },
        {
          "internalType": "uint256",
          "name": "amountPerWallet_",
          "type": "uint256"
        },
        {
          "internalType": "uint256",
          "name": "totalSupply_",
          "type": "uint256"
        }
      ],
      "stateMutability": "nonpayable",
      "type": "constructor"
    },
    {
      "anonymous": false,
      "inputs": [
        {
          "indexed": true,
          "internalType": "address",
          "name": "owner",
          "type": "address"
        },
        {
          "indexed": true,
          "internalType": "address",
          "name": "approved",
          "type": "address"
        },
        {
          "indexed": true,
          "internalType": "uint256",
          "name": "tokenId",
          "type": "uint256"
        }
      ],
      "name": "Approval",
      "type": "event"
    },
    {
      "anonymous": false,
      "inputs": [
        {
          "indexed": true,
          "internalType": "address",
          "name": "owner",
          "type": "address"
        },
        {
          "indexed": true,
          "internalType": "address",
          "name": "operator",
          "type": "address"
        },
        {
          "indexed": false,
          "internalType": "bool",
          "name": "approved",
          "type": "bool"
        }
      ],
      "name": "ApprovalForAll",
      "type": "event"
    },
    {
      "anonymous": false,
      "inputs": [
        {
          "indexed": true,
          "internalType": "address",
          "name": "previousOwner",
          "type": "address"
        },
        {
          "indexed": true,
          "internalType": "address",
          "name": "newOwner",
          "type": "address"
        }
      ],
      "name": "OwnershipTransferred",
      "type": "event"
    },
    {
      "anonymous": false,
      "inputs": [
        {
          "indexed": false,
          "internalType": "address",
          "name": "account",
          "type": "address"
        }
      ],
      "name": "Paused",
      "type": "event"
    },
    {
      "anonymous": false,
      "inputs": [
        {
          "indexed": false,
          "internalType": "address",
          "name": "user",
          "type": "address"
        },
        {
          "indexed": false,
          "internalType": "uint256",
          "name": "amount",
          "type": "uint256"
        }
      ],
      "name": "RecievedPayment",
      "type": "event"
    },
    {
      "anonymous": false,
      "inputs": [
        {
          "indexed": false,
          "internalType": "address",
          "name": "user",
          "type": "address"
        },
        {
          "indexed": false,
          "internalType": "uint256",
          "name": "amount",
          "type": "uint256"
        },
        {
          "indexed": false,
          "internalType": "uint256",
          "name": "value",
          "type": "uint256"
        }
      ],
      "name": "SuccessfulMint",
      "type": "event"
    },
    {
      "anonymous": false,
      "inputs": [
        {
          "indexed": true,
          "internalType": "address",
          "name": "from",
          "type": "address"
        },
        {
          "indexed": true,
          "internalType": "address",
          "name": "to",
          "type": "address"
        },
        {
          "indexed": true,
          "internalType": "uint256",
          "name": "tokenId",
          "type": "uint256"
        }
      ],
      "name": "Transfer",
      "type": "event"
    },
    {
      "anonymous": false,
      "inputs": [
        {
          "indexed": false,
          "internalType": "address",
          "name": "account",
          "type": "address"
        }
      ],
      "name": "Unpaused",
      "type": "event"
    },
    {
      "inputs": [
        {
          "internalType": "address",
          "name": "to",
          "type": "address"
        },
        {
          "internalType": "uint256",
          "name": "tokenId",
          "type": "uint256"
        }
      ],
      "name": "approve",
      "outputs": [],
      "stateMutability": "nonpayable",
      "type": "function"
    },
    {
      "inputs": [
        {
          "internalType": "address",
          "name": "owner",
          "type": "address"
        }
      ],
      "name": "balanceOf",
      "outputs": [
        {
          "internalType": "uint256",
          "name": "",
          "type": "uint256"
        }
      ],
      "stateMutability": "view",
      "type": "function"
    },
    {
      "inputs": [
        {
          "internalType": "uint256",
          "name": "tokenId",
          "type": "uint256"
        }
      ],
      "name": "burn",
      "outputs": [],
      "stateMutability": "nonpayable",
      "type": "function"
    },
    {
      "inputs": [],
      "name": "currentBalance",
      "outputs": [
        {
          "internalType": "uint256",
          "name": "",
          "type": "uint256"
        }
      ],
      "stateMutability": "view",
      "type": "function"
    },
    {
      "inputs": [
        {
          "internalType": "uint256",
          "name": "tokenId",
          "type": "uint256"
        }
      ],
      "name": "getApproved",
      "outputs": [
        {
          "internalType": "address",
          "name": "",
          "type": "address"
        }
      ],
      "stateMutability": "view",
      "type": "function"
    },
    {
      "inputs": [
        {
          "internalType": "address",
          "name": "owner",
          "type": "address"
        },
        {
          "internalType": "address",
          "name": "operator",
          "type": "address"
        }
      ],
      "name": "isApprovedForAll",
      "outputs": [
        {
          "internalType": "bool",
          "name": "",
          "type": "bool"
        }
      ],
      "stateMutability": "view",
      "type": "function"
    },
    {
      "inputs": [],
      "name": "mintNFT",
      "outputs": [],
      "stateMutability": "payable",
      "type": "function"
    },
    {
      "inputs": [],
      "name": "name",
      "outputs": [
        {
          "internalType": "string",
          "name": "",
          "type": "string"
        }
      ],
      "stateMutability": "view",
      "type": "function"
    },
    {
      "inputs": [],
      "name": "owner",
      "outputs": [
        {
          "internalType": "address",
          "name": "",
          "type": "address"
        }
      ],
      "stateMutability": "view",
      "type": "function"
    },
    {
      "inputs": [
        {
          "internalType": "uint256",
          "name": "tokenId",
          "type": "uint256"
        }
      ],
      "name": "ownerOf",
      "outputs": [
        {
          "internalType": "address",
          "name": "",
          "type": "address"
        }
      ],
      "stateMutability": "view",
      "type": "function"
    },
    {
      "inputs": [],
      "name": "pause",
      "outputs": [],
      "stateMutability": "nonpayable",
      "type": "function"
    },
    {
      "inputs": [],
      "name": "paused",
      "outputs": [
        {
          "internalType": "bool",
          "name": "",
          "type": "bool"
        }
      ],
      "stateMutability": "view",
      "type": "function"
    },
    {
      "inputs": [],
      "name": "renounceOwnership",
      "outputs": [],
      "stateMutability": "nonpayable",
      "type": "function"
    },
    {
      "inputs": [],
      "name": "s_baseExtension",
      "outputs": [
        {
          "internalType": "string",
          "name": "",
          "type": "string"
        }
      ],
      "stateMutability": "view",
      "type": "function"
    },
    {
      "inputs": [
        {
          "internalType": "address",
          "name": "",
          "type": "address"
        }
      ],
      "name": "s_mintList",
      "outputs": [
        {
          "internalType": "uint32",
          "name": "",
          "type": "uint32"
        }
      ],
      "stateMutability": "view",
      "type": "function"
    },
    {
      "inputs": [],
      "name": "s_salesConfig",
      "outputs": [
        {
          "internalType": "uint256",
          "name": "mintPrice",
          "type": "uint256"
        },
        {
          "internalType": "uint256",
          "name": "amountPerWallet",
          "type": "uint256"
        },
        {
          "internalType": "uint256",
          "name": "totalSupply",
          "type": "uint256"
        }
      ],
      "stateMutability": "view",
      "type": "function"
    },
    {
      "inputs": [
        {
          "internalType": "address",
          "name": "from",
          "type": "address"
        },
        {
          "internalType": "address",
          "name": "to",
          "type": "address"
        },
        {
          "internalType": "uint256",
          "name": "tokenId",
          "type": "uint256"
        }
      ],
      "name": "safeTransferFrom",
      "outputs": [],
      "stateMutability": "nonpayable",
      "type": "function"
    },
    {
      "inputs": [
        {
          "internalType": "address",
          "name": "from",
          "type": "address"
        },
        {
          "internalType": "address",
          "name": "to",
          "type": "address"
        },
        {
          "internalType": "uint256",
          "name": "tokenId",
          "type": "uint256"
        },
        {
          "internalType": "bytes",
          "name": "data",
          "type": "bytes"
        }
      ],
      "name": "safeTransferFrom",
      "outputs": [],
      "stateMutability": "nonpayable",
      "type": "function"
    },
    {
      "inputs": [
        {
          "internalType": "address",
          "name": "operator",
          "type": "address"
        },
        {
          "internalType": "bool",
          "name": "approved",
          "type": "bool"
        }
      ],
      "name": "setApprovalForAll",
      "outputs": [],
      "stateMutability": "nonpayable",
      "type": "function"
    },
    {
      "inputs": [
        {
          "internalType": "bytes4",
          "name": "interfaceId",
          "type": "bytes4"
        }
      ],
      "name": "supportsInterface",
      "outputs": [
        {
          "internalType": "bool",
          "name": "",
          "type": "bool"
        }
      ],
      "stateMutability": "view",
      "type": "function"
    },
    {
      "inputs": [],
      "name": "symbol",
      "outputs": [
        {
          "internalType": "string",
          "name": "",
          "type": "string"
        }
      ],
      "stateMutability": "view",
      "type": "function"
    },
    {
      "inputs": [
        {
          "internalType": "uint256",
          "name": "tokenId",
          "type": "uint256"
        }
      ],
      "name": "tokenURI",
      "outputs": [
        {
          "internalType": "string",
          "name": "",
          "type": "string"
        }
      ],
      "stateMutability": "view",
      "type": "function"
    },
    {
      "inputs": [
        {
          "internalType": "address",
          "name": "from",
          "type": "address"
        },
        {
          "internalType": "address",
          "name": "to",
          "type": "address"
        },
        {
          "internalType": "uint256",
          "name": "tokenId",
          "type": "uint256"
        }
      ],
      "name": "transferFrom",
      "outputs": [],
      "stateMutability": "nonpayable",
      "type": "function"
    },
    {
      "inputs": [
        {
          "internalType": "address",
          "name": "newOwner",
          "type": "address"
        }
      ],
      "name": "transferOwnership",
      "outputs": [],
      "stateMutability": "nonpayable",
      "type": "function"
    },
    {
      "inputs": [],
      "name": "unpause",
      "outputs": [],
      "stateMutability": "nonpayable",
      "type": "function"
    },
    {
      "inputs": [],
      "name": "withdraw",
      "outputs": [
        {
          "internalType": "bool",
          "name": "",
          "type": "bool"
        }
      ],
      "stateMutability": "nonpayable",
      "type": "function"
    },
    {
      "stateMutability": "payable",
      "type": "receive"
    }
  ],
  "transactionHash": "0x3a40d2d8580b4acbe603e61007a5952e2f2bb9827afd03b1c6e503bb1a6e6234",
  "args": [
    "1000000000000000",
    10,
    10000
  ],
  "numDeployments": 1,
  "solcInputHash": "ed2393926945e18ef3472341a49b8c49",
  "bytecode": "0x60806040526040518060400160405280600581526020017f2e6a736f6e000000000000000000000000000000000000000000000000000000815250600a90805190602001906200005192919062000262565b506000600b553480156200006457600080fd5b506040516200410f3803806200410f83398181016040528101906200008a919062000352565b6040518060400160405280600d81526020017f4f7074696d756873546f6b656e000000000000000000000000000000000000008152506040518060400160405280600381526020017f4f5054000000000000000000000000000000000000000000000000000000000081525081600090805190602001906200010e92919062000262565b5080600190805190602001906200012792919062000262565b5050506000600760006101000a81548160ff02191690831515021790555062000165620001596200019460201b60201c565b6200019c60201b60201c565b600160088190555082600e6000018190555081600e6001018190555080600e6002018190555050505062000413565b600033905090565b6000600760019054906101000a900473ffffffffffffffffffffffffffffffffffffffff16905081600760016101000a81548173ffffffffffffffffffffffffffffffffffffffff021916908373ffffffffffffffffffffffffffffffffffffffff1602179055508173ffffffffffffffffffffffffffffffffffffffff168173ffffffffffffffffffffffffffffffffffffffff167f8be0079c531659141344cd1fd0a4f28419497f9722a3daafe3b4186f6b6457e060405160405180910390a35050565b8280546200027090620003dd565b90600052602060002090601f016020900481019282620002945760008555620002e0565b82601f10620002af57805160ff1916838001178555620002e0565b82800160010185558215620002e0579182015b82811115620002df578251825591602001919060010190620002c2565b5b509050620002ef9190620002f3565b5090565b5b808211156200030e576000816000905550600101620002f4565b5090565b600080fd5b6000819050919050565b6200032c8162000317565b81146200033857600080fd5b50565b6000815190506200034c8162000321565b92915050565b6000806000606084860312156200036e576200036d62000312565b5b60006200037e868287016200033b565b935050602062000391868287016200033b565b9250506040620003a4868287016200033b565b9150509250925092565b7f4e487b7100000000000000000000000000000000000000000000000000000000600052602260045260246000fd5b60006002820490506001821680620003f657607f821691505b602082108114156200040d576200040c620003ae565b5b50919050565b613cec80620004236000396000f3fe6080604052600436106101855760003560e01c806370a08231116100d1578063a22cb4651161008a578063ce845d1d11610064578063ce845d1d14610581578063e985e9c5146105ac578063f2fde38b146105e9578063f44f761814610612576101c5565b8063a22cb465146104f2578063b88d4fde1461051b578063c87b56dd14610544576101c5565b806370a08231146103f4578063715018a6146104315780638456cb59146104485780638da5cb5b1461045f57806395d89b411461048a5780639a704fb4146104b5576101c5565b806323b872dd1161013e57806342842e0e1161011857806342842e0e1461033a57806342966c68146103635780635c975abb1461038c5780636352211e146103b7576101c5565b806323b872dd146102cf5780633ccfd60b146102f85780633f4ba83a14610323576101c5565b806301ffc9a7146101ca57806306fdde0314610207578063081812fc14610232578063095ea7b31461026f57806314f710fe146102985780631ed97535146102a2576101c5565b366101c5577f590459e5b10aa62befc0127acd17b19f7fe69f5bb5bd0998854ad78a48b92dd633346040516101bb929190612913565b60405180910390a1005b600080fd5b3480156101d657600080fd5b506101f160048036038101906101ec91906129a8565b61063d565b6040516101fe91906129f0565b60405180910390f35b34801561021357600080fd5b5061021c61071f565b6040516102299190612aa4565b60405180910390f35b34801561023e57600080fd5b5061025960048036038101906102549190612af2565b6107b1565b6040516102669190612b1f565b60405180910390f35b34801561027b57600080fd5b5061029660048036038101906102919190612b66565b6107f7565b005b6102a061090f565b005b3480156102ae57600080fd5b506102b7610b1f565b6040516102c693929190612ba6565b60405180910390f35b3480156102db57600080fd5b506102f660048036038101906102f19190612bdd565b610b37565b005b34801561030457600080fd5b5061030d610b97565b60405161031a91906129f0565b60405180910390f35b34801561032f57600080fd5b50610338610c64565b005b34801561034657600080fd5b50610361600480360381019061035c9190612bdd565b610c76565b005b34801561036f57600080fd5b5061038a60048036038101906103859190612af2565b610c96565b005b34801561039857600080fd5b506103a1610cf2565b6040516103ae91906129f0565b60405180910390f35b3480156103c357600080fd5b506103de60048036038101906103d99190612af2565b610d09565b6040516103eb9190612b1f565b60405180910390f35b34801561040057600080fd5b5061041b60048036038101906104169190612c30565b610d90565b6040516104289190612c5d565b60405180910390f35b34801561043d57600080fd5b50610446610e48565b005b34801561045457600080fd5b5061045d610e5c565b005b34801561046b57600080fd5b50610474610e6e565b6040516104819190612b1f565b60405180910390f35b34801561049657600080fd5b5061049f610e98565b6040516104ac9190612aa4565b60405180910390f35b3480156104c157600080fd5b506104dc60048036038101906104d79190612c30565b610f2a565b6040516104e99190612c97565b60405180910390f35b3480156104fe57600080fd5b5061051960048036038101906105149190612cde565b610f4d565b005b34801561052757600080fd5b50610542600480360381019061053d9190612e53565b610f63565b005b34801561055057600080fd5b5061056b60048036038101906105669190612af2565b610fc5565b6040516105789190612aa4565b60405180910390f35b34801561058d57600080fd5b5061059661101f565b6040516105a39190612c5d565b60405180910390f35b3480156105b857600080fd5b506105d360048036038101906105ce9190612ed6565b611027565b6040516105e091906129f0565b60405180910390f35b3480156105f557600080fd5b50610610600480360381019061060b9190612c30565b6110bb565b005b34801561061e57600080fd5b5061062761113f565b6040516106349190612aa4565b60405180910390f35b60007f80ac58cd000000000000000000000000000000000000000000000000000000007bffffffffffffffffffffffffffffffffffffffffffffffffffffffff1916827bffffffffffffffffffffffffffffffffffffffffffffffffffffffff1916148061070857507f5b5e139f000000000000000000000000000000000000000000000000000000007bffffffffffffffffffffffffffffffffffffffffffffffffffffffff1916827bffffffffffffffffffffffffffffffffffffffffffffffffffffffff1916145b806107185750610717826111cd565b5b9050919050565b60606000805461072e90612f45565b80601f016020809104026020016040519081016040528092919081815260200182805461075a90612f45565b80156107a75780601f1061077c576101008083540402835291602001916107a7565b820191906000526020600020905b81548152906001019060200180831161078a57829003601f168201915b5050505050905090565b60006107bc82611237565b6004600083815260200190815260200160002060009054906101000a900473ffffffffffffffffffffffffffffffffffffffff169050919050565b600061080282610d09565b90508073ffffffffffffffffffffffffffffffffffffffff168373ffffffffffffffffffffffffffffffffffffffff161415610873576040517f08c379a000000000000000000000000000000000000000000000000000000000815260040161086a90612fe9565b60405180910390fd5b8073ffffffffffffffffffffffffffffffffffffffff16610892611282565b73ffffffffffffffffffffffffffffffffffffffff1614806108c157506108c0816108bb611282565b611027565b5b610900576040517f08c379a00000000000000000000000000000000000000000000000000000000081526004016108f79061307b565b60405180910390fd5b61090a838361128a565b505050565b600e600101546001600d60003373ffffffffffffffffffffffffffffffffffffffff1673ffffffffffffffffffffffffffffffffffffffff16815260200190815260200160002060009054906101000a900463ffffffff1661097191906130ca565b63ffffffff16106109b7576040517f08c379a00000000000000000000000000000000000000000000000000000000081526004016109ae90613176565b60405180910390fd5b600e6000015434116109fe576040517f08c379a00000000000000000000000000000000000000000000000000000000081526004016109f5906131e2565b60405180910390fd5b610a9233600c8054610a0f90612f45565b80601f0160208091040260200160405190810160405280929190818152602001828054610a3b90612f45565b8015610a885780601f10610a5d57610100808354040283529160200191610a88565b820191906000526020600020905b815481529060010190602001808311610a6b57829003601f168201915b5050505050611343565b6001600d60003373ffffffffffffffffffffffffffffffffffffffff1673ffffffffffffffffffffffffffffffffffffffff16815260200190815260200160002060008282829054906101000a900463ffffffff16610af191906130ca565b92506101000a81548163ffffffff021916908363ffffffff160217905550610b1d600e60000154611374565b565b600e8060000154908060010154908060020154905083565b610b48610b42611282565b82611415565b610b87576040517f08c379a0000000000000000000000000000000000000000000000000000000008152600401610b7e90613274565b60405180910390fd5b610b928383836114aa565b505050565b6000610ba16117a4565b610ba9611822565b60003373ffffffffffffffffffffffffffffffffffffffff1647604051610bcf906132c5565b60006040518083038185875af1925050503d8060008114610c0c576040519150601f19603f3d011682016040523d82523d6000602084013e610c11565b606091505b5050905080610c55576040517f08c379a0000000000000000000000000000000000000000000000000000000008152600401610c4c90613326565b60405180910390fd5b80915050610c61611872565b90565b610c6c6117a4565b610c7461187c565b565b610c9183838360405180602001604052806000815250610f63565b505050565b610ca7610ca1611282565b82611415565b610ce6576040517f08c379a0000000000000000000000000000000000000000000000000000000008152600401610cdd90613274565b60405180910390fd5b610cef816118df565b50565b6000600760009054906101000a900460ff16905090565b600080610d15836118eb565b9050600073ffffffffffffffffffffffffffffffffffffffff168173ffffffffffffffffffffffffffffffffffffffff161415610d87576040517f08c379a0000000000000000000000000000000000000000000000000000000008152600401610d7e90613392565b60405180910390fd5b80915050919050565b60008073ffffffffffffffffffffffffffffffffffffffff168273ffffffffffffffffffffffffffffffffffffffff161415610e01576040517f08c379a0000000000000000000000000000000000000000000000000000000008152600401610df890613424565b60405180910390fd5b600360008373ffffffffffffffffffffffffffffffffffffffff1673ffffffffffffffffffffffffffffffffffffffff168152602001908152602001600020549050919050565b610e506117a4565b610e5a6000611928565b565b610e646117a4565b610e6c6119ee565b565b6000600760019054906101000a900473ffffffffffffffffffffffffffffffffffffffff16905090565b606060018054610ea790612f45565b80601f0160208091040260200160405190810160405280929190818152602001828054610ed390612f45565b8015610f205780601f10610ef557610100808354040283529160200191610f20565b820191906000526020600020905b815481529060010190602001808311610f0357829003601f168201915b5050505050905090565b600d6020528060005260406000206000915054906101000a900463ffffffff1681565b610f5f610f58611282565b8383611a51565b5050565b610f74610f6e611282565b83611415565b610fb3576040517f08c379a0000000000000000000000000000000000000000000000000000000008152600401610faa90613274565b60405180910390fd5b610fbf84848484611bbe565b50505050565b6060610fd082611c1a565b61100f576040517f08c379a0000000000000000000000000000000000000000000000000000000008152600401611006906134b6565b60405180910390fd5b61101882611c5b565b9050919050565b600047905090565b6000600560008473ffffffffffffffffffffffffffffffffffffffff1673ffffffffffffffffffffffffffffffffffffffff16815260200190815260200160002060008373ffffffffffffffffffffffffffffffffffffffff1673ffffffffffffffffffffffffffffffffffffffff16815260200190815260200160002060009054906101000a900460ff16905092915050565b6110c36117a4565b600073ffffffffffffffffffffffffffffffffffffffff168173ffffffffffffffffffffffffffffffffffffffff161415611133576040517f08c379a000000000000000000000000000000000000000000000000000000000815260040161112a90613548565b60405180910390fd5b61113c81611928565b50565b600a805461114c90612f45565b80601f016020809104026020016040519081016040528092919081815260200182805461117890612f45565b80156111c55780601f1061119a576101008083540402835291602001916111c5565b820191906000526020600020905b8154815290600101906020018083116111a857829003601f168201915b505050505081565b60007f01ffc9a7000000000000000000000000000000000000000000000000000000007bffffffffffffffffffffffffffffffffffffffffffffffffffffffff1916827bffffffffffffffffffffffffffffffffffffffffffffffffffffffff1916149050919050565b61124081611c1a565b61127f576040517f08c379a000000000000000000000000000000000000000000000000000000000815260040161127690613392565b60405180910390fd5b50565b600033905090565b816004600083815260200190815260200160002060006101000a81548173ffffffffffffffffffffffffffffffffffffffff021916908373ffffffffffffffffffffffffffffffffffffffff160217905550808273ffffffffffffffffffffffffffffffffffffffff166112fd83610d09565b73ffffffffffffffffffffffffffffffffffffffff167f8c5be1e5ebec7d5bd14f71427d1e84f3dd0314c0f7b2291e5b200ac8c7c3b92560405160405180910390a45050565b600061134f6009611d6e565b905061135b6009611d7c565b6113658382611d92565b61136f8183611db0565b505050565b803410156113b7576040517f08c379a00000000000000000000000000000000000000000000000000000000081526004016113ae906135b4565b60405180910390fd5b80341115611412573373ffffffffffffffffffffffffffffffffffffffff166108fc82346113e591906135d4565b9081150290604051600060405180830381858888f19350505050158015611410573d6000803e3d6000fd5b505b50565b60008061142183610d09565b90508073ffffffffffffffffffffffffffffffffffffffff168473ffffffffffffffffffffffffffffffffffffffff16148061146357506114628185611027565b5b806114a157508373ffffffffffffffffffffffffffffffffffffffff16611489846107b1565b73ffffffffffffffffffffffffffffffffffffffff16145b91505092915050565b8273ffffffffffffffffffffffffffffffffffffffff166114ca82610d09565b73ffffffffffffffffffffffffffffffffffffffff1614611520576040517f08c379a00000000000000000000000000000000000000000000000000000000081526004016115179061367a565b60405180910390fd5b600073ffffffffffffffffffffffffffffffffffffffff168273ffffffffffffffffffffffffffffffffffffffff161415611590576040517f08c379a00000000000000000000000000000000000000000000000000000000081526004016115879061370c565b60405180910390fd5b61159d8383836001611e24565b8273ffffffffffffffffffffffffffffffffffffffff166115bd82610d09565b73ffffffffffffffffffffffffffffffffffffffff1614611613576040517f08c379a000000000000000000000000000000000000000000000000000000000815260040161160a9061367a565b60405180910390fd5b6004600082815260200190815260200160002060006101000a81549073ffffffffffffffffffffffffffffffffffffffff02191690556001600360008573ffffffffffffffffffffffffffffffffffffffff1673ffffffffffffffffffffffffffffffffffffffff168152602001908152602001600020600082825403925050819055506001600360008473ffffffffffffffffffffffffffffffffffffffff1673ffffffffffffffffffffffffffffffffffffffff16815260200190815260200160002060008282540192505081905550816002600083815260200190815260200160002060006101000a81548173ffffffffffffffffffffffffffffffffffffffff021916908373ffffffffffffffffffffffffffffffffffffffff160217905550808273ffffffffffffffffffffffffffffffffffffffff168473ffffffffffffffffffffffffffffffffffffffff167fddf252ad1be2c89b69c2b068fc378daa952ba7f163c4a11628f55a4df523b3ef60405160405180910390a461179f8383836001611e3e565b505050565b6117ac611282565b73ffffffffffffffffffffffffffffffffffffffff166117ca610e6e565b73ffffffffffffffffffffffffffffffffffffffff1614611820576040517f08c379a000000000000000000000000000000000000000000000000000000000815260040161181790613778565b60405180910390fd5b565b60026008541415611868576040517f08c379a000000000000000000000000000000000000000000000000000000000815260040161185f906137e4565b60405180910390fd5b6002600881905550565b6001600881905550565b611884611e44565b6000600760006101000a81548160ff0219169083151502179055507f5db9ee0a495bf2e6ff9c91a7834c1ba4fdd244a5e8aa4e537bd38aeae4b073aa6118c8611282565b6040516118d59190612b1f565b60405180910390a1565b6118e881611e8d565b50565b60006002600083815260200190815260200160002060009054906101000a900473ffffffffffffffffffffffffffffffffffffffff169050919050565b6000600760019054906101000a900473ffffffffffffffffffffffffffffffffffffffff16905081600760016101000a81548173ffffffffffffffffffffffffffffffffffffffff021916908373ffffffffffffffffffffffffffffffffffffffff1602179055508173ffffffffffffffffffffffffffffffffffffffff168173ffffffffffffffffffffffffffffffffffffffff167f8be0079c531659141344cd1fd0a4f28419497f9722a3daafe3b4186f6b6457e060405160405180910390a35050565b6119f6611ee0565b6001600760006101000a81548160ff0219169083151502179055507f62e78cea01bee320cd4e420270b5ea74000d11b0c9f74754ebdbfc544b05a258611a3a611282565b604051611a479190612b1f565b60405180910390a1565b8173ffffffffffffffffffffffffffffffffffffffff168373ffffffffffffffffffffffffffffffffffffffff161415611ac0576040517f08c379a0000000000000000000000000000000000000000000000000000000008152600401611ab790613850565b60405180910390fd5b80600560008573ffffffffffffffffffffffffffffffffffffffff1673ffffffffffffffffffffffffffffffffffffffff16815260200190815260200160002060008473ffffffffffffffffffffffffffffffffffffffff1673ffffffffffffffffffffffffffffffffffffffff16815260200190815260200160002060006101000a81548160ff0219169083151502179055508173ffffffffffffffffffffffffffffffffffffffff168373ffffffffffffffffffffffffffffffffffffffff167f17307eab39ab6107e8899845ad3d59bd9653f200f220920489ca2b5937696c3183604051611bb191906129f0565b60405180910390a3505050565b611bc98484846114aa565b611bd584848484611f2a565b611c14576040517f08c379a0000000000000000000000000000000000000000000000000000000008152600401611c0b906138e2565b60405180910390fd5b50505050565b60008073ffffffffffffffffffffffffffffffffffffffff16611c3c836118eb565b73ffffffffffffffffffffffffffffffffffffffff1614159050919050565b6060611c6682611237565b6000600660008481526020019081526020016000208054611c8690612f45565b80601f0160208091040260200160405190810160405280929190818152602001828054611cb290612f45565b8015611cff5780601f10611cd457610100808354040283529160200191611cff565b820191906000526020600020905b815481529060010190602001808311611ce257829003601f168201915b505050505090506000611d106120c1565b9050600081511415611d26578192505050611d69565b600082511115611d5b578082604051602001611d4392919061393e565b60405160208183030381529060405292505050611d69565b611d6484612153565b925050505b919050565b600081600001549050919050565b6001816000016000828254019250508190555050565b611dac8282604051806020016040528060008152506121bb565b5050565b611db982611c1a565b611df8576040517f08c379a0000000000000000000000000000000000000000000000000000000008152600401611def906139d4565b60405180910390fd5b80600660008481526020019081526020016000209080519060200190611e1f9291906127d6565b505050565b611e2c611ee0565b611e3884848484612216565b50505050565b50505050565b611e4c610cf2565b611e8b576040517f08c379a0000000000000000000000000000000000000000000000000000000008152600401611e8290613a40565b60405180910390fd5b565b611e968161221c565b6000600660008381526020019081526020016000208054611eb690612f45565b905014611edd57600660008281526020019081526020016000206000611edc919061285c565b5b50565b611ee8610cf2565b15611f28576040517f08c379a0000000000000000000000000000000000000000000000000000000008152600401611f1f90613aac565b60405180910390fd5b565b6000611f4b8473ffffffffffffffffffffffffffffffffffffffff1661236a565b156120b4578373ffffffffffffffffffffffffffffffffffffffff1663150b7a02611f74611282565b8786866040518563ffffffff1660e01b8152600401611f969493929190613b21565b602060405180830381600087803b158015611fb057600080fd5b505af1925050508015611fe157506040513d601f19601f82011682018060405250810190611fde9190613b82565b60015b612064573d8060008114612011576040519150601f19603f3d011682016040523d82523d6000602084013e612016565b606091505b5060008151141561205c576040517f08c379a0000000000000000000000000000000000000000000000000000000008152600401612053906138e2565b60405180910390fd5b805181602001fd5b63150b7a0260e01b7bffffffffffffffffffffffffffffffffffffffffffffffffffffffff1916817bffffffffffffffffffffffffffffffffffffffffffffffffffffffff1916149150506120b9565b600190505b949350505050565b6060600c80546120d090612f45565b80601f01602080910402602001604051908101604052809291908181526020018280546120fc90612f45565b80156121495780601f1061211e57610100808354040283529160200191612149565b820191906000526020600020905b81548152906001019060200180831161212c57829003601f168201915b5050505050905090565b606061215e82611237565b60006121686120c1565b9050600081511161218857604051806020016040528060008152506121b3565b806121928461238d565b6040516020016121a392919061393e565b6040516020818303038152906040525b915050919050565b6121c58383612465565b6121d26000848484611f2a565b612211576040517f08c379a0000000000000000000000000000000000000000000000000000000008152600401612208906138e2565b60405180910390fd5b505050565b50505050565b600061222782610d09565b9050612237816000846001611e24565b61224082610d09565b90506004600083815260200190815260200160002060006101000a81549073ffffffffffffffffffffffffffffffffffffffff02191690556001600360008373ffffffffffffffffffffffffffffffffffffffff1673ffffffffffffffffffffffffffffffffffffffff168152602001908152602001600020600082825403925050819055506002600083815260200190815260200160002060006101000a81549073ffffffffffffffffffffffffffffffffffffffff021916905581600073ffffffffffffffffffffffffffffffffffffffff168273ffffffffffffffffffffffffffffffffffffffff167fddf252ad1be2c89b69c2b068fc378daa952ba7f163c4a11628f55a4df523b3ef60405160405180910390a4612366816000846001611e3e565b5050565b6000808273ffffffffffffffffffffffffffffffffffffffff163b119050919050565b60606000600161239c84612683565b01905060008167ffffffffffffffff8111156123bb576123ba612d28565b5b6040519080825280601f01601f1916602001820160405280156123ed5781602001600182028036833780820191505090505b509050600082602001820190505b60011561245a578080600190039150507f3031323334353637383961626364656600000000000000000000000000000000600a86061a8153600a858161244457612443613baf565b5b04945060008514156124555761245a565b6123fb565b819350505050919050565b600073ffffffffffffffffffffffffffffffffffffffff168273ffffffffffffffffffffffffffffffffffffffff1614156124d5576040517f08c379a00000000000000000000000000000000000000000000000000000000081526004016124cc90613c2a565b60405180910390fd5b6124de81611c1a565b1561251e576040517f08c379a000000000000000000000000000000000000000000000000000000000815260040161251590613c96565b60405180910390fd5b61252c600083836001611e24565b61253581611c1a565b15612575576040517f08c379a000000000000000000000000000000000000000000000000000000000815260040161256c90613c96565b60405180910390fd5b6001600360008473ffffffffffffffffffffffffffffffffffffffff1673ffffffffffffffffffffffffffffffffffffffff16815260200190815260200160002060008282540192505081905550816002600083815260200190815260200160002060006101000a81548173ffffffffffffffffffffffffffffffffffffffff021916908373ffffffffffffffffffffffffffffffffffffffff160217905550808273ffffffffffffffffffffffffffffffffffffffff16600073ffffffffffffffffffffffffffffffffffffffff167fddf252ad1be2c89b69c2b068fc378daa952ba7f163c4a11628f55a4df523b3ef60405160405180910390a461267f600083836001611e3e565b5050565b600080600090507a184f03e93ff9f4daa797ed6e38ed64bf6a1f01000000000000000083106126e1577a184f03e93ff9f4daa797ed6e38ed64bf6a1f01000000000000000083816126d7576126d6613baf565b5b0492506040810190505b6d04ee2d6d415b85acef8100000000831061271e576d04ee2d6d415b85acef8100000000838161271457612713613baf565b5b0492506020810190505b662386f26fc10000831061274d57662386f26fc10000838161274357612742613baf565b5b0492506010810190505b6305f5e1008310612776576305f5e100838161276c5761276b613baf565b5b0492506008810190505b612710831061279b57612710838161279157612790613baf565b5b0492506004810190505b606483106127be57606483816127b4576127b3613baf565b5b0492506002810190505b600a83106127cd576001810190505b80915050919050565b8280546127e290612f45565b90600052602060002090601f016020900481019282612804576000855561284b565b82601f1061281d57805160ff191683800117855561284b565b8280016001018555821561284b579182015b8281111561284a57825182559160200191906001019061282f565b5b509050612858919061289c565b5090565b50805461286890612f45565b6000825580601f1061287a5750612899565b601f016020900490600052602060002090810190612898919061289c565b5b50565b5b808211156128b557600081600090555060010161289d565b5090565b600073ffffffffffffffffffffffffffffffffffffffff82169050919050565b60006128e4826128b9565b9050919050565b6128f4816128d9565b82525050565b6000819050919050565b61290d816128fa565b82525050565b600060408201905061292860008301856128eb565b6129356020830184612904565b9392505050565b6000604051905090565b600080fd5b600080fd5b60007fffffffff0000000000000000000000000000000000000000000000000000000082169050919050565b61298581612950565b811461299057600080fd5b50565b6000813590506129a28161297c565b92915050565b6000602082840312156129be576129bd612946565b5b60006129cc84828501612993565b91505092915050565b60008115159050919050565b6129ea816129d5565b82525050565b6000602082019050612a0560008301846129e1565b92915050565b600081519050919050565b600082825260208201905092915050565b60005b83811015612a45578082015181840152602081019050612a2a565b83811115612a54576000848401525b50505050565b6000601f19601f8301169050919050565b6000612a7682612a0b565b612a808185612a16565b9350612a90818560208601612a27565b612a9981612a5a565b840191505092915050565b60006020820190508181036000830152612abe8184612a6b565b905092915050565b612acf816128fa565b8114612ada57600080fd5b50565b600081359050612aec81612ac6565b92915050565b600060208284031215612b0857612b07612946565b5b6000612b1684828501612add565b91505092915050565b6000602082019050612b3460008301846128eb565b92915050565b612b43816128d9565b8114612b4e57600080fd5b50565b600081359050612b6081612b3a565b92915050565b60008060408385031215612b7d57612b7c612946565b5b6000612b8b85828601612b51565b9250506020612b9c85828601612add565b9150509250929050565b6000606082019050612bbb6000830186612904565b612bc86020830185612904565b612bd56040830184612904565b949350505050565b600080600060608486031215612bf657612bf5612946565b5b6000612c0486828701612b51565b9350506020612c1586828701612b51565b9250506040612c2686828701612add565b9150509250925092565b600060208284031215612c4657612c45612946565b5b6000612c5484828501612b51565b91505092915050565b6000602082019050612c726000830184612904565b92915050565b600063ffffffff82169050919050565b612c9181612c78565b82525050565b6000602082019050612cac6000830184612c88565b92915050565b612cbb816129d5565b8114612cc657600080fd5b50565b600081359050612cd881612cb2565b92915050565b60008060408385031215612cf557612cf4612946565b5b6000612d0385828601612b51565b9250506020612d1485828601612cc9565b9150509250929050565b600080fd5b600080fd5b7f4e487b7100000000000000000000000000000000000000000000000000000000600052604160045260246000fd5b612d6082612a5a565b810181811067ffffffffffffffff82111715612d7f57612d7e612d28565b5b80604052505050565b6000612d9261293c565b9050612d9e8282612d57565b919050565b600067ffffffffffffffff821115612dbe57612dbd612d28565b5b612dc782612a5a565b9050602081019050919050565b82818337600083830152505050565b6000612df6612df184612da3565b612d88565b905082815260208101848484011115612e1257612e11612d23565b5b612e1d848285612dd4565b509392505050565b600082601f830112612e3a57612e39612d1e565b5b8135612e4a848260208601612de3565b91505092915050565b60008060008060808587031215612e6d57612e6c612946565b5b6000612e7b87828801612b51565b9450506020612e8c87828801612b51565b9350506040612e9d87828801612add565b925050606085013567ffffffffffffffff811115612ebe57612ebd61294b565b5b612eca87828801612e25565b91505092959194509250565b60008060408385031215612eed57612eec612946565b5b6000612efb85828601612b51565b9250506020612f0c85828601612b51565b9150509250929050565b7f4e487b7100000000000000000000000000000000000000000000000000000000600052602260045260246000fd5b60006002820490506001821680612f5d57607f821691505b60208210811415612f7157612f70612f16565b5b50919050565b7f4552433732313a20617070726f76616c20746f2063757272656e74206f776e6560008201527f7200000000000000000000000000000000000000000000000000000000000000602082015250565b6000612fd3602183612a16565b9150612fde82612f77565b604082019050919050565b6000602082019050818103600083015261300281612fc6565b9050919050565b7f4552433732313a20617070726f76652063616c6c6572206973206e6f7420746f60008201527f6b656e206f776e6572206f7220617070726f76656420666f7220616c6c000000602082015250565b6000613065603d83612a16565b915061307082613009565b604082019050919050565b6000602082019050818103600083015261309481613058565b9050919050565b7f4e487b7100000000000000000000000000000000000000000000000000000000600052601160045260246000fd5b60006130d582612c78565b91506130e083612c78565b92508263ffffffff038211156130f9576130f861309b565b5b828201905092915050565b7f4d6178206d696e74206c696d6974207065722077616c6c65742072656163686560008201527f6400000000000000000000000000000000000000000000000000000000000000602082015250565b6000613160602183612a16565b915061316b82613104565b604082019050919050565b6000602082019050818103600083015261318f81613153565b9050919050565b7f4e6f7420656e6f75676820455448000000000000000000000000000000000000600082015250565b60006131cc600e83612a16565b91506131d782613196565b602082019050919050565b600060208201905081810360008301526131fb816131bf565b9050919050565b7f4552433732313a2063616c6c6572206973206e6f7420746f6b656e206f776e6560008201527f72206f7220617070726f76656400000000000000000000000000000000000000602082015250565b600061325e602d83612a16565b915061326982613202565b604082019050919050565b6000602082019050818103600083015261328d81613251565b9050919050565b600081905092915050565b50565b60006132af600083613294565b91506132ba8261329f565b600082019050919050565b60006132d0826132a2565b9150819050919050565b7f5472616e73666572206661696c65640000000000000000000000000000000000600082015250565b6000613310600f83612a16565b915061331b826132da565b602082019050919050565b6000602082019050818103600083015261333f81613303565b9050919050565b7f4552433732313a20696e76616c696420746f6b656e2049440000000000000000600082015250565b600061337c601883612a16565b915061338782613346565b602082019050919050565b600060208201905081810360008301526133ab8161336f565b9050919050565b7f4552433732313a2061646472657373207a65726f206973206e6f74206120766160008201527f6c6964206f776e65720000000000000000000000000000000000000000000000602082015250565b600061340e602983612a16565b9150613419826133b2565b604082019050919050565b6000602082019050818103600083015261343d81613401565b9050919050565b7f4552433732314d657461646174613a2055524920717565727920666f72206e6f60008201527f6e6578697374656e7420746f6b656e3a00000000000000000000000000000000602082015250565b60006134a0603083612a16565b91506134ab82613444565b604082019050919050565b600060208201905081810360008301526134cf81613493565b9050919050565b7f4f776e61626c653a206e6577206f776e657220697320746865207a65726f206160008201527f6464726573730000000000000000000000000000000000000000000000000000602082015250565b6000613532602683612a16565b915061353d826134d6565b604082019050919050565b6000602082019050818103600083015261356181613525565b9050919050565b7f4e65656420746f2073656e64206d6f7265204554480000000000000000000000600082015250565b600061359e601583612a16565b91506135a982613568565b602082019050919050565b600060208201905081810360008301526135cd81613591565b9050919050565b60006135df826128fa565b91506135ea836128fa565b9250828210156135fd576135fc61309b565b5b828203905092915050565b7f4552433732313a207472616e736665722066726f6d20696e636f72726563742060008201527f6f776e6572000000000000000000000000000000000000000000000000000000602082015250565b6000613664602583612a16565b915061366f82613608565b604082019050919050565b6000602082019050818103600083015261369381613657565b9050919050565b7f4552433732313a207472616e7366657220746f20746865207a65726f2061646460008201527f7265737300000000000000000000000000000000000000000000000000000000602082015250565b60006136f6602483612a16565b91506137018261369a565b604082019050919050565b60006020820190508181036000830152613725816136e9565b9050919050565b7f4f776e61626c653a2063616c6c6572206973206e6f7420746865206f776e6572600082015250565b6000613762602083612a16565b915061376d8261372c565b602082019050919050565b6000602082019050818103600083015261379181613755565b9050919050565b7f5265656e7472616e637947756172643a207265656e7472616e742063616c6c00600082015250565b60006137ce601f83612a16565b91506137d982613798565b602082019050919050565b600060208201905081810360008301526137fd816137c1565b9050919050565b7f4552433732313a20617070726f766520746f2063616c6c657200000000000000600082015250565b600061383a601983612a16565b915061384582613804565b602082019050919050565b600060208201905081810360008301526138698161382d565b9050919050565b7f4552433732313a207472616e7366657220746f206e6f6e20455243373231526560008201527f63656976657220696d706c656d656e7465720000000000000000000000000000602082015250565b60006138cc603283612a16565b91506138d782613870565b604082019050919050565b600060208201905081810360008301526138fb816138bf565b9050919050565b600081905092915050565b600061391882612a0b565b6139228185613902565b9350613932818560208601612a27565b80840191505092915050565b600061394a828561390d565b9150613956828461390d565b91508190509392505050565b7f45524337323155524953746f726167653a2055524920736574206f66206e6f6e60008201527f6578697374656e7420746f6b656e000000000000000000000000000000000000602082015250565b60006139be602e83612a16565b91506139c982613962565b604082019050919050565b600060208201905081810360008301526139ed816139b1565b9050919050565b7f5061757361626c653a206e6f7420706175736564000000000000000000000000600082015250565b6000613a2a601483612a16565b9150613a35826139f4565b602082019050919050565b60006020820190508181036000830152613a5981613a1d565b9050919050565b7f5061757361626c653a2070617573656400000000000000000000000000000000600082015250565b6000613a96601083612a16565b9150613aa182613a60565b602082019050919050565b60006020820190508181036000830152613ac581613a89565b9050919050565b600081519050919050565b600082825260208201905092915050565b6000613af382613acc565b613afd8185613ad7565b9350613b0d818560208601612a27565b613b1681612a5a565b840191505092915050565b6000608082019050613b3660008301876128eb565b613b4360208301866128eb565b613b506040830185612904565b8181036060830152613b628184613ae8565b905095945050505050565b600081519050613b7c8161297c565b92915050565b600060208284031215613b9857613b97612946565b5b6000613ba684828501613b6d565b91505092915050565b7f4e487b7100000000000000000000000000000000000000000000000000000000600052601260045260246000fd5b7f4552433732313a206d696e7420746f20746865207a65726f2061646472657373600082015250565b6000613c14602083612a16565b9150613c1f82613bde565b602082019050919050565b60006020820190508181036000830152613c4381613c07565b9050919050565b7f4552433732313a20746f6b656e20616c7265616479206d696e74656400000000600082015250565b6000613c80601c83612a16565b9150613c8b82613c4a565b602082019050919050565b60006020820190508181036000830152613caf81613c73565b905091905056fea2646970667358221220b81be7fcb88ab1adf4962ee34e3c8c51757fd541f020db31ec761c4abaef31d764736f6c63430008080033",
  "devdoc": {
    "kind": "dev",
    "methods": {
      "approve(address,uint256)": {
        "details": "See {IERC721-approve}."
      },
      "balanceOf(address)": {
        "details": "See {IERC721-balanceOf}."
      },
      "burn(uint256)": {
        "details": "Burns `tokenId`. See {ERC721-_burn}. Requirements: - The caller must own `tokenId` or be an approved operator."
      },
      "getApproved(uint256)": {
        "details": "See {IERC721-getApproved}."
      },
      "isApprovedForAll(address,address)": {
        "details": "See {IERC721-isApprovedForAll}."
      },
      "name()": {
        "details": "See {IERC721Metadata-name}."
      },
      "owner()": {
        "details": "Returns the address of the current owner."
      },
      "ownerOf(uint256)": {
        "details": "See {IERC721-ownerOf}."
      },
      "paused()": {
        "details": "Returns true if the contract is paused, and false otherwise."
      },
      "renounceOwnership()": {
        "details": "Leaves the contract without owner. It will not be possible to call `onlyOwner` functions anymore. Can only be called by the current owner. NOTE: Renouncing ownership will leave the contract without an owner, thereby removing any functionality that is only available to the owner."
      },
      "safeTransferFrom(address,address,uint256)": {
        "details": "See {IERC721-safeTransferFrom}."
      },
      "safeTransferFrom(address,address,uint256,bytes)": {
        "details": "See {IERC721-safeTransferFrom}."
      },
      "setApprovalForAll(address,bool)": {
        "details": "See {IERC721-setApprovalForAll}."
      },
      "supportsInterface(bytes4)": {
        "details": "See {IERC165-supportsInterface}."
      },
      "symbol()": {
        "details": "See {IERC721Metadata-symbol}."
      },
      "transferFrom(address,address,uint256)": {
        "details": "See {IERC721-transferFrom}."
      },
      "transferOwnership(address)": {
        "details": "Transfers ownership of the contract to a new account (`newOwner`). Can only be called by the current owner."
      }
    },
    "version": 1
  },
  "userdoc": {
    "kind": "user",
    "methods": {},
    "version": 1
  },
  "storageLayout": {
    "storage": [
      {
        "astId": 990,
        "contract": "contracts/01-StakingNFT.sol:OptimuhsSingle",
        "label": "_name",
        "offset": 0,
        "slot": "0",
        "type": "t_string_storage"
      },
      {
        "astId": 992,
        "contract": "contracts/01-StakingNFT.sol:OptimuhsSingle",
        "label": "_symbol",
        "offset": 0,
        "slot": "1",
        "type": "t_string_storage"
      },
      {
        "astId": 996,
        "contract": "contracts/01-StakingNFT.sol:OptimuhsSingle",
        "label": "_owners",
        "offset": 0,
        "slot": "2",
        "type": "t_mapping(t_uint256,t_address)"
      },
      {
        "astId": 1000,
        "contract": "contracts/01-StakingNFT.sol:OptimuhsSingle",
        "label": "_balances",
        "offset": 0,
        "slot": "3",
        "type": "t_mapping(t_address,t_uint256)"
      },
      {
        "astId": 1004,
        "contract": "contracts/01-StakingNFT.sol:OptimuhsSingle",
        "label": "_tokenApprovals",
        "offset": 0,
        "slot": "4",
        "type": "t_mapping(t_uint256,t_address)"
      },
      {
        "astId": 1010,
        "contract": "contracts/01-StakingNFT.sol:OptimuhsSingle",
        "label": "_operatorApprovals",
        "offset": 0,
        "slot": "5",
        "type": "t_mapping(t_address,t_mapping(t_address,t_bool))"
      },
      {
        "astId": 2068,
        "contract": "contracts/01-StakingNFT.sol:OptimuhsSingle",
        "label": "_tokenURIs",
        "offset": 0,
        "slot": "6",
        "type": "t_mapping(t_uint256,t_string_storage)"
      },
      {
        "astId": 130,
        "contract": "contracts/01-StakingNFT.sol:OptimuhsSingle",
        "label": "_paused",
        "offset": 0,
        "slot": "7",
        "type": "t_bool"
      },
      {
        "astId": 7,
        "contract": "contracts/01-StakingNFT.sol:OptimuhsSingle",
        "label": "_owner",
        "offset": 1,
        "slot": "7",
        "type": "t_address"
      },
      {
        "astId": 231,
        "contract": "contracts/01-StakingNFT.sol:OptimuhsSingle",
        "label": "_status",
        "offset": 0,
        "slot": "8",
        "type": "t_uint256"
      },
      {
        "astId": 3737,
        "contract": "contracts/01-StakingNFT.sol:OptimuhsSingle",
        "label": "s_tokenIdCounter",
        "offset": 0,
        "slot": "9",
        "type": "t_struct(Counter)2565_storage"
      },
      {
        "astId": 3740,
        "contract": "contracts/01-StakingNFT.sol:OptimuhsSingle",
        "label": "s_baseExtension",
        "offset": 0,
        "slot": "10",
        "type": "t_string_storage"
      },
      {
        "astId": 3743,
        "contract": "contracts/01-StakingNFT.sol:OptimuhsSingle",
        "label": "s_currentMinted",
        "offset": 0,
        "slot": "11",
        "type": "t_uint256"
      },
      {
        "astId": 3745,
        "contract": "contracts/01-StakingNFT.sol:OptimuhsSingle",
        "label": "s_baseTokenURI",
        "offset": 0,
        "slot": "12",
        "type": "t_string_storage"
      },
      {
        "astId": 3749,
        "contract": "contracts/01-StakingNFT.sol:OptimuhsSingle",
        "label": "s_mintList",
        "offset": 0,
        "slot": "13",
        "type": "t_mapping(t_address,t_uint32)"
      },
      {
        "astId": 3759,
        "contract": "contracts/01-StakingNFT.sol:OptimuhsSingle",
        "label": "s_salesConfig",
        "offset": 0,
        "slot": "14",
        "type": "t_struct(SalesConfig)3756_storage"
      }
    ],
    "types": {
      "t_address": {
        "encoding": "inplace",
        "label": "address",
        "numberOfBytes": "20"
      },
      "t_bool": {
        "encoding": "inplace",
        "label": "bool",
        "numberOfBytes": "1"
      },
      "t_mapping(t_address,t_bool)": {
        "encoding": "mapping",
        "key": "t_address",
        "label": "mapping(address => bool)",
        "numberOfBytes": "32",
        "value": "t_bool"
      },
      "t_mapping(t_address,t_mapping(t_address,t_bool))": {
        "encoding": "mapping",
        "key": "t_address",
        "label": "mapping(address => mapping(address => bool))",
        "numberOfBytes": "32",
        "value": "t_mapping(t_address,t_bool)"
      },
      "t_mapping(t_address,t_uint256)": {
        "encoding": "mapping",
        "key": "t_address",
        "label": "mapping(address => uint256)",
        "numberOfBytes": "32",
        "value": "t_uint256"
      },
      "t_mapping(t_address,t_uint32)": {
        "encoding": "mapping",
        "key": "t_address",
        "label": "mapping(address => uint32)",
        "numberOfBytes": "32",
        "value": "t_uint32"
      },
      "t_mapping(t_uint256,t_address)": {
        "encoding": "mapping",
        "key": "t_uint256",
        "label": "mapping(uint256 => address)",
        "numberOfBytes": "32",
        "value": "t_address"
      },
      "t_mapping(t_uint256,t_string_storage)": {
        "encoding": "mapping",
        "key": "t_uint256",
        "label": "mapping(uint256 => string)",
        "numberOfBytes": "32",
        "value": "t_string_storage"
      },
      "t_string_storage": {
        "encoding": "bytes",
        "label": "string",
        "numberOfBytes": "32"
      },
      "t_struct(Counter)2565_storage": {
        "encoding": "inplace",
        "label": "struct Counters.Counter",
        "members": [
          {
            "astId": 2564,
            "contract": "contracts/01-StakingNFT.sol:OptimuhsSingle",
            "label": "_value",
            "offset": 0,
            "slot": "0",
            "type": "t_uint256"
          }
        ],
        "numberOfBytes": "32"
      },
      "t_struct(SalesConfig)3756_storage": {
        "encoding": "inplace",
        "label": "struct OptimuhsSingle.SalesConfig",
        "members": [
          {
            "astId": 3751,
            "contract": "contracts/01-StakingNFT.sol:OptimuhsSingle",
            "label": "mintPrice",
            "offset": 0,
            "slot": "0",
            "type": "t_uint256"
          },
          {
            "astId": 3753,
            "contract": "contracts/01-StakingNFT.sol:OptimuhsSingle",
            "label": "amountPerWallet",
            "offset": 0,
            "slot": "1",
            "type": "t_uint256"
          },
          {
            "astId": 3755,
            "contract": "contracts/01-StakingNFT.sol:OptimuhsSingle",
            "label": "totalSupply",
            "offset": 0,
            "slot": "2",
            "type": "t_uint256"
          }
        ],
        "numberOfBytes": "96"
      },
      "t_uint256": {
        "encoding": "inplace",
        "label": "uint256",
        "numberOfBytes": "32"
      },
      "t_uint32": {
        "encoding": "inplace",
        "label": "uint32",
        "numberOfBytes": "4"
      }
    }
  }
}