{
  "address": "0xe7f1725E7734CE288F8367e1Bb143E90bb3F0512",
  "abi": [
    {
      "inputs": [],
      "stateMutability": "nonpayable",
      "type": "constructor"
    },
    {
      "anonymous": false,
      "inputs": [
        {
          "indexed": true,
          "internalType": "address",
          "name": "owner",
          "type": "address"
        },
        {
          "indexed": true,
          "internalType": "address",
          "name": "spender",
          "type": "address"
        },
        {
          "indexed": false,
          "internalType": "uint256",
          "name": "value",
          "type": "uint256"
        }
      ],
      "name": "Approval",
      "type": "event"
    },
    {
      "anonymous": false,
      "inputs": [
        {
          "indexed": true,
          "internalType": "address",
          "name": "previousOwner",
          "type": "address"
        },
        {
          "indexed": true,
          "internalType": "address",
          "name": "newOwner",
          "type": "address"
        }
      ],
      "name": "OwnershipTransferred",
      "type": "event"
    },
    {
      "anonymous": false,
      "inputs": [
        {
          "indexed": false,
          "internalType": "address",
          "name": "account",
          "type": "address"
        }
      ],
      "name": "Paused",
      "type": "event"
    },
    {
      "anonymous": false,
      "inputs": [
        {
          "indexed": true,
          "internalType": "address",
          "name": "from",
          "type": "address"
        },
        {
          "indexed": true,
          "internalType": "address",
          "name": "to",
          "type": "address"
        },
        {
          "indexed": false,
          "internalType": "uint256",
          "name": "value",
          "type": "uint256"
        }
      ],
      "name": "Transfer",
      "type": "event"
    },
    {
      "anonymous": false,
      "inputs": [
        {
          "indexed": false,
          "internalType": "address",
          "name": "account",
          "type": "address"
        }
      ],
      "name": "Unpaused",
      "type": "event"
    },
    {
      "inputs": [],
      "name": "CURRENT_SUPPLY",
      "outputs": [
        {
          "internalType": "uint256",
          "name": "",
          "type": "uint256"
        }
      ],
      "stateMutability": "view",
      "type": "function"
    },
    {
      "inputs": [],
      "name": "TOTAL_SUPPLY",
      "outputs": [
        {
          "internalType": "uint256",
          "name": "",
          "type": "uint256"
        }
      ],
      "stateMutability": "view",
      "type": "function"
    },
    {
      "inputs": [
        {
          "internalType": "address",
          "name": "owner",
          "type": "address"
        },
        {
          "internalType": "address",
          "name": "spender",
          "type": "address"
        }
      ],
      "name": "allowance",
      "outputs": [
        {
          "internalType": "uint256",
          "name": "",
          "type": "uint256"
        }
      ],
      "stateMutability": "view",
      "type": "function"
    },
    {
      "inputs": [
        {
          "internalType": "address",
          "name": "spender",
          "type": "address"
        },
        {
          "internalType": "uint256",
          "name": "amount",
          "type": "uint256"
        }
      ],
      "name": "approve",
      "outputs": [
        {
          "internalType": "bool",
          "name": "",
          "type": "bool"
        }
      ],
      "stateMutability": "nonpayable",
      "type": "function"
    },
    {
      "inputs": [
        {
          "internalType": "address",
          "name": "account",
          "type": "address"
        }
      ],
      "name": "balanceOf",
      "outputs": [
        {
          "internalType": "uint256",
          "name": "",
          "type": "uint256"
        }
      ],
      "stateMutability": "view",
      "type": "function"
    },
    {
      "inputs": [
        {
          "internalType": "uint256",
          "name": "amount",
          "type": "uint256"
        }
      ],
      "name": "burn",
      "outputs": [],
      "stateMutability": "nonpayable",
      "type": "function"
    },
    {
      "inputs": [
        {
          "internalType": "address",
          "name": "account",
          "type": "address"
        },
        {
          "internalType": "uint256",
          "name": "amount",
          "type": "uint256"
        }
      ],
      "name": "burnFrom",
      "outputs": [],
      "stateMutability": "nonpayable",
      "type": "function"
    },
    {
      "inputs": [],
      "name": "decimals",
      "outputs": [
        {
          "internalType": "uint8",
          "name": "",
          "type": "uint8"
        }
      ],
      "stateMutability": "view",
      "type": "function"
    },
    {
      "inputs": [
        {
          "internalType": "address",
          "name": "spender",
          "type": "address"
        },
        {
          "internalType": "uint256",
          "name": "subtractedValue",
          "type": "uint256"
        }
      ],
      "name": "decreaseAllowance",
      "outputs": [
        {
          "internalType": "bool",
          "name": "",
          "type": "bool"
        }
      ],
      "stateMutability": "nonpayable",
      "type": "function"
    },
    {
      "inputs": [],
      "name": "getAuthorized",
      "outputs": [
        {
          "internalType": "address",
          "name": "",
          "type": "address"
        }
      ],
      "stateMutability": "view",
      "type": "function"
    },
    {
      "inputs": [
        {
          "internalType": "address",
          "name": "spender",
          "type": "address"
        },
        {
          "internalType": "uint256",
          "name": "addedValue",
          "type": "uint256"
        }
      ],
      "name": "increaseAllowance",
      "outputs": [
        {
          "internalType": "bool",
          "name": "",
          "type": "bool"
        }
      ],
      "stateMutability": "nonpayable",
      "type": "function"
    },
    {
      "inputs": [
        {
          "internalType": "address",
          "name": "account",
          "type": "address"
        },
        {
          "internalType": "uint256",
          "name": "amount",
          "type": "uint256"
        }
      ],
      "name": "mintAndSend",
      "outputs": [],
      "stateMutability": "nonpayable",
      "type": "function"
    },
    {
      "inputs": [
        {
          "internalType": "address",
          "name": "account",
          "type": "address"
        },
        {
          "internalType": "uint256",
          "name": "amount",
          "type": "uint256"
        }
      ],
      "name": "mintFromMinter",
      "outputs": [],
      "stateMutability": "nonpayable",
      "type": "function"
    },
    {
      "inputs": [],
      "name": "name",
      "outputs": [
        {
          "internalType": "string",
          "name": "",
          "type": "string"
        }
      ],
      "stateMutability": "view",
      "type": "function"
    },
    {
      "inputs": [],
      "name": "owner",
      "outputs": [
        {
          "internalType": "address",
          "name": "",
          "type": "address"
        }
      ],
      "stateMutability": "view",
      "type": "function"
    },
    {
      "inputs": [],
      "name": "paused",
      "outputs": [
        {
          "internalType": "bool",
          "name": "",
          "type": "bool"
        }
      ],
      "stateMutability": "view",
      "type": "function"
    },
    {
      "inputs": [],
      "name": "renounceOwnership",
      "outputs": [],
      "stateMutability": "nonpayable",
      "type": "function"
    },
    {
      "inputs": [
        {
          "internalType": "address",
          "name": "stakingContract",
          "type": "address"
        }
      ],
      "name": "setAuthorized",
      "outputs": [],
      "stateMutability": "nonpayable",
      "type": "function"
    },
    {
      "inputs": [],
      "name": "symbol",
      "outputs": [
        {
          "internalType": "string",
          "name": "",
          "type": "string"
        }
      ],
      "stateMutability": "view",
      "type": "function"
    },
    {
      "inputs": [],
      "name": "totalSupply",
      "outputs": [
        {
          "internalType": "uint256",
          "name": "",
          "type": "uint256"
        }
      ],
      "stateMutability": "view",
      "type": "function"
    },
    {
      "inputs": [
        {
          "internalType": "address",
          "name": "to",
          "type": "address"
        },
        {
          "internalType": "uint256",
          "name": "amount",
          "type": "uint256"
        }
      ],
      "name": "transfer",
      "outputs": [
        {
          "internalType": "bool",
          "name": "",
          "type": "bool"
        }
      ],
      "stateMutability": "nonpayable",
      "type": "function"
    },
    {
      "inputs": [
        {
          "internalType": "address",
          "name": "from",
          "type": "address"
        },
        {
          "internalType": "address",
          "name": "to",
          "type": "address"
        },
        {
          "internalType": "uint256",
          "name": "amount",
          "type": "uint256"
        }
      ],
      "name": "transferFrom",
      "outputs": [
        {
          "internalType": "bool",
          "name": "",
          "type": "bool"
        }
      ],
      "stateMutability": "nonpayable",
      "type": "function"
    },
    {
      "inputs": [
        {
          "internalType": "address",
          "name": "newOwner",
          "type": "address"
        }
      ],
      "name": "transferOwnership",
      "outputs": [],
      "stateMutability": "nonpayable",
      "type": "function"
    }
  ],
  "transactionHash": "0x40c3fd699bdfac843795fb92357dbe3a7a1e2e7c258178d196e0ed756c71acea",
  "args": [],
  "numDeployments": 1,
  "solcInputHash": "ed2393926945e18ef3472341a49b8c49",
  "bytecode": "0x6080604052620186a060075560006008553480156200001d57600080fd5b506040518060400160405280600b81526020017f726577617264746f6b656e0000000000000000000000000000000000000000008152506040518060400160405280600381526020017f52575400000000000000000000000000000000000000000000000000000000008152508160039080519060200190620000a2929190620001cd565b508060049080519060200190620000bb929190620001cd565b505050620000de620000d2620000ff60201b60201c565b6200010760201b60201c565b6000600560146101000a81548160ff021916908315150217905550620002e2565b600033905090565b6000600560009054906101000a900473ffffffffffffffffffffffffffffffffffffffff16905081600560006101000a81548173ffffffffffffffffffffffffffffffffffffffff021916908373ffffffffffffffffffffffffffffffffffffffff1602179055508173ffffffffffffffffffffffffffffffffffffffff168173ffffffffffffffffffffffffffffffffffffffff167f8be0079c531659141344cd1fd0a4f28419497f9722a3daafe3b4186f6b6457e060405160405180910390a35050565b828054620001db90620002ac565b90600052602060002090601f016020900481019282620001ff57600085556200024b565b82601f106200021a57805160ff19168380011785556200024b565b828001600101855582156200024b579182015b828111156200024a5782518255916020019190600101906200022d565b5b5090506200025a91906200025e565b5090565b5b80821115620002795760008160009055506001016200025f565b5090565b7f4e487b7100000000000000000000000000000000000000000000000000000000600052602260045260246000fd5b60006002820490506001821680620002c557607f821691505b60208210811415620002dc57620002db6200027d565b5b50919050565b6121b180620002f26000396000f3fe608060405234801561001057600080fd5b506004361061014d5760003560e01c8063715018a6116100c3578063902d55a51161007c578063902d55a51461037a57806395d89b4114610398578063a457c2d7146103b6578063a9059cbb146103e6578063dd62ed3e14610416578063f2fde38b146104465761014d565b8063715018a6146102e057806379cc6790146102ea5780637d4fbe9d1461030657806380cb88f4146103225780638413ad481461033e5780638da5cb5b1461035c5761014d565b806323b872dd1161011557806323b872dd146101f8578063313ce56714610228578063395093511461024657806342966c68146102765780635c975abb1461029257806370a08231146102b05761014d565b806306fdde0314610152578063095ea7b31461017057806314fc2812146101a057806318160ddd146101bc57806322948c77146101da575b600080fd5b61015a610462565b604051610167919061160e565b60405180910390f35b61018a600480360381019061018591906116c9565b6104f4565b6040516101979190611724565b60405180910390f35b6101ba60048036038101906101b5919061173f565b610517565b005b6101c4610563565b6040516101d1919061177b565b60405180910390f35b6101e261056d565b6040516101ef919061177b565b60405180910390f35b610212600480360381019061020d9190611796565b610573565b60405161021f9190611724565b60405180910390f35b6102306105a2565b60405161023d9190611805565b60405180910390f35b610260600480360381019061025b91906116c9565b6105ab565b60405161026d9190611724565b60405180910390f35b610290600480360381019061028b9190611820565b6105e2565b005b61029a61063a565b6040516102a79190611724565b60405180910390f35b6102ca60048036038101906102c5919061173f565b610651565b6040516102d7919061177b565b60405180910390f35b6102e8610699565b005b61030460048036038101906102ff91906116c9565b6106ad565b005b610320600480360381019061031b91906116c9565b610725565b005b61033c600480360381019061033791906116c9565b61080e565b005b61034661093a565b604051610353919061185c565b60405180910390f35b610364610964565b604051610371919061185c565b60405180910390f35b61038261098e565b60405161038f919061177b565b60405180910390f35b6103a0610994565b6040516103ad919061160e565b60405180910390f35b6103d060048036038101906103cb91906116c9565b610a26565b6040516103dd9190611724565b60405180910390f35b61040060048036038101906103fb91906116c9565b610a9d565b60405161040d9190611724565b60405180910390f35b610430600480360381019061042b9190611877565b610ac0565b60405161043d919061177b565b60405180910390f35b610460600480360381019061045b919061173f565b610b47565b005b606060038054610471906118e6565b80601f016020809104026020016040519081016040528092919081815260200182805461049d906118e6565b80156104ea5780601f106104bf576101008083540402835291602001916104ea565b820191906000526020600020905b8154815290600101906020018083116104cd57829003601f168201915b5050505050905090565b6000806104ff610bcb565b905061050c818585610bd3565b600191505092915050565b61051f610d9e565b80600660006101000a81548173ffffffffffffffffffffffffffffffffffffffff021916908373ffffffffffffffffffffffffffffffffffffffff16021790555050565b6000600254905090565b60085481565b60008061057e610bcb565b905061058b858285610e1c565b610596858585610ea8565b60019150509392505050565b60006012905090565b6000806105b6610bcb565b90506105d78185856105c88589610ac0565b6105d29190611947565b610bd3565b600191505092915050565b6105ea611120565b6000811161062d576040517f08c379a0000000000000000000000000000000000000000000000000000000008152600401610624906119e9565b60405180910390fd5b610637338261116a565b50565b6000600560149054906101000a900460ff16905090565b60008060008373ffffffffffffffffffffffffffffffffffffffff1673ffffffffffffffffffffffffffffffffffffffff168152602001908152602001600020549050919050565b6106a1610d9e565b6106ab6000611338565b565b6106b5611120565b600081116106f8576040517f08c379a00000000000000000000000000000000000000000000000000000000081526004016106ef906119e9565b60405180910390fd5b6107178233836107088633610ac0565b6107129190611a09565b610bd3565b610721828261116a565b5050565b61072d611120565b600660009054906101000a900473ffffffffffffffffffffffffffffffffffffffff1673ffffffffffffffffffffffffffffffffffffffff163373ffffffffffffffffffffffffffffffffffffffff16146107bd576040517f08c379a00000000000000000000000000000000000000000000000000000000081526004016107b490611a89565b60405180910390fd5b60008111610800576040517f08c379a00000000000000000000000000000000000000000000000000000000081526004016107f7906119e9565b60405180910390fd5b61080a82826113fe565b5050565b610816611120565b600660009054906101000a900473ffffffffffffffffffffffffffffffffffffffff1673ffffffffffffffffffffffffffffffffffffffff163373ffffffffffffffffffffffffffffffffffffffff16146108a6576040517f08c379a000000000000000000000000000000000000000000000000000000000815260040161089d90611a89565b60405180910390fd5b600081116108e9576040517f08c379a00000000000000000000000000000000000000000000000000000000081526004016108e0906119e9565b60405180910390fd5b600754600854826108fa9190611947565b111561092b57600061091960085460075461155590919063ffffffff16565b905061092583826113fe565b50610936565b61093582826113fe565b5b5050565b6000600660009054906101000a900473ffffffffffffffffffffffffffffffffffffffff16905090565b6000600560009054906101000a900473ffffffffffffffffffffffffffffffffffffffff16905090565b60075481565b6060600480546109a3906118e6565b80601f01602080910402602001604051908101604052809291908181526020018280546109cf906118e6565b8015610a1c5780601f106109f157610100808354040283529160200191610a1c565b820191906000526020600020905b8154815290600101906020018083116109ff57829003601f168201915b5050505050905090565b600080610a31610bcb565b90506000610a3f8286610ac0565b905083811015610a84576040517f08c379a0000000000000000000000000000000000000000000000000000000008152600401610a7b90611b1b565b60405180910390fd5b610a918286868403610bd3565b60019250505092915050565b600080610aa8610bcb565b9050610ab5818585610ea8565b600191505092915050565b6000600160008473ffffffffffffffffffffffffffffffffffffffff1673ffffffffffffffffffffffffffffffffffffffff16815260200190815260200160002060008373ffffffffffffffffffffffffffffffffffffffff1673ffffffffffffffffffffffffffffffffffffffff16815260200190815260200160002054905092915050565b610b4f610d9e565b600073ffffffffffffffffffffffffffffffffffffffff168173ffffffffffffffffffffffffffffffffffffffff161415610bbf576040517f08c379a0000000000000000000000000000000000000000000000000000000008152600401610bb690611bad565b60405180910390fd5b610bc881611338565b50565b600033905090565b600073ffffffffffffffffffffffffffffffffffffffff168373ffffffffffffffffffffffffffffffffffffffff161415610c43576040517f08c379a0000000000000000000000000000000000000000000000000000000008152600401610c3a90611c3f565b60405180910390fd5b600073ffffffffffffffffffffffffffffffffffffffff168273ffffffffffffffffffffffffffffffffffffffff161415610cb3576040517f08c379a0000000000000000000000000000000000000000000000000000000008152600401610caa90611cd1565b60405180910390fd5b80600160008573ffffffffffffffffffffffffffffffffffffffff1673ffffffffffffffffffffffffffffffffffffffff16815260200190815260200160002060008473ffffffffffffffffffffffffffffffffffffffff1673ffffffffffffffffffffffffffffffffffffffff168152602001908152602001600020819055508173ffffffffffffffffffffffffffffffffffffffff168373ffffffffffffffffffffffffffffffffffffffff167f8c5be1e5ebec7d5bd14f71427d1e84f3dd0314c0f7b2291e5b200ac8c7c3b92583604051610d91919061177b565b60405180910390a3505050565b610da6610bcb565b73ffffffffffffffffffffffffffffffffffffffff16610dc4610964565b73ffffffffffffffffffffffffffffffffffffffff1614610e1a576040517f08c379a0000000000000000000000000000000000000000000000000000000008152600401610e1190611d3d565b60405180910390fd5b565b6000610e288484610ac0565b90507fffffffffffffffffffffffffffffffffffffffffffffffffffffffffffffffff8114610ea25781811015610e94576040517f08c379a0000000000000000000000000000000000000000000000000000000008152600401610e8b90611da9565b60405180910390fd5b610ea18484848403610bd3565b5b50505050565b600073ffffffffffffffffffffffffffffffffffffffff168373ffffffffffffffffffffffffffffffffffffffff161415610f18576040517f08c379a0000000000000000000000000000000000000000000000000000000008152600401610f0f90611e3b565b60405180910390fd5b600073ffffffffffffffffffffffffffffffffffffffff168273ffffffffffffffffffffffffffffffffffffffff161415610f88576040517f08c379a0000000000000000000000000000000000000000000000000000000008152600401610f7f90611ecd565b60405180910390fd5b610f9383838361156b565b60008060008573ffffffffffffffffffffffffffffffffffffffff1673ffffffffffffffffffffffffffffffffffffffff16815260200190815260200160002054905081811015611019576040517f08c379a000000000000000000000000000000000000000000000000000000000815260040161101090611f5f565b60405180910390fd5b8181036000808673ffffffffffffffffffffffffffffffffffffffff1673ffffffffffffffffffffffffffffffffffffffff16815260200190815260200160002081905550816000808573ffffffffffffffffffffffffffffffffffffffff1673ffffffffffffffffffffffffffffffffffffffff168152602001908152602001600020600082825401925050819055508273ffffffffffffffffffffffffffffffffffffffff168473ffffffffffffffffffffffffffffffffffffffff167fddf252ad1be2c89b69c2b068fc378daa952ba7f163c4a11628f55a4df523b3ef84604051611107919061177b565b60405180910390a361111a848484611570565b50505050565b61112861063a565b15611168576040517f08c379a000000000000000000000000000000000000000000000000000000000815260040161115f90611fcb565b60405180910390fd5b565b600073ffffffffffffffffffffffffffffffffffffffff168273ffffffffffffffffffffffffffffffffffffffff1614156111da576040517f08c379a00000000000000000000000000000000000000000000000000000000081526004016111d19061205d565b60405180910390fd5b6111e68260008361156b565b60008060008473ffffffffffffffffffffffffffffffffffffffff1673ffffffffffffffffffffffffffffffffffffffff1681526020019081526020016000205490508181101561126c576040517f08c379a0000000000000000000000000000000000000000000000000000000008152600401611263906120ef565b60405180910390fd5b8181036000808573ffffffffffffffffffffffffffffffffffffffff1673ffffffffffffffffffffffffffffffffffffffff1681526020019081526020016000208190555081600260008282540392505081905550600073ffffffffffffffffffffffffffffffffffffffff168373ffffffffffffffffffffffffffffffffffffffff167fddf252ad1be2c89b69c2b068fc378daa952ba7f163c4a11628f55a4df523b3ef8460405161131f919061177b565b60405180910390a361133383600084611570565b505050565b6000600560009054906101000a900473ffffffffffffffffffffffffffffffffffffffff16905081600560006101000a81548173ffffffffffffffffffffffffffffffffffffffff021916908373ffffffffffffffffffffffffffffffffffffffff1602179055508173ffffffffffffffffffffffffffffffffffffffff168173ffffffffffffffffffffffffffffffffffffffff167f8be0079c531659141344cd1fd0a4f28419497f9722a3daafe3b4186f6b6457e060405160405180910390a35050565b600073ffffffffffffffffffffffffffffffffffffffff168273ffffffffffffffffffffffffffffffffffffffff16141561146e576040517f08c379a00000000000000000000000000000000000000000000000000000000081526004016114659061215b565b60405180910390fd5b61147a6000838361156b565b806002600082825461148c9190611947565b92505081905550806000808473ffffffffffffffffffffffffffffffffffffffff1673ffffffffffffffffffffffffffffffffffffffff168152602001908152602001600020600082825401925050819055508173ffffffffffffffffffffffffffffffffffffffff16600073ffffffffffffffffffffffffffffffffffffffff167fddf252ad1be2c89b69c2b068fc378daa952ba7f163c4a11628f55a4df523b3ef8360405161153d919061177b565b60405180910390a361155160008383611570565b5050565b600081836115639190611a09565b905092915050565b505050565b505050565b600081519050919050565b600082825260208201905092915050565b60005b838110156115af578082015181840152602081019050611594565b838111156115be576000848401525b50505050565b6000601f19601f8301169050919050565b60006115e082611575565b6115ea8185611580565b93506115fa818560208601611591565b611603816115c4565b840191505092915050565b6000602082019050818103600083015261162881846115d5565b905092915050565b600080fd5b600073ffffffffffffffffffffffffffffffffffffffff82169050919050565b600061166082611635565b9050919050565b61167081611655565b811461167b57600080fd5b50565b60008135905061168d81611667565b92915050565b6000819050919050565b6116a681611693565b81146116b157600080fd5b50565b6000813590506116c38161169d565b92915050565b600080604083850312156116e0576116df611630565b5b60006116ee8582860161167e565b92505060206116ff858286016116b4565b9150509250929050565b60008115159050919050565b61171e81611709565b82525050565b60006020820190506117396000830184611715565b92915050565b60006020828403121561175557611754611630565b5b60006117638482850161167e565b91505092915050565b61177581611693565b82525050565b6000602082019050611790600083018461176c565b92915050565b6000806000606084860312156117af576117ae611630565b5b60006117bd8682870161167e565b93505060206117ce8682870161167e565b92505060406117df868287016116b4565b9150509250925092565b600060ff82169050919050565b6117ff816117e9565b82525050565b600060208201905061181a60008301846117f6565b92915050565b60006020828403121561183657611835611630565b5b6000611844848285016116b4565b91505092915050565b61185681611655565b82525050565b6000602082019050611871600083018461184d565b92915050565b6000806040838503121561188e5761188d611630565b5b600061189c8582860161167e565b92505060206118ad8582860161167e565b9150509250929050565b7f4e487b7100000000000000000000000000000000000000000000000000000000600052602260045260246000fd5b600060028204905060018216806118fe57607f821691505b60208210811415611912576119116118b7565b5b50919050565b7f4e487b7100000000000000000000000000000000000000000000000000000000600052601160045260246000fd5b600061195282611693565b915061195d83611693565b9250827fffffffffffffffffffffffffffffffffffffffffffffffffffffffffffffffff0382111561199257611991611918565b5b828201905092915050565b7f416d6f756e74206d7573742062652067726561746572207468616e207a65726f600082015250565b60006119d3602083611580565b91506119de8261199d565b602082019050919050565b60006020820190508181036000830152611a02816119c6565b9050919050565b6000611a1482611693565b9150611a1f83611693565b925082821015611a3257611a31611918565b5b828203905092915050565b7f556e617574686f72697a65640000000000000000000000000000000000000000600082015250565b6000611a73600c83611580565b9150611a7e82611a3d565b602082019050919050565b60006020820190508181036000830152611aa281611a66565b9050919050565b7f45524332303a2064656372656173656420616c6c6f77616e63652062656c6f7760008201527f207a65726f000000000000000000000000000000000000000000000000000000602082015250565b6000611b05602583611580565b9150611b1082611aa9565b604082019050919050565b60006020820190508181036000830152611b3481611af8565b9050919050565b7f4f776e61626c653a206e6577206f776e657220697320746865207a65726f206160008201527f6464726573730000000000000000000000000000000000000000000000000000602082015250565b6000611b97602683611580565b9150611ba282611b3b565b604082019050919050565b60006020820190508181036000830152611bc681611b8a565b9050919050565b7f45524332303a20617070726f76652066726f6d20746865207a65726f2061646460008201527f7265737300000000000000000000000000000000000000000000000000000000602082015250565b6000611c29602483611580565b9150611c3482611bcd565b604082019050919050565b60006020820190508181036000830152611c5881611c1c565b9050919050565b7f45524332303a20617070726f766520746f20746865207a65726f20616464726560008201527f7373000000000000000000000000000000000000000000000000000000000000602082015250565b6000611cbb602283611580565b9150611cc682611c5f565b604082019050919050565b60006020820190508181036000830152611cea81611cae565b9050919050565b7f4f776e61626c653a2063616c6c6572206973206e6f7420746865206f776e6572600082015250565b6000611d27602083611580565b9150611d3282611cf1565b602082019050919050565b60006020820190508181036000830152611d5681611d1a565b9050919050565b7f45524332303a20696e73756666696369656e7420616c6c6f77616e6365000000600082015250565b6000611d93601d83611580565b9150611d9e82611d5d565b602082019050919050565b60006020820190508181036000830152611dc281611d86565b9050919050565b7f45524332303a207472616e736665722066726f6d20746865207a65726f20616460008201527f6472657373000000000000000000000000000000000000000000000000000000602082015250565b6000611e25602583611580565b9150611e3082611dc9565b604082019050919050565b60006020820190508181036000830152611e5481611e18565b9050919050565b7f45524332303a207472616e7366657220746f20746865207a65726f206164647260008201527f6573730000000000000000000000000000000000000000000000000000000000602082015250565b6000611eb7602383611580565b9150611ec282611e5b565b604082019050919050565b60006020820190508181036000830152611ee681611eaa565b9050919050565b7f45524332303a207472616e7366657220616d6f756e742065786365656473206260008201527f616c616e63650000000000000000000000000000000000000000000000000000602082015250565b6000611f49602683611580565b9150611f5482611eed565b604082019050919050565b60006020820190508181036000830152611f7881611f3c565b9050919050565b7f5061757361626c653a2070617573656400000000000000000000000000000000600082015250565b6000611fb5601083611580565b9150611fc082611f7f565b602082019050919050565b60006020820190508181036000830152611fe481611fa8565b9050919050565b7f45524332303a206275726e2066726f6d20746865207a65726f2061646472657360008201527f7300000000000000000000000000000000000000000000000000000000000000602082015250565b6000612047602183611580565b915061205282611feb565b604082019050919050565b600060208201905081810360008301526120768161203a565b9050919050565b7f45524332303a206275726e20616d6f756e7420657863656564732062616c616e60008201527f6365000000000000000000000000000000000000000000000000000000000000602082015250565b60006120d9602283611580565b91506120e48261207d565b604082019050919050565b60006020820190508181036000830152612108816120cc565b9050919050565b7f45524332303a206d696e7420746f20746865207a65726f206164647265737300600082015250565b6000612145601f83611580565b91506121508261210f565b602082019050919050565b6000602082019050818103600083015261217481612138565b905091905056fea2646970667358221220f06d0ffe8d88b166492bf43b516fd42179b8e1dfd2bb3d0df5361a52fdcfdcb664736f6c63430008080033",
  "devdoc": {
    "kind": "dev",
    "methods": {
      "allowance(address,address)": {
        "details": "See {IERC20-allowance}."
      },
      "approve(address,uint256)": {
        "details": "See {IERC20-approve}. NOTE: If `amount` is the maximum `uint256`, the allowance is not updated on `transferFrom`. This is semantically equivalent to an infinite approval. Requirements: - `spender` cannot be the zero address."
      },
      "balanceOf(address)": {
        "details": "See {IERC20-balanceOf}."
      },
      "decimals()": {
        "details": "Returns the number of decimals used to get its user representation. For example, if `decimals` equals `2`, a balance of `505` tokens should be displayed to a user as `5.05` (`505 / 10 ** 2`). Tokens usually opt for a value of 18, imitating the relationship between Ether and Wei. This is the value {ERC20} uses, unless this function is overridden; NOTE: This information is only used for _display_ purposes: it in no way affects any of the arithmetic of the contract, including {IERC20-balanceOf} and {IERC20-transfer}."
      },
      "decreaseAllowance(address,uint256)": {
        "details": "Atomically decreases the allowance granted to `spender` by the caller. This is an alternative to {approve} that can be used as a mitigation for problems described in {IERC20-approve}. Emits an {Approval} event indicating the updated allowance. Requirements: - `spender` cannot be the zero address. - `spender` must have allowance for the caller of at least `subtractedValue`."
      },
      "increaseAllowance(address,uint256)": {
        "details": "Atomically increases the allowance granted to `spender` by the caller. This is an alternative to {approve} that can be used as a mitigation for problems described in {IERC20-approve}. Emits an {Approval} event indicating the updated allowance. Requirements: - `spender` cannot be the zero address."
      },
      "name()": {
        "details": "Returns the name of the token."
      },
      "owner()": {
        "details": "Returns the address of the current owner."
      },
      "paused()": {
        "details": "Returns true if the contract is paused, and false otherwise."
      },
      "renounceOwnership()": {
        "details": "Leaves the contract without owner. It will not be possible to call `onlyOwner` functions anymore. Can only be called by the current owner. NOTE: Renouncing ownership will leave the contract without an owner, thereby removing any functionality that is only available to the owner."
      },
      "symbol()": {
        "details": "Returns the symbol of the token, usually a shorter version of the name."
      },
      "totalSupply()": {
        "details": "See {IERC20-totalSupply}."
      },
      "transfer(address,uint256)": {
        "details": "See {IERC20-transfer}. Requirements: - `to` cannot be the zero address. - the caller must have a balance of at least `amount`."
      },
      "transferFrom(address,address,uint256)": {
        "details": "See {IERC20-transferFrom}. Emits an {Approval} event indicating the updated allowance. This is not required by the EIP. See the note at the beginning of {ERC20}. NOTE: Does not update the allowance if the current allowance is the maximum `uint256`. Requirements: - `from` and `to` cannot be the zero address. - `from` must have a balance of at least `amount`. - the caller must have allowance for ``from``'s tokens of at least `amount`."
      },
      "transferOwnership(address)": {
        "details": "Transfers ownership of the contract to a new account (`newOwner`). Can only be called by the current owner."
      }
    },
    "version": 1
  },
  "userdoc": {
    "kind": "user",
    "methods": {},
    "version": 1
  },
  "storageLayout": {
    "storage": [
      {
        "astId": 290,
        "contract": "contracts/02-RewardToken.sol:RewardToken",
        "label": "_balances",
        "offset": 0,
        "slot": "0",
        "type": "t_mapping(t_address,t_uint256)"
      },
      {
        "astId": 296,
        "contract": "contracts/02-RewardToken.sol:RewardToken",
        "label": "_allowances",
        "offset": 0,
        "slot": "1",
        "type": "t_mapping(t_address,t_mapping(t_address,t_uint256))"
      },
      {
        "astId": 298,
        "contract": "contracts/02-RewardToken.sol:RewardToken",
        "label": "_totalSupply",
        "offset": 0,
        "slot": "2",
        "type": "t_uint256"
      },
      {
        "astId": 300,
        "contract": "contracts/02-RewardToken.sol:RewardToken",
        "label": "_name",
        "offset": 0,
        "slot": "3",
        "type": "t_string_storage"
      },
      {
        "astId": 302,
        "contract": "contracts/02-RewardToken.sol:RewardToken",
        "label": "_symbol",
        "offset": 0,
        "slot": "4",
        "type": "t_string_storage"
      },
      {
        "astId": 7,
        "contract": "contracts/02-RewardToken.sol:RewardToken",
        "label": "_owner",
        "offset": 0,
        "slot": "5",
        "type": "t_address"
      },
      {
        "astId": 130,
        "contract": "contracts/02-RewardToken.sol:RewardToken",
        "label": "_paused",
        "offset": 20,
        "slot": "5",
        "type": "t_bool"
      },
      {
        "astId": 4068,
        "contract": "contracts/02-RewardToken.sol:RewardToken",
        "label": "authorized",
        "offset": 0,
        "slot": "6",
        "type": "t_address"
      },
      {
        "astId": 4071,
        "contract": "contracts/02-RewardToken.sol:RewardToken",
        "label": "TOTAL_SUPPLY",
        "offset": 0,
        "slot": "7",
        "type": "t_uint256"
      },
      {
        "astId": 4074,
        "contract": "contracts/02-RewardToken.sol:RewardToken",
        "label": "CURRENT_SUPPLY",
        "offset": 0,
        "slot": "8",
        "type": "t_uint256"
      }
    ],
    "types": {
      "t_address": {
        "encoding": "inplace",
        "label": "address",
        "numberOfBytes": "20"
      },
      "t_bool": {
        "encoding": "inplace",
        "label": "bool",
        "numberOfBytes": "1"
      },
      "t_mapping(t_address,t_mapping(t_address,t_uint256))": {
        "encoding": "mapping",
        "key": "t_address",
        "label": "mapping(address => mapping(address => uint256))",
        "numberOfBytes": "32",
        "value": "t_mapping(t_address,t_uint256)"
      },
      "t_mapping(t_address,t_uint256)": {
        "encoding": "mapping",
        "key": "t_address",
        "label": "mapping(address => uint256)",
        "numberOfBytes": "32",
        "value": "t_uint256"
      },
      "t_string_storage": {
        "encoding": "bytes",
        "label": "string",
        "numberOfBytes": "32"
      },
      "t_uint256": {
        "encoding": "inplace",
        "label": "uint256",
        "numberOfBytes": "32"
      }
    }
  }
}