{
  "address": "0x9fE46736679d2D9a65F0992F2272dE9f3c7fa6e0",
  "abi": [
    {
      "inputs": [
        {
          "internalType": "contract IERC721",
          "name": "_parentNFT",
          "type": "address"
        },
        {
          "internalType": "contract RewardTokenInterface",
          "name": "_rewardsToken",
          "type": "address"
        }
      ],
      "stateMutability": "nonpayable",
      "type": "constructor"
    },
    {
      "anonymous": false,
      "inputs": [
        {
          "indexed": true,
          "internalType": "address",
          "name": "previousOwner",
          "type": "address"
        },
        {
          "indexed": true,
          "internalType": "address",
          "name": "newOwner",
          "type": "address"
        }
      ],
      "name": "OwnershipTransferred",
      "type": "event"
    },
    {
      "anonymous": false,
      "inputs": [
        {
          "indexed": false,
          "internalType": "address",
          "name": "account",
          "type": "address"
        }
      ],
      "name": "Paused",
      "type": "event"
    },
    {
      "anonymous": false,
      "inputs": [
        {
          "indexed": false,
          "internalType": "uint256",
          "name": "_token",
          "type": "uint256"
        },
        {
          "indexed": false,
          "internalType": "address",
          "name": "_user",
          "type": "address"
        }
      ],
      "name": "TokenReceived",
      "type": "event"
    },
    {
      "anonymous": false,
      "inputs": [
        {
          "indexed": false,
          "internalType": "uint256",
          "name": "_token",
          "type": "uint256"
        },
        {
          "indexed": false,
          "internalType": "address",
          "name": "_user",
          "type": "address"
        },
        {
          "indexed": false,
          "internalType": "uint256",
          "name": "timestamp",
          "type": "uint256"
        }
      ],
      "name": "TokenStaked",
      "type": "event"
    },
    {
      "anonymous": false,
      "inputs": [
        {
          "indexed": false,
          "internalType": "uint256",
          "name": "_tokenid",
          "type": "uint256"
        },
        {
          "indexed": false,
          "internalType": "address",
          "name": "_user",
          "type": "address"
        },
        {
          "indexed": false,
          "internalType": "uint256",
          "name": "timestamp",
          "type": "uint256"
        }
      ],
      "name": "TokenUnstaked",
      "type": "event"
    },
    {
      "anonymous": false,
      "inputs": [
        {
          "indexed": false,
          "internalType": "uint256",
          "name": "_token",
          "type": "uint256"
        },
        {
          "indexed": false,
          "internalType": "address",
          "name": "_user",
          "type": "address"
        }
      ],
      "name": "TokenWithdrawn",
      "type": "event"
    },
    {
      "anonymous": false,
      "inputs": [
        {
          "indexed": false,
          "internalType": "address",
          "name": "account",
          "type": "address"
        }
      ],
      "name": "Unpaused",
      "type": "event"
    },
    {
      "inputs": [
        {
          "internalType": "address",
          "name": "_user",
          "type": "address"
        },
        {
          "internalType": "uint256",
          "name": "_tokenid",
          "type": "uint256"
        }
      ],
      "name": "calculateStakeRewards",
      "outputs": [
        {
          "internalType": "uint256",
          "name": "",
          "type": "uint256"
        }
      ],
      "stateMutability": "nonpayable",
      "type": "function"
    },
    {
      "inputs": [
        {
          "internalType": "uint256",
          "name": "tokenid",
          "type": "uint256"
        },
        {
          "internalType": "address",
          "name": "user",
          "type": "address"
        }
      ],
      "name": "checkOwner",
      "outputs": [
        {
          "internalType": "bool",
          "name": "",
          "type": "bool"
        }
      ],
      "stateMutability": "nonpayable",
      "type": "function"
    },
    {
      "inputs": [
        {
          "internalType": "address",
          "name": "_user",
          "type": "address"
        },
        {
          "internalType": "uint256",
          "name": "_tokenid",
          "type": "uint256"
        }
      ],
      "name": "checkTokenIsStaked",
      "outputs": [
        {
          "internalType": "bool",
          "name": "",
          "type": "bool"
        }
      ],
      "stateMutability": "view",
      "type": "function"
    },
    {
      "inputs": [
        {
          "internalType": "uint256",
          "name": "_tokenid",
          "type": "uint256"
        }
      ],
      "name": "getTokenStakeTime",
      "outputs": [
        {
          "internalType": "uint256",
          "name": "",
          "type": "uint256"
        }
      ],
      "stateMutability": "view",
      "type": "function"
    },
    {
      "inputs": [
        {
          "internalType": "address",
          "name": "_userAddress",
          "type": "address"
        }
      ],
      "name": "getUserStake",
      "outputs": [
        {
          "internalType": "uint256[]",
          "name": "_tokenid",
          "type": "uint256[]"
        },
        {
          "internalType": "uint256",
          "name": "_totalStakeTime",
          "type": "uint256"
        }
      ],
      "stateMutability": "view",
      "type": "function"
    },
    {
      "inputs": [
        {
          "internalType": "address",
          "name": "_user",
          "type": "address"
        }
      ],
      "name": "getUserStakeTime",
      "outputs": [
        {
          "internalType": "uint256",
          "name": "totalStakeTime",
          "type": "uint256"
        }
      ],
      "stateMutability": "view",
      "type": "function"
    },
    {
      "inputs": [
        {
          "internalType": "address",
          "name": "user",
          "type": "address"
        }
      ],
      "name": "getUserTokenList",
      "outputs": [
        {
          "internalType": "uint256[]",
          "name": "",
          "type": "uint256[]"
        }
      ],
      "stateMutability": "view",
      "type": "function"
    },
    {
      "inputs": [
        {
          "internalType": "address",
          "name": "operator",
          "type": "address"
        },
        {
          "internalType": "address",
          "name": "from",
          "type": "address"
        },
        {
          "internalType": "uint256",
          "name": "tokenId",
          "type": "uint256"
        },
        {
          "internalType": "bytes",
          "name": "data",
          "type": "bytes"
        }
      ],
      "name": "onERC721Received",
      "outputs": [
        {
          "internalType": "bytes4",
          "name": "",
          "type": "bytes4"
        }
      ],
      "stateMutability": "nonpayable",
      "type": "function"
    },
    {
      "inputs": [],
      "name": "owner",
      "outputs": [
        {
          "internalType": "address",
          "name": "",
          "type": "address"
        }
      ],
      "stateMutability": "view",
      "type": "function"
    },
    {
      "inputs": [],
      "name": "pause",
      "outputs": [],
      "stateMutability": "nonpayable",
      "type": "function"
    },
    {
      "inputs": [],
      "name": "paused",
      "outputs": [
        {
          "internalType": "bool",
          "name": "",
          "type": "bool"
        }
      ],
      "stateMutability": "view",
      "type": "function"
    },
    {
      "inputs": [],
      "name": "renounceOwnership",
      "outputs": [],
      "stateMutability": "nonpayable",
      "type": "function"
    },
    {
      "inputs": [
        {
          "internalType": "uint256",
          "name": "_tokenid",
          "type": "uint256"
        }
      ],
      "name": "stakeToken",
      "outputs": [],
      "stateMutability": "nonpayable",
      "type": "function"
    },
    {
      "inputs": [
        {
          "internalType": "address",
          "name": "",
          "type": "address"
        }
      ],
      "name": "stakes",
      "outputs": [
        {
          "internalType": "uint256",
          "name": "collectedTime",
          "type": "uint256"
        },
        {
          "internalType": "uint256",
          "name": "unclaimedRewards",
          "type": "uint256"
        }
      ],
      "stateMutability": "view",
      "type": "function"
    },
    {
      "inputs": [
        {
          "internalType": "uint256",
          "name": "",
          "type": "uint256"
        }
      ],
      "name": "tokenStakingTime",
      "outputs": [
        {
          "internalType": "uint256",
          "name": "",
          "type": "uint256"
        }
      ],
      "stateMutability": "view",
      "type": "function"
    },
    {
      "inputs": [
        {
          "internalType": "address",
          "name": "newOwner",
          "type": "address"
        }
      ],
      "name": "transferOwnership",
      "outputs": [],
      "stateMutability": "nonpayable",
      "type": "function"
    },
    {
      "inputs": [],
      "name": "unpause",
      "outputs": [],
      "stateMutability": "nonpayable",
      "type": "function"
    },
    {
      "inputs": [
        {
          "internalType": "address",
          "name": "_user",
          "type": "address"
        },
        {
          "internalType": "uint256",
          "name": "_tokenid",
          "type": "uint256"
        }
      ],
      "name": "unstakeToken",
      "outputs": [],
      "stateMutability": "nonpayable",
      "type": "function"
    },
    {
      "inputs": [],
      "name": "withdraw",
      "outputs": [
        {
          "internalType": "bool",
          "name": "",
          "type": "bool"
        }
      ],
      "stateMutability": "nonpayable",
      "type": "function"
    }
  ],
  "transactionHash": "0xb9b1f4f1c75f9e35562dfec03a696036cac29f8030d90b865d50207713676a54",
  "args": [
    "0x5FbDB2315678afecb367f032d93F642f64180aa3",
    "0xe7f1725E7734CE288F8367e1Bb143E90bb3F0512"
  ],
  "numDeployments": 1,
  "solcInputHash": "ed2393926945e18ef3472341a49b8c49",
  "bytecode": "0x60e0604052600160c0908152503480156200001957600080fd5b50604051620031773803806200317783398181016040528101906200003f919062000285565b6200005f62000053620000f660201b60201c565b620000fe60201b60201c565b60008060146101000a81548160ff021916908315150217905550600180819055508173ffffffffffffffffffffffffffffffffffffffff1660808173ffffffffffffffffffffffffffffffffffffffff1660601b815250508073ffffffffffffffffffffffffffffffffffffffff1660a08173ffffffffffffffffffffffffffffffffffffffff1660601b815250505050620002cc565b600033905090565b60008060009054906101000a900473ffffffffffffffffffffffffffffffffffffffff169050816000806101000a81548173ffffffffffffffffffffffffffffffffffffffff021916908373ffffffffffffffffffffffffffffffffffffffff1602179055508173ffffffffffffffffffffffffffffffffffffffff168173ffffffffffffffffffffffffffffffffffffffff167f8be0079c531659141344cd1fd0a4f28419497f9722a3daafe3b4186f6b6457e060405160405180910390a35050565b600080fd5b600073ffffffffffffffffffffffffffffffffffffffff82169050919050565b6000620001f482620001c7565b9050919050565b60006200020882620001e7565b9050919050565b6200021a81620001fb565b81146200022657600080fd5b50565b6000815190506200023a816200020f565b92915050565b60006200024d82620001e7565b9050919050565b6200025f8162000240565b81146200026b57600080fd5b50565b6000815190506200027f8162000254565b92915050565b600080604083850312156200029f576200029e620001c2565b5b6000620002af8582860162000229565b9250506020620002c2858286016200026e565b9150509250929050565b60805160601c60a05160601c60c051612e446200033360003960008181610b010152610cbc01526000611b8b01526000818161049c01528181610b7701528181610ed5015281816112a101528181611398015281816114af01526115fe0152612e446000f3fe608060405234801561001057600080fd5b50600436106101215760003560e01c80636c82a726116100ad578063bbadc93a11610071578063bbadc93a1461030b578063be8dbea61461033c578063cda6b8471461036c578063d9078b2b14610388578063f2fde38b146103b857610121565b80636c82a7261461028d578063715018a6146102a95780638456cb59146102b357806384f334cb146102bd5780638da5cb5b146102ed57610121565b80633ccfd60b116100f45780633ccfd60b146101e75780633f4ba83a146102055780634b18de1a1461020f578063540980921461023f5780635c975abb1461026f57610121565b8063108ab59314610126578063150b7a021461015657806316934fc4146101865780631703b6a5146101b7575b600080fd5b610140600480360381019061013b9190611eb8565b6103d4565b60405161014d9190611efe565b60405180910390f35b610170600480360381019061016b919061208b565b610420565b60405161017d9190612149565b60405180910390f35b6101a0600480360381019061019b9190611eb8565b61084a565b6040516101ae929190612164565b60405180910390f35b6101d160048036038101906101cc919061218d565b61086e565b6040516101de91906121e8565b60405180910390f35b6101ef610997565b6040516101fc91906121e8565b60405180910390f35b61020d610a64565b005b6102296004803603810190610224919061218d565b610a76565b6040516102369190611efe565b60405180910390f35b61025960048036038101906102549190611eb8565b610cf7565b60405161026691906122c1565b60405180910390f35b610277610d91565b60405161028491906121e8565b60405180910390f35b6102a760048036038101906102a2919061218d565b610da7565b005b6102b1611091565b005b6102bb6110a5565b005b6102d760048036038101906102d291906122e3565b6110b7565b6040516102e49190611efe565b60405180910390f35b6102f56110cf565b604051610302919061231f565b60405180910390f35b61032560048036038101906103209190611eb8565b6110f8565b60405161033392919061233a565b60405180910390f35b6103566004803603810190610351919061236a565b6111dc565b60405161036391906121e8565b60405180910390f35b610386600480360381019061038191906122e3565b611295565b005b6103a2600480360381019061039d91906122e3565b611778565b6040516103af9190611efe565b60405180910390f35b6103d260048036038101906103cd9190611eb8565b611795565b005b6000600360008373ffffffffffffffffffffffffffffffffffffffff1673ffffffffffffffffffffffffffffffffffffffff168152602001908152602001600020600101549050919050565b600080831015610465576040517f08c379a000000000000000000000000000000000000000000000000000000000815260040161045c90612407565b60405180910390fd5b3373ffffffffffffffffffffffffffffffffffffffff168473ffffffffffffffffffffffffffffffffffffffff16148061057257507f000000000000000000000000000000000000000000000000000000000000000073ffffffffffffffffffffffffffffffffffffffff16636352211e846040518263ffffffff1660e01b81526004016104f39190611efe565b60206040518083038186803b15801561050b57600080fd5b505afa15801561051f573d6000803e3d6000fd5b505050506040513d601f19601f82011682018060405250810190610543919061243c565b73ffffffffffffffffffffffffffffffffffffffff168573ffffffffffffffffffffffffffffffffffffffff16145b6105b1576040517f08c379a00000000000000000000000000000000000000000000000000000000081526004016105a8906124b5565b60405180910390fd5b6001600360008673ffffffffffffffffffffffffffffffffffffffff1673ffffffffffffffffffffffffffffffffffffffff1681526020019081526020016000206000018054905010156107645760006040518060600160405280600067ffffffffffffffff81111561062757610626611f60565b5b6040519080825280602002602001820160405280156106555781602001602082028036833780820191505090505b508152602001600081526020016000815250905080600360008773ffffffffffffffffffffffffffffffffffffffff1673ffffffffffffffffffffffffffffffffffffffff16815260200190815260200160002060008201518160000190805190602001906106c5929190611ddc565b506020820151816001015560408201518160020155905050600360008673ffffffffffffffffffffffffffffffffffffffff1673ffffffffffffffffffffffffffffffffffffffff168152602001908152602001600020600001849080600181540180825580915050600190039060005260206000200160009091909190915055426004600086815260200190815260200160002081905550506107e6565b600360008573ffffffffffffffffffffffffffffffffffffffff1673ffffffffffffffffffffffffffffffffffffffff1681526020019081526020016000206000018390806001815401808255809150506001900390600052602060002001600090919091909150554260046000858152602001908152602001600020819055505b7f5e1786925079a770f2d6d163c1f590c00c2ac4186b0c223746d3573606fb2a4583856040516108179291906124d5565b60405180910390a17f150b7a023d4804d13e8c85fb27262cb750cf6ba9f9dd3bb30d90f482ceeb4b1f9050949350505050565b60036020528060005260406000206000915090508060010154908060020154905082565b600080600360008573ffffffffffffffffffffffffffffffffffffffff1673ffffffffffffffffffffffffffffffffffffffff16815260200190815260200160002060000180549050111561098c576000600260008573ffffffffffffffffffffffffffffffffffffffff1673ffffffffffffffffffffffffffffffffffffffff1681526020019081526020016000206000848152602001908152602001600020549050600360008573ffffffffffffffffffffffffffffffffffffffff1673ffffffffffffffffffffffffffffffffffffffff1681526020019081526020016000206000018181548110610966576109656124fe565b5b9060005260206000200154831415610982576001915050610991565b6000915050610991565b600090505b92915050565b60006109a1611819565b6109a9611897565b60003373ffffffffffffffffffffffffffffffffffffffff16476040516109cf9061255e565b60006040518083038185875af1925050503d8060008114610a0c576040519150601f19603f3d011682016040523d82523d6000602084013e610a11565b606091505b5050905080610a55576040517f08c379a0000000000000000000000000000000000000000000000000000000008152600401610a4c906125bf565b60405180910390fd5b80915050610a616118e7565b90565b610a6c611819565b610a746118f0565b565b600080600360008573ffffffffffffffffffffffffffffffffffffffff1673ffffffffffffffffffffffffffffffffffffffff1681526020019081526020016000206000018054905011610aff576040517f08c379a0000000000000000000000000000000000000000000000000000000008152600401610af690612651565b60405180910390fd5b7f000000000000000000000000000000000000000000000000000000000000000060046000848152602001908152602001600020541015610b75576040517f08c379a0000000000000000000000000000000000000000000000000000000008152600401610b6c906126e3565b60405180910390fd5b7f000000000000000000000000000000000000000000000000000000000000000073ffffffffffffffffffffffffffffffffffffffff16636352211e836040518263ffffffff1660e01b8152600401610bce9190611efe565b60206040518083038186803b158015610be657600080fd5b505afa158015610bfa573d6000803e3d6000fd5b505050506040513d601f19601f82011682018060405250810190610c1e919061243c565b73ffffffffffffffffffffffffffffffffffffffff163373ffffffffffffffffffffffffffffffffffffffff1614610c8b576040517f08c379a0000000000000000000000000000000000000000000000000000000008152600401610c829061274f565b60405180910390fd5b6000610cb360046000858152602001908152602001600020544261195290919063ffffffff16565b90506000610cea7f00000000000000000000000000000000000000000000000000000000000000008361196890919063ffffffff16565b9050809250505092915050565b6060600360008373ffffffffffffffffffffffffffffffffffffffff1673ffffffffffffffffffffffffffffffffffffffff168152602001908152602001600020600001805480602002602001604051908101604052809291908181526020018280548015610d8557602002820191906000526020600020905b815481526020019060010190808311610d71575b50505050509050919050565b60008060149054906101000a900460ff16905090565b610daf611897565b6000610dbb82846111dc565b90506000600360008573ffffffffffffffffffffffffffffffffffffffff1673ffffffffffffffffffffffffffffffffffffffff1681526020019081526020016000206000018054905011610e45576040517f08c379a0000000000000000000000000000000000000000000000000000000008152600401610e3c906127bb565b60405180910390fd5b80610e85576040517f08c379a0000000000000000000000000000000000000000000000000000000008152600401610e7c9061274f565b60405180910390fd5b6000610e91848461086e565b905080610ed3576040517f08c379a0000000000000000000000000000000000000000000000000000000008152600401610eca90612827565b60405180910390fd5b7f000000000000000000000000000000000000000000000000000000000000000073ffffffffffffffffffffffffffffffffffffffff166342842e0e3086866040518463ffffffff1660e01b8152600401610f3093929190612847565b600060405180830381600087803b158015610f4a57600080fd5b505af1158015610f5e573d6000803e3d6000fd5b505050506000600260008673ffffffffffffffffffffffffffffffffffffffff1673ffffffffffffffffffffffffffffffffffffffff16815260200190815260200160002060008581526020019081526020016000205490506000610fc38686610a76565b9050610fcf828761197e565b60006004600087815260200190815260200160002081905550600260008773ffffffffffffffffffffffffffffffffffffffff1673ffffffffffffffffffffffffffffffffffffffff1681526020019081526020016000206000868152602001908152602001600020600090556110468682611b89565b7f8400aad51ec7b4a6d1c58218ea03e51798a0485003beae9e5b76662e91d7058f8587426040516110799392919061287e565b60405180910390a15050505061108d6118e7565b5050565b611099611819565b6110a36000611c1a565b565b6110ad611819565b6110b5611cde565b565b60046020528060005260406000206000915090505481565b60008060009054906101000a900473ffffffffffffffffffffffffffffffffffffffff16905090565b60606000600360008473ffffffffffffffffffffffffffffffffffffffff1673ffffffffffffffffffffffffffffffffffffffff168152602001908152602001600020600001600360008573ffffffffffffffffffffffffffffffffffffffff1673ffffffffffffffffffffffffffffffffffffffff16815260200190815260200160002060010154818054806020026020016040519081016040528092919081815260200182805480156111cc57602002820191906000526020600020905b8154815260200190600101908083116111b8575b5050505050915091509150915091565b600080600360008473ffffffffffffffffffffffffffffffffffffffff1673ffffffffffffffffffffffffffffffffffffffff16815260200190815260200160002060000180549050111561128a576000600260008473ffffffffffffffffffffffffffffffffffffffff1673ffffffffffffffffffffffffffffffffffffffff1681526020019081526020016000206000858152602001908152602001600020549050600191505061128f565b600090505b92915050565b61129d611897565b60007f000000000000000000000000000000000000000000000000000000000000000073ffffffffffffffffffffffffffffffffffffffff16636352211e836040518263ffffffff1660e01b81526004016112f89190611efe565b60206040518083038186803b15801561131057600080fd5b505afa158015611324573d6000803e3d6000fd5b505050506040513d601f19601f82011682018060405250810190611348919061243c565b90508073ffffffffffffffffffffffffffffffffffffffff163373ffffffffffffffffffffffffffffffffffffffff16148061145757503073ffffffffffffffffffffffffffffffffffffffff167f000000000000000000000000000000000000000000000000000000000000000073ffffffffffffffffffffffffffffffffffffffff1663081812fc846040518263ffffffff1660e01b81526004016113ef9190611efe565b60206040518083038186803b15801561140757600080fd5b505afa15801561141b573d6000803e3d6000fd5b505050506040513d601f19601f8201168201806040525081019061143f919061243c565b73ffffffffffffffffffffffffffffffffffffffff16145b611496576040517f08c379a000000000000000000000000000000000000000000000000000000000815260040161148d90612927565b60405180910390fd5b3073ffffffffffffffffffffffffffffffffffffffff167f000000000000000000000000000000000000000000000000000000000000000073ffffffffffffffffffffffffffffffffffffffff1663081812fc846040518263ffffffff1660e01b81526004016115069190611efe565b60206040518083038186803b15801561151e57600080fd5b505afa158015611532573d6000803e3d6000fd5b505050506040513d601f19601f82011682018060405250810190611556919061243c565b73ffffffffffffffffffffffffffffffffffffffff16146115ac576040517f08c379a00000000000000000000000000000000000000000000000000000000081526004016115a3906129b9565b60405180910390fd5b600015156115ba338461086e565b1515146115fc576040517f08c379a00000000000000000000000000000000000000000000000000000000081526004016115f390612a25565b60405180910390fd5b7f000000000000000000000000000000000000000000000000000000000000000073ffffffffffffffffffffffffffffffffffffffff166342842e0e8230856040518463ffffffff1660e01b815260040161165993929190612847565b600060405180830381600087803b15801561167357600080fd5b505af1158015611687573d6000803e3d6000fd5b505050506001600360003373ffffffffffffffffffffffffffffffffffffffff1673ffffffffffffffffffffffffffffffffffffffff168152602001908152602001600020600001805490506116dd9190612a74565b600260003373ffffffffffffffffffffffffffffffffffffffff1673ffffffffffffffffffffffffffffffffffffffff1681526020019081526020016000206000848152602001908152602001600020819055507f8af1bb49fb16c7835975aa59449ba4328dd54737dfb2ae9fa6c5eca71fda51f98233426040516117649392919061287e565b60405180910390a1506117756118e7565b50565b600060046000838152602001908152602001600020549050919050565b61179d611819565b600073ffffffffffffffffffffffffffffffffffffffff168173ffffffffffffffffffffffffffffffffffffffff16141561180d576040517f08c379a000000000000000000000000000000000000000000000000000000000815260040161180490612b1a565b60405180910390fd5b61181681611c1a565b50565b611821611d41565b73ffffffffffffffffffffffffffffffffffffffff1661183f6110cf565b73ffffffffffffffffffffffffffffffffffffffff1614611895576040517f08c379a000000000000000000000000000000000000000000000000000000000815260040161188c90612b86565b60405180910390fd5b565b600260015414156118dd576040517f08c379a00000000000000000000000000000000000000000000000000000000081526004016118d490612bf2565b60405180910390fd5b6002600181905550565b60018081905550565b6118f8611d49565b60008060146101000a81548160ff0219169083151502179055507f5db9ee0a495bf2e6ff9c91a7834c1ba4fdd244a5e8aa4e537bd38aeae4b073aa61193b611d41565b604051611948919061231f565b60405180910390a1565b600081836119609190612a74565b905092915050565b600081836119769190612c41565b905092915050565b600360008273ffffffffffffffffffffffffffffffffffffffff1673ffffffffffffffffffffffffffffffffffffffff168152602001908152602001600020600001805490508210611a05576040517f08c379a00000000000000000000000000000000000000000000000000000000081526004016119fc90612cbe565b60405180910390fd5b6000600360008373ffffffffffffffffffffffffffffffffffffffff1673ffffffffffffffffffffffffffffffffffffffff168152602001908152602001600020600001805490509050600360008373ffffffffffffffffffffffffffffffffffffffff1673ffffffffffffffffffffffffffffffffffffffff168152602001908152602001600020600001600182611a9e9190612a74565b81548110611aaf57611aae6124fe565b5b9060005260206000200154600360008473ffffffffffffffffffffffffffffffffffffffff1673ffffffffffffffffffffffffffffffffffffffff1681526020019081526020016000206000018481548110611b0e57611b0d6124fe565b5b9060005260206000200181905550600360008373ffffffffffffffffffffffffffffffffffffffff1673ffffffffffffffffffffffffffffffffffffffff168152602001908152602001600020600001805480611b6e57611b6d612cde565b5b60019003818190600052602060002001600090559055505050565b7f000000000000000000000000000000000000000000000000000000000000000073ffffffffffffffffffffffffffffffffffffffff166380cb88f483836040518363ffffffff1660e01b8152600401611be4929190612d0d565b600060405180830381600087803b158015611bfe57600080fd5b505af1158015611c12573d6000803e3d6000fd5b505050505050565b60008060009054906101000a900473ffffffffffffffffffffffffffffffffffffffff169050816000806101000a81548173ffffffffffffffffffffffffffffffffffffffff021916908373ffffffffffffffffffffffffffffffffffffffff1602179055508173ffffffffffffffffffffffffffffffffffffffff168173ffffffffffffffffffffffffffffffffffffffff167f8be0079c531659141344cd1fd0a4f28419497f9722a3daafe3b4186f6b6457e060405160405180910390a35050565b611ce6611d92565b6001600060146101000a81548160ff0219169083151502179055507f62e78cea01bee320cd4e420270b5ea74000d11b0c9f74754ebdbfc544b05a258611d2a611d41565b604051611d37919061231f565b60405180910390a1565b600033905090565b611d51610d91565b611d90576040517f08c379a0000000000000000000000000000000000000000000000000000000008152600401611d8790612d82565b60405180910390fd5b565b611d9a610d91565b15611dda576040517f08c379a0000000000000000000000000000000000000000000000000000000008152600401611dd190612dee565b60405180910390fd5b565b828054828255906000526020600020908101928215611e18579160200282015b82811115611e17578251825591602001919060010190611dfc565b5b509050611e259190611e29565b5090565b5b80821115611e42576000816000905550600101611e2a565b5090565b6000604051905090565b600080fd5b600080fd5b600073ffffffffffffffffffffffffffffffffffffffff82169050919050565b6000611e8582611e5a565b9050919050565b611e9581611e7a565b8114611ea057600080fd5b50565b600081359050611eb281611e8c565b92915050565b600060208284031215611ece57611ecd611e50565b5b6000611edc84828501611ea3565b91505092915050565b6000819050919050565b611ef881611ee5565b82525050565b6000602082019050611f136000830184611eef565b92915050565b611f2281611ee5565b8114611f2d57600080fd5b50565b600081359050611f3f81611f19565b92915050565b600080fd5b600080fd5b6000601f19601f8301169050919050565b7f4e487b7100000000000000000000000000000000000000000000000000000000600052604160045260246000fd5b611f9882611f4f565b810181811067ffffffffffffffff82111715611fb757611fb6611f60565b5b80604052505050565b6000611fca611e46565b9050611fd68282611f8f565b919050565b600067ffffffffffffffff821115611ff657611ff5611f60565b5b611fff82611f4f565b9050602081019050919050565b82818337600083830152505050565b600061202e61202984611fdb565b611fc0565b90508281526020810184848401111561204a57612049611f4a565b5b61205584828561200c565b509392505050565b600082601f83011261207257612071611f45565b5b813561208284826020860161201b565b91505092915050565b600080600080608085870312156120a5576120a4611e50565b5b60006120b387828801611ea3565b94505060206120c487828801611ea3565b93505060406120d587828801611f30565b925050606085013567ffffffffffffffff8111156120f6576120f5611e55565b5b6121028782880161205d565b91505092959194509250565b60007fffffffff0000000000000000000000000000000000000000000000000000000082169050919050565b6121438161210e565b82525050565b600060208201905061215e600083018461213a565b92915050565b60006040820190506121796000830185611eef565b6121866020830184611eef565b9392505050565b600080604083850312156121a4576121a3611e50565b5b60006121b285828601611ea3565b92505060206121c385828601611f30565b9150509250929050565b60008115159050919050565b6121e2816121cd565b82525050565b60006020820190506121fd60008301846121d9565b92915050565b600081519050919050565b600082825260208201905092915050565b6000819050602082019050919050565b61223881611ee5565b82525050565b600061224a838361222f565b60208301905092915050565b6000602082019050919050565b600061226e82612203565b612278818561220e565b93506122838361221f565b8060005b838110156122b457815161229b888261223e565b97506122a683612256565b925050600181019050612287565b5085935050505092915050565b600060208201905081810360008301526122db8184612263565b905092915050565b6000602082840312156122f9576122f8611e50565b5b600061230784828501611f30565b91505092915050565b61231981611e7a565b82525050565b60006020820190506123346000830184612310565b92915050565b600060408201905081810360008301526123548185612263565b90506123636020830184611eef565b9392505050565b6000806040838503121561238157612380611e50565b5b600061238f85828601611f30565b92505060206123a085828601611ea3565b9150509250929050565b600082825260208201905092915050565b7f4d7573742070726f7669646520612076616c696420746f6b656e000000000000600082015250565b60006123f1601a836123aa565b91506123fc826123bb565b602082019050919050565b60006020820190508181036000830152612420816123e4565b9050919050565b60008151905061243681611e8c565b92915050565b60006020828403121561245257612451611e50565b5b600061246084828501612427565b91505092915050565b7f4f70657261746f72206973206e6f74207468652063616c6c6572000000000000600082015250565b600061249f601a836123aa565b91506124aa82612469565b602082019050919050565b600060208201905081810360008301526124ce81612492565b9050919050565b60006040820190506124ea6000830185611eef565b6124f76020830184612310565b9392505050565b7f4e487b7100000000000000000000000000000000000000000000000000000000600052603260045260246000fd5b600081905092915050565b50565b600061254860008361252d565b915061255382612538565b600082019050919050565b60006125698261253b565b9150819050919050565b7f5472616e73666572206661696c65640000000000000000000000000000000000600082015250565b60006125a9600f836123aa565b91506125b482612573565b602082019050919050565b600060208201905081810360008301526125d88161259c565b9050919050565b7f4d75737420686176652061207374616b652061637469766520746f2063616c6360008201527f756c617465207265776172647300000000000000000000000000000000000000602082015250565b600061263b602d836123aa565b9150612646826125df565b604082019050919050565b6000602082019050818103600083015261266a8161262e565b9050919050565b7f4d7573742068617665207374616b656420666f72206174206c6561737420323460008201527f20686f7572730000000000000000000000000000000000000000000000000000602082015250565b60006126cd6026836123aa565b91506126d882612671565b604082019050919050565b600060208201905081810360008301526126fc816126c0565b9050919050565b7f5573657220646f6573206e6f74206f776e207468697320746f6b656e00000000600082015250565b6000612739601c836123aa565b915061274482612703565b602082019050919050565b600060208201905081810360008301526127688161272c565b9050919050565b7f4e6f20746f6b656e287329207374616b65640000000000000000000000000000600082015250565b60006127a56012836123aa565b91506127b08261276f565b602082019050919050565b600060208201905081810360008301526127d481612798565b9050919050565b7f546f6b656e206973206e6f742063757272656e746c79207374616b6564000000600082015250565b6000612811601d836123aa565b915061281c826127db565b602082019050919050565b6000602082019050818103600083015261284081612804565b9050919050565b600060608201905061285c6000830186612310565b6128696020830185612310565b6128766040830184611eef565b949350505050565b60006060820190506128936000830186611eef565b6128a06020830185612310565b6128ad6040830184611eef565b949350505050565b7f43616c6c6572206973206e6f74206f776e6572206f7220617070726f7665642060008201527f746f207472616e7366657220746f6b656e000000000000000000000000000000602082015250565b60006129116031836123aa565b915061291c826128b5565b604082019050919050565b6000602082019050818103600083015261294081612904565b9050919050565b7f546f6b656e206973206e6f7420617070726f76656420666f72207374616b696e60008201527f6700000000000000000000000000000000000000000000000000000000000000602082015250565b60006129a36021836123aa565b91506129ae82612947565b604082019050919050565b600060208201905081810360008301526129d281612996565b9050919050565b7f746f6b656e206e6f74207374616b61626c650000000000000000000000000000600082015250565b6000612a0f6012836123aa565b9150612a1a826129d9565b602082019050919050565b60006020820190508181036000830152612a3e81612a02565b9050919050565b7f4e487b7100000000000000000000000000000000000000000000000000000000600052601160045260246000fd5b6000612a7f82611ee5565b9150612a8a83611ee5565b925082821015612a9d57612a9c612a45565b5b828203905092915050565b7f4f776e61626c653a206e6577206f776e657220697320746865207a65726f206160008201527f6464726573730000000000000000000000000000000000000000000000000000602082015250565b6000612b046026836123aa565b9150612b0f82612aa8565b604082019050919050565b60006020820190508181036000830152612b3381612af7565b9050919050565b7f4f776e61626c653a2063616c6c6572206973206e6f7420746865206f776e6572600082015250565b6000612b706020836123aa565b9150612b7b82612b3a565b602082019050919050565b60006020820190508181036000830152612b9f81612b63565b9050919050565b7f5265656e7472616e637947756172643a207265656e7472616e742063616c6c00600082015250565b6000612bdc601f836123aa565b9150612be782612ba6565b602082019050919050565b60006020820190508181036000830152612c0b81612bcf565b9050919050565b7f4e487b7100000000000000000000000000000000000000000000000000000000600052601260045260246000fd5b6000612c4c82611ee5565b9150612c5783611ee5565b925082612c6757612c66612c12565b5b828204905092915050565b7f496e646578206f7574206f6620626f756e647300000000000000000000000000600082015250565b6000612ca86013836123aa565b9150612cb382612c72565b602082019050919050565b60006020820190508181036000830152612cd781612c9b565b9050919050565b7f4e487b7100000000000000000000000000000000000000000000000000000000600052603160045260246000fd5b6000604082019050612d226000830185612310565b612d2f6020830184611eef565b9392505050565b7f5061757361626c653a206e6f7420706175736564000000000000000000000000600082015250565b6000612d6c6014836123aa565b9150612d7782612d36565b602082019050919050565b60006020820190508181036000830152612d9b81612d5f565b9050919050565b7f5061757361626c653a2070617573656400000000000000000000000000000000600082015250565b6000612dd86010836123aa565b9150612de382612da2565b602082019050919050565b60006020820190508181036000830152612e0781612dcb565b905091905056fea2646970667358221220a81cec724ebf0e90a1242d6564398716c31b805cdf1c4655c044f980bb3485d664736f6c63430008080033",
  "devdoc": {
    "kind": "dev",
    "methods": {
      "onERC721Received(address,address,uint256,bytes)": {
        "details": "Whenever an {IERC721} `tokenId` token is transferred to this contract via {IERC721-safeTransferFrom} by `operator` from `from`, this function is called. It must return its Solidity selector to confirm the token transfer. If any other value is returned or the interface is not implemented by the recipient, the transfer will be reverted. The selector can be obtained in Solidity with `IERC721Receiver.onERC721Received.selector`."
      },
      "owner()": {
        "details": "Returns the address of the current owner."
      },
      "paused()": {
        "details": "Returns true if the contract is paused, and false otherwise."
      },
      "renounceOwnership()": {
        "details": "Leaves the contract without owner. It will not be possible to call `onlyOwner` functions anymore. Can only be called by the current owner. NOTE: Renouncing ownership will leave the contract without an owner, thereby removing any functionality that is only available to the owner."
      },
      "transferOwnership(address)": {
        "details": "Transfers ownership of the contract to a new account (`newOwner`). Can only be called by the current owner."
      }
    },
    "version": 1
  },
  "userdoc": {
    "kind": "user",
    "methods": {},
    "version": 1
  },
  "storageLayout": {
    "storage": [
      {
        "astId": 7,
        "contract": "contracts/03-StakingContract.sol:TokenStaking",
        "label": "_owner",
        "offset": 0,
        "slot": "0",
        "type": "t_address"
      },
      {
        "astId": 130,
        "contract": "contracts/03-StakingContract.sol:TokenStaking",
        "label": "_paused",
        "offset": 20,
        "slot": "0",
        "type": "t_bool"
      },
      {
        "astId": 231,
        "contract": "contracts/03-StakingContract.sol:TokenStaking",
        "label": "_status",
        "offset": 0,
        "slot": "1",
        "type": "t_uint256"
      },
      {
        "astId": 4278,
        "contract": "contracts/03-StakingContract.sol:TokenStaking",
        "label": "stakedIndicies",
        "offset": 0,
        "slot": "2",
        "type": "t_mapping(t_address,t_mapping(t_uint256,t_uint256))"
      },
      {
        "astId": 4291,
        "contract": "contracts/03-StakingContract.sol:TokenStaking",
        "label": "stakes",
        "offset": 0,
        "slot": "3",
        "type": "t_mapping(t_address,t_struct(Stake)4286_storage)"
      },
      {
        "astId": 4295,
        "contract": "contracts/03-StakingContract.sol:TokenStaking",
        "label": "tokenStakingTime",
        "offset": 0,
        "slot": "4",
        "type": "t_mapping(t_uint256,t_uint256)"
      }
    ],
    "types": {
      "t_address": {
        "encoding": "inplace",
        "label": "address",
        "numberOfBytes": "20"
      },
      "t_array(t_uint256)dyn_storage": {
        "base": "t_uint256",
        "encoding": "dynamic_array",
        "label": "uint256[]",
        "numberOfBytes": "32"
      },
      "t_bool": {
        "encoding": "inplace",
        "label": "bool",
        "numberOfBytes": "1"
      },
      "t_mapping(t_address,t_mapping(t_uint256,t_uint256))": {
        "encoding": "mapping",
        "key": "t_address",
        "label": "mapping(address => mapping(uint256 => uint256))",
        "numberOfBytes": "32",
        "value": "t_mapping(t_uint256,t_uint256)"
      },
      "t_mapping(t_address,t_struct(Stake)4286_storage)": {
        "encoding": "mapping",
        "key": "t_address",
        "label": "mapping(address => struct TokenStaking.Stake)",
        "numberOfBytes": "32",
        "value": "t_struct(Stake)4286_storage"
      },
      "t_mapping(t_uint256,t_uint256)": {
        "encoding": "mapping",
        "key": "t_uint256",
        "label": "mapping(uint256 => uint256)",
        "numberOfBytes": "32",
        "value": "t_uint256"
      },
      "t_struct(Stake)4286_storage": {
        "encoding": "inplace",
        "label": "struct TokenStaking.Stake",
        "members": [
          {
            "astId": 4281,
            "contract": "contracts/03-StakingContract.sol:TokenStaking",
            "label": "tokenids",
            "offset": 0,
            "slot": "0",
            "type": "t_array(t_uint256)dyn_storage"
          },
          {
            "astId": 4283,
            "contract": "contracts/03-StakingContract.sol:TokenStaking",
            "label": "collectedTime",
            "offset": 0,
            "slot": "1",
            "type": "t_uint256"
          },
          {
            "astId": 4285,
            "contract": "contracts/03-StakingContract.sol:TokenStaking",
            "label": "unclaimedRewards",
            "offset": 0,
            "slot": "2",
            "type": "t_uint256"
          }
        ],
        "numberOfBytes": "96"
      },
      "t_uint256": {
        "encoding": "inplace",
        "label": "uint256",
        "numberOfBytes": "32"
      }
    }
  }
}