{
  "address": "0xB0dc8e9336247D3a1A5313F9C918Af7274749398",
  "abi": [
    {
      "inputs": [
        {
          "internalType": "uint256",
          "name": "mintPrice_",
          "type": "uint256"
        },
        {
          "internalType": "uint256",
          "name": "amountPerWallet_",
          "type": "uint256"
        },
        {
          "internalType": "uint256",
          "name": "totalSupply_",
          "type": "uint256"
        }
      ],
      "stateMutability": "nonpayable",
      "type": "constructor"
    },
    {
      "anonymous": false,
      "inputs": [
        {
          "indexed": true,
          "internalType": "address",
          "name": "owner",
          "type": "address"
        },
        {
          "indexed": true,
          "internalType": "address",
          "name": "approved",
          "type": "address"
        },
        {
          "indexed": true,
          "internalType": "uint256",
          "name": "tokenId",
          "type": "uint256"
        }
      ],
      "name": "Approval",
      "type": "event"
    },
    {
      "anonymous": false,
      "inputs": [
        {
          "indexed": true,
          "internalType": "address",
          "name": "owner",
          "type": "address"
        },
        {
          "indexed": true,
          "internalType": "address",
          "name": "operator",
          "type": "address"
        },
        {
          "indexed": false,
          "internalType": "bool",
          "name": "approved",
          "type": "bool"
        }
      ],
      "name": "ApprovalForAll",
      "type": "event"
    },
    {
      "anonymous": false,
      "inputs": [
        {
          "indexed": true,
          "internalType": "address",
          "name": "previousOwner",
          "type": "address"
        },
        {
          "indexed": true,
          "internalType": "address",
          "name": "newOwner",
          "type": "address"
        }
      ],
      "name": "OwnershipTransferred",
      "type": "event"
    },
    {
      "anonymous": false,
      "inputs": [
        {
          "indexed": false,
          "internalType": "address",
          "name": "account",
          "type": "address"
        }
      ],
      "name": "Paused",
      "type": "event"
    },
    {
      "anonymous": false,
      "inputs": [
        {
          "indexed": false,
          "internalType": "address",
          "name": "user",
          "type": "address"
        },
        {
          "indexed": false,
          "internalType": "uint256",
          "name": "amount",
          "type": "uint256"
        }
      ],
      "name": "RecievedPayment",
      "type": "event"
    },
    {
      "anonymous": false,
      "inputs": [
        {
          "indexed": false,
          "internalType": "address",
          "name": "user",
          "type": "address"
        },
        {
          "indexed": false,
          "internalType": "uint256",
          "name": "amount",
          "type": "uint256"
        },
        {
          "indexed": false,
          "internalType": "uint256",
          "name": "value",
          "type": "uint256"
        }
      ],
      "name": "SuccessfulMint",
      "type": "event"
    },
    {
      "anonymous": false,
      "inputs": [
        {
          "indexed": true,
          "internalType": "address",
          "name": "from",
          "type": "address"
        },
        {
          "indexed": true,
          "internalType": "address",
          "name": "to",
          "type": "address"
        },
        {
          "indexed": true,
          "internalType": "uint256",
          "name": "tokenId",
          "type": "uint256"
        }
      ],
      "name": "Transfer",
      "type": "event"
    },
    {
      "anonymous": false,
      "inputs": [
        {
          "indexed": false,
          "internalType": "address",
          "name": "account",
          "type": "address"
        }
      ],
      "name": "Unpaused",
      "type": "event"
    },
    {
      "inputs": [
        {
          "internalType": "address",
          "name": "to",
          "type": "address"
        },
        {
          "internalType": "uint256",
          "name": "tokenId",
          "type": "uint256"
        }
      ],
      "name": "approve",
      "outputs": [],
      "stateMutability": "nonpayable",
      "type": "function"
    },
    {
      "inputs": [
        {
          "internalType": "address",
          "name": "owner",
          "type": "address"
        }
      ],
      "name": "balanceOf",
      "outputs": [
        {
          "internalType": "uint256",
          "name": "",
          "type": "uint256"
        }
      ],
      "stateMutability": "view",
      "type": "function"
    },
    {
      "inputs": [
        {
          "internalType": "uint256",
          "name": "tokenId",
          "type": "uint256"
        }
      ],
      "name": "burn",
      "outputs": [],
      "stateMutability": "nonpayable",
      "type": "function"
    },
    {
      "inputs": [],
      "name": "currentBalance",
      "outputs": [
        {
          "internalType": "uint256",
          "name": "",
          "type": "uint256"
        }
      ],
      "stateMutability": "view",
      "type": "function"
    },
    {
      "inputs": [],
      "name": "currentCount",
      "outputs": [
        {
          "internalType": "uint256",
          "name": "",
          "type": "uint256"
        }
      ],
      "stateMutability": "view",
      "type": "function"
    },
    {
      "inputs": [
        {
          "internalType": "uint256",
          "name": "tokenId",
          "type": "uint256"
        }
      ],
      "name": "getApproved",
      "outputs": [
        {
          "internalType": "address",
          "name": "",
          "type": "address"
        }
      ],
      "stateMutability": "view",
      "type": "function"
    },
    {
      "inputs": [
        {
          "internalType": "address",
          "name": "owner",
          "type": "address"
        },
        {
          "internalType": "address",
          "name": "operator",
          "type": "address"
        }
      ],
      "name": "isApprovedForAll",
      "outputs": [
        {
          "internalType": "bool",
          "name": "",
          "type": "bool"
        }
      ],
      "stateMutability": "view",
      "type": "function"
    },
    {
      "inputs": [],
      "name": "mintNFT",
      "outputs": [],
      "stateMutability": "payable",
      "type": "function"
    },
    {
      "inputs": [],
      "name": "name",
      "outputs": [
        {
          "internalType": "string",
          "name": "",
          "type": "string"
        }
      ],
      "stateMutability": "view",
      "type": "function"
    },
    {
      "inputs": [],
      "name": "owner",
      "outputs": [
        {
          "internalType": "address",
          "name": "",
          "type": "address"
        }
      ],
      "stateMutability": "view",
      "type": "function"
    },
    {
      "inputs": [
        {
          "internalType": "uint256",
          "name": "tokenId",
          "type": "uint256"
        }
      ],
      "name": "ownerOf",
      "outputs": [
        {
          "internalType": "address",
          "name": "",
          "type": "address"
        }
      ],
      "stateMutability": "view",
      "type": "function"
    },
    {
      "inputs": [],
      "name": "pause",
      "outputs": [],
      "stateMutability": "nonpayable",
      "type": "function"
    },
    {
      "inputs": [],
      "name": "paused",
      "outputs": [
        {
          "internalType": "bool",
          "name": "",
          "type": "bool"
        }
      ],
      "stateMutability": "view",
      "type": "function"
    },
    {
      "inputs": [],
      "name": "renounceOwnership",
      "outputs": [],
      "stateMutability": "nonpayable",
      "type": "function"
    },
    {
      "inputs": [],
      "name": "s_baseExtension",
      "outputs": [
        {
          "internalType": "string",
          "name": "",
          "type": "string"
        }
      ],
      "stateMutability": "view",
      "type": "function"
    },
    {
      "inputs": [
        {
          "internalType": "address",
          "name": "",
          "type": "address"
        }
      ],
      "name": "s_mintList",
      "outputs": [
        {
          "internalType": "uint32",
          "name": "",
          "type": "uint32"
        }
      ],
      "stateMutability": "view",
      "type": "function"
    },
    {
      "inputs": [],
      "name": "s_salesConfig",
      "outputs": [
        {
          "internalType": "uint256",
          "name": "mintPrice",
          "type": "uint256"
        },
        {
          "internalType": "uint256",
          "name": "amountPerWallet",
          "type": "uint256"
        },
        {
          "internalType": "uint256",
          "name": "totalSupply",
          "type": "uint256"
        }
      ],
      "stateMutability": "view",
      "type": "function"
    },
    {
      "inputs": [
        {
          "internalType": "address",
          "name": "from",
          "type": "address"
        },
        {
          "internalType": "address",
          "name": "to",
          "type": "address"
        },
        {
          "internalType": "uint256",
          "name": "tokenId",
          "type": "uint256"
        }
      ],
      "name": "safeTransferFrom",
      "outputs": [],
      "stateMutability": "nonpayable",
      "type": "function"
    },
    {
      "inputs": [
        {
          "internalType": "address",
          "name": "from",
          "type": "address"
        },
        {
          "internalType": "address",
          "name": "to",
          "type": "address"
        },
        {
          "internalType": "uint256",
          "name": "tokenId",
          "type": "uint256"
        },
        {
          "internalType": "bytes",
          "name": "data",
          "type": "bytes"
        }
      ],
      "name": "safeTransferFrom",
      "outputs": [],
      "stateMutability": "nonpayable",
      "type": "function"
    },
    {
      "inputs": [
        {
          "internalType": "address",
          "name": "operator",
          "type": "address"
        },
        {
          "internalType": "bool",
          "name": "approved",
          "type": "bool"
        }
      ],
      "name": "setApprovalForAll",
      "outputs": [],
      "stateMutability": "nonpayable",
      "type": "function"
    },
    {
      "inputs": [
        {
          "internalType": "bytes4",
          "name": "interfaceId",
          "type": "bytes4"
        }
      ],
      "name": "supportsInterface",
      "outputs": [
        {
          "internalType": "bool",
          "name": "",
          "type": "bool"
        }
      ],
      "stateMutability": "view",
      "type": "function"
    },
    {
      "inputs": [],
      "name": "symbol",
      "outputs": [
        {
          "internalType": "string",
          "name": "",
          "type": "string"
        }
      ],
      "stateMutability": "view",
      "type": "function"
    },
    {
      "inputs": [
        {
          "internalType": "uint256",
          "name": "tokenId",
          "type": "uint256"
        }
      ],
      "name": "tokenURI",
      "outputs": [
        {
          "internalType": "string",
          "name": "",
          "type": "string"
        }
      ],
      "stateMutability": "view",
      "type": "function"
    },
    {
      "inputs": [
        {
          "internalType": "address",
          "name": "from",
          "type": "address"
        },
        {
          "internalType": "address",
          "name": "to",
          "type": "address"
        },
        {
          "internalType": "uint256",
          "name": "tokenId",
          "type": "uint256"
        }
      ],
      "name": "transferFrom",
      "outputs": [],
      "stateMutability": "nonpayable",
      "type": "function"
    },
    {
      "inputs": [
        {
          "internalType": "address",
          "name": "newOwner",
          "type": "address"
        }
      ],
      "name": "transferOwnership",
      "outputs": [],
      "stateMutability": "nonpayable",
      "type": "function"
    },
    {
      "inputs": [],
      "name": "unpause",
      "outputs": [],
      "stateMutability": "nonpayable",
      "type": "function"
    },
    {
      "inputs": [],
      "name": "withdraw",
      "outputs": [
        {
          "internalType": "bool",
          "name": "",
          "type": "bool"
        }
      ],
      "stateMutability": "nonpayable",
      "type": "function"
    },
    {
      "stateMutability": "payable",
      "type": "receive"
    }
  ],
  "transactionHash": "0xf33a402318b694930efd6dd75f71010876652c612c058dd53af63939db80a85c",
  "args": [
    "1000000000000000",
    3,
    10000
  ],
  "numDeployments": 1,
  "solcInputHash": "c6ea1192f79c6f097c4e1df1c2d79a33",
  "bytecode": "0x60806040526040518060400160405280600581526020017f2e6a736f6e000000000000000000000000000000000000000000000000000000815250600a90805190602001906200005192919062000262565b506000600b553480156200006457600080fd5b50604051620042dc380380620042dc83398181016040528101906200008a919062000352565b6040518060400160405280600d81526020017f4f7074696d756873546f6b656e000000000000000000000000000000000000008152506040518060400160405280600381526020017f4f5054000000000000000000000000000000000000000000000000000000000081525081600090805190602001906200010e92919062000262565b5080600190805190602001906200012792919062000262565b5050506000600760006101000a81548160ff02191690831515021790555062000165620001596200019460201b60201c565b6200019c60201b60201c565b600160088190555082600e6000018190555081600e6001018190555080600e6002018190555050505062000413565b600033905090565b6000600760019054906101000a900473ffffffffffffffffffffffffffffffffffffffff16905081600760016101000a81548173ffffffffffffffffffffffffffffffffffffffff021916908373ffffffffffffffffffffffffffffffffffffffff1602179055508173ffffffffffffffffffffffffffffffffffffffff168173ffffffffffffffffffffffffffffffffffffffff167f8be0079c531659141344cd1fd0a4f28419497f9722a3daafe3b4186f6b6457e060405160405180910390a35050565b8280546200027090620003dd565b90600052602060002090601f016020900481019282620002945760008555620002e0565b82601f10620002af57805160ff1916838001178555620002e0565b82800160010185558215620002e0579182015b82811115620002df578251825591602001919060010190620002c2565b5b509050620002ef9190620002f3565b5090565b5b808211156200030e576000816000905550600101620002f4565b5090565b600080fd5b6000819050919050565b6200032c8162000317565b81146200033857600080fd5b50565b6000815190506200034c8162000321565b92915050565b6000806000606084860312156200036e576200036d62000312565b5b60006200037e868287016200033b565b935050602062000391868287016200033b565b9250506040620003a4868287016200033b565b9150509250925092565b7f4e487b7100000000000000000000000000000000000000000000000000000000600052602260045260246000fd5b60006002820490506001821680620003f657607f821691505b602082108114156200040d576200040c620003ae565b5b50919050565b613eb980620004236000396000f3fe6080604052600436106101a05760003560e01c806370a08231116100ec578063b88d4fde1161008a578063ce845d1d11610064578063ce845d1d146105c7578063e985e9c5146105f2578063f2fde38b1461062f578063f44f761814610658576101e0565b8063b88d4fde14610536578063c732d2011461055f578063c87b56dd1461058a576101e0565b80638da5cb5b116100c65780638da5cb5b1461047a57806395d89b41146104a55780639a704fb4146104d0578063a22cb4651461050d576101e0565b806370a082311461040f578063715018a61461044c5780638456cb5914610463576101e0565b806323b872dd1161015957806342842e0e1161013357806342842e0e1461035557806342966c681461037e5780635c975abb146103a75780636352211e146103d2576101e0565b806323b872dd146102ea5780633ccfd60b146103135780633f4ba83a1461033e576101e0565b806301ffc9a7146101e557806306fdde0314610222578063081812fc1461024d578063095ea7b31461028a57806314f710fe146102b35780631ed97535146102bd576101e0565b366101e0577f590459e5b10aa62befc0127acd17b19f7fe69f5bb5bd0998854ad78a48b92dd633346040516101d6929190612a8a565b60405180910390a1005b600080fd5b3480156101f157600080fd5b5061020c60048036038101906102079190612b1f565b610683565b6040516102199190612b67565b60405180910390f35b34801561022e57600080fd5b50610237610765565b6040516102449190612c1b565b60405180910390f35b34801561025957600080fd5b50610274600480360381019061026f9190612c69565b6107f7565b6040516102819190612c96565b60405180910390f35b34801561029657600080fd5b506102b160048036038101906102ac9190612cdd565b61083d565b005b6102bb610955565b005b3480156102c957600080fd5b506102d2610b65565b6040516102e193929190612d1d565b60405180910390f35b3480156102f657600080fd5b50610311600480360381019061030c9190612d54565b610b7d565b005b34801561031f57600080fd5b50610328610bdd565b6040516103359190612b67565b60405180910390f35b34801561034a57600080fd5b50610353610caa565b005b34801561036157600080fd5b5061037c60048036038101906103779190612d54565b610cbc565b005b34801561038a57600080fd5b506103a560048036038101906103a09190612c69565b610cdc565b005b3480156103b357600080fd5b506103bc610d38565b6040516103c99190612b67565b60405180910390f35b3480156103de57600080fd5b506103f960048036038101906103f49190612c69565b610d4f565b6040516104069190612c96565b60405180910390f35b34801561041b57600080fd5b5061043660048036038101906104319190612da7565b610dd6565b6040516104439190612dd4565b60405180910390f35b34801561045857600080fd5b50610461610e8e565b005b34801561046f57600080fd5b50610478610ea2565b005b34801561048657600080fd5b5061048f610eb4565b60405161049c9190612c96565b60405180910390f35b3480156104b157600080fd5b506104ba610ede565b6040516104c79190612c1b565b60405180910390f35b3480156104dc57600080fd5b506104f760048036038101906104f29190612da7565b610f70565b6040516105049190612e0e565b60405180910390f35b34801561051957600080fd5b50610534600480360381019061052f9190612e55565b610f93565b005b34801561054257600080fd5b5061055d60048036038101906105589190612fca565b610fa9565b005b34801561056b57600080fd5b5061057461100b565b6040516105819190612dd4565b60405180910390f35b34801561059657600080fd5b506105b160048036038101906105ac9190612c69565b61101c565b6040516105be9190612c1b565b60405180910390f35b3480156105d357600080fd5b506105dc611076565b6040516105e99190612dd4565b60405180910390f35b3480156105fe57600080fd5b506106196004803603810190610614919061304d565b61107e565b6040516106269190612b67565b60405180910390f35b34801561063b57600080fd5b5061065660048036038101906106519190612da7565b611112565b005b34801561066457600080fd5b5061066d611196565b60405161067a9190612c1b565b60405180910390f35b60007f80ac58cd000000000000000000000000000000000000000000000000000000007bffffffffffffffffffffffffffffffffffffffffffffffffffffffff1916827bffffffffffffffffffffffffffffffffffffffffffffffffffffffff1916148061074e57507f5b5e139f000000000000000000000000000000000000000000000000000000007bffffffffffffffffffffffffffffffffffffffffffffffffffffffff1916827bffffffffffffffffffffffffffffffffffffffffffffffffffffffff1916145b8061075e575061075d82611224565b5b9050919050565b606060008054610774906130bc565b80601f01602080910402602001604051908101604052809291908181526020018280546107a0906130bc565b80156107ed5780601f106107c2576101008083540402835291602001916107ed565b820191906000526020600020905b8154815290600101906020018083116107d057829003601f168201915b5050505050905090565b60006108028261128e565b6004600083815260200190815260200160002060009054906101000a900473ffffffffffffffffffffffffffffffffffffffff169050919050565b600061084882610d4f565b90508073ffffffffffffffffffffffffffffffffffffffff168373ffffffffffffffffffffffffffffffffffffffff1614156108b9576040517f08c379a00000000000000000000000000000000000000000000000000000000081526004016108b090613160565b60405180910390fd5b8073ffffffffffffffffffffffffffffffffffffffff166108d86112d9565b73ffffffffffffffffffffffffffffffffffffffff1614806109075750610906816109016112d9565b61107e565b5b610946576040517f08c379a000000000000000000000000000000000000000000000000000000000815260040161093d906131f2565b60405180910390fd5b61095083836112e1565b505050565b600e600101546001600d60003373ffffffffffffffffffffffffffffffffffffffff1673ffffffffffffffffffffffffffffffffffffffff16815260200190815260200160002060009054906101000a900463ffffffff166109b79190613241565b63ffffffff16106109fd576040517f08c379a00000000000000000000000000000000000000000000000000000000081526004016109f4906132ed565b60405180910390fd5b600e600001543411610a44576040517f08c379a0000000000000000000000000000000000000000000000000000000008152600401610a3b90613359565b60405180910390fd5b610ad833600c8054610a55906130bc565b80601f0160208091040260200160405190810160405280929190818152602001828054610a81906130bc565b8015610ace5780601f10610aa357610100808354040283529160200191610ace565b820191906000526020600020905b815481529060010190602001808311610ab157829003601f168201915b505050505061139a565b6001600d60003373ffffffffffffffffffffffffffffffffffffffff1673ffffffffffffffffffffffffffffffffffffffff16815260200190815260200160002060008282829054906101000a900463ffffffff16610b379190613241565b92506101000a81548163ffffffff021916908363ffffffff160217905550610b63600e600001546113cb565b565b600e8060000154908060010154908060020154905083565b610b8e610b886112d9565b8261146c565b610bcd576040517f08c379a0000000000000000000000000000000000000000000000000000000008152600401610bc4906133eb565b60405180910390fd5b610bd8838383611501565b505050565b6000610be76117fb565b610bef611879565b60003373ffffffffffffffffffffffffffffffffffffffff1647604051610c159061343c565b60006040518083038185875af1925050503d8060008114610c52576040519150601f19603f3d011682016040523d82523d6000602084013e610c57565b606091505b5050905080610c9b576040517f08c379a0000000000000000000000000000000000000000000000000000000008152600401610c929061349d565b60405180910390fd5b80915050610ca76118c9565b90565b610cb26117fb565b610cba6118d3565b565b610cd783838360405180602001604052806000815250610fa9565b505050565b610ced610ce76112d9565b8261146c565b610d2c576040517f08c379a0000000000000000000000000000000000000000000000000000000008152600401610d23906133eb565b60405180910390fd5b610d3581611936565b50565b6000600760009054906101000a900460ff16905090565b600080610d5b83611942565b9050600073ffffffffffffffffffffffffffffffffffffffff168173ffffffffffffffffffffffffffffffffffffffff161415610dcd576040517f08c379a0000000000000000000000000000000000000000000000000000000008152600401610dc490613509565b60405180910390fd5b80915050919050565b60008073ffffffffffffffffffffffffffffffffffffffff168273ffffffffffffffffffffffffffffffffffffffff161415610e47576040517f08c379a0000000000000000000000000000000000000000000000000000000008152600401610e3e9061359b565b60405180910390fd5b600360008373ffffffffffffffffffffffffffffffffffffffff1673ffffffffffffffffffffffffffffffffffffffff168152602001908152602001600020549050919050565b610e966117fb565b610ea0600061197f565b565b610eaa6117fb565b610eb2611a45565b565b6000600760019054906101000a900473ffffffffffffffffffffffffffffffffffffffff16905090565b606060018054610eed906130bc565b80601f0160208091040260200160405190810160405280929190818152602001828054610f19906130bc565b8015610f665780601f10610f3b57610100808354040283529160200191610f66565b820191906000526020600020905b815481529060010190602001808311610f4957829003601f168201915b5050505050905090565b600d6020528060005260406000206000915054906101000a900463ffffffff1681565b610fa5610f9e6112d9565b8383611aa8565b5050565b610fba610fb46112d9565b8361146c565b610ff9576040517f08c379a0000000000000000000000000000000000000000000000000000000008152600401610ff0906133eb565b60405180910390fd5b61100584848484611c15565b50505050565b60006110176009611c71565b905090565b606061102782611c7f565b611066576040517f08c379a000000000000000000000000000000000000000000000000000000000815260040161105d9061362d565b60405180910390fd5b61106f82611cc0565b9050919050565b600047905090565b6000600560008473ffffffffffffffffffffffffffffffffffffffff1673ffffffffffffffffffffffffffffffffffffffff16815260200190815260200160002060008373ffffffffffffffffffffffffffffffffffffffff1673ffffffffffffffffffffffffffffffffffffffff16815260200190815260200160002060009054906101000a900460ff16905092915050565b61111a6117fb565b600073ffffffffffffffffffffffffffffffffffffffff168173ffffffffffffffffffffffffffffffffffffffff16141561118a576040517f08c379a0000000000000000000000000000000000000000000000000000000008152600401611181906136bf565b60405180910390fd5b6111938161197f565b50565b600a80546111a3906130bc565b80601f01602080910402602001604051908101604052809291908181526020018280546111cf906130bc565b801561121c5780601f106111f15761010080835404028352916020019161121c565b820191906000526020600020905b8154815290600101906020018083116111ff57829003601f168201915b505050505081565b60007f01ffc9a7000000000000000000000000000000000000000000000000000000007bffffffffffffffffffffffffffffffffffffffffffffffffffffffff1916827bffffffffffffffffffffffffffffffffffffffffffffffffffffffff1916149050919050565b61129781611c7f565b6112d6576040517f08c379a00000000000000000000000000000000000000000000000000000000081526004016112cd90613509565b60405180910390fd5b50565b600033905090565b816004600083815260200190815260200160002060006101000a81548173ffffffffffffffffffffffffffffffffffffffff021916908373ffffffffffffffffffffffffffffffffffffffff160217905550808273ffffffffffffffffffffffffffffffffffffffff1661135483610d4f565b73ffffffffffffffffffffffffffffffffffffffff167f8c5be1e5ebec7d5bd14f71427d1e84f3dd0314c0f7b2291e5b200ac8c7c3b92560405160405180910390a45050565b60006113a66009611c71565b90506113b26009611dd3565b6113bc8382611de9565b6113c68183611e07565b505050565b8034101561140e576040517f08c379a00000000000000000000000000000000000000000000000000000000081526004016114059061372b565b60405180910390fd5b80341115611469573373ffffffffffffffffffffffffffffffffffffffff166108fc823461143c919061374b565b9081150290604051600060405180830381858888f19350505050158015611467573d6000803e3d6000fd5b505b50565b60008061147883610d4f565b90508073ffffffffffffffffffffffffffffffffffffffff168473ffffffffffffffffffffffffffffffffffffffff1614806114ba57506114b9818561107e565b5b806114f857508373ffffffffffffffffffffffffffffffffffffffff166114e0846107f7565b73ffffffffffffffffffffffffffffffffffffffff16145b91505092915050565b8273ffffffffffffffffffffffffffffffffffffffff1661152182610d4f565b73ffffffffffffffffffffffffffffffffffffffff1614611577576040517f08c379a000000000000000000000000000000000000000000000000000000000815260040161156e906137f1565b60405180910390fd5b600073ffffffffffffffffffffffffffffffffffffffff168273ffffffffffffffffffffffffffffffffffffffff1614156115e7576040517f08c379a00000000000000000000000000000000000000000000000000000000081526004016115de90613883565b60405180910390fd5b6115f48383836001611e7b565b8273ffffffffffffffffffffffffffffffffffffffff1661161482610d4f565b73ffffffffffffffffffffffffffffffffffffffff161461166a576040517f08c379a0000000000000000000000000000000000000000000000000000000008152600401611661906137f1565b60405180910390fd5b6004600082815260200190815260200160002060006101000a81549073ffffffffffffffffffffffffffffffffffffffff02191690556001600360008573ffffffffffffffffffffffffffffffffffffffff1673ffffffffffffffffffffffffffffffffffffffff168152602001908152602001600020600082825403925050819055506001600360008473ffffffffffffffffffffffffffffffffffffffff1673ffffffffffffffffffffffffffffffffffffffff16815260200190815260200160002060008282540192505081905550816002600083815260200190815260200160002060006101000a81548173ffffffffffffffffffffffffffffffffffffffff021916908373ffffffffffffffffffffffffffffffffffffffff160217905550808273ffffffffffffffffffffffffffffffffffffffff168473ffffffffffffffffffffffffffffffffffffffff167fddf252ad1be2c89b69c2b068fc378daa952ba7f163c4a11628f55a4df523b3ef60405160405180910390a46117f68383836001611e95565b505050565b6118036112d9565b73ffffffffffffffffffffffffffffffffffffffff16611821610eb4565b73ffffffffffffffffffffffffffffffffffffffff1614611877576040517f08c379a000000000000000000000000000000000000000000000000000000000815260040161186e906138ef565b60405180910390fd5b565b600260085414156118bf576040517f08c379a00000000000000000000000000000000000000000000000000000000081526004016118b69061395b565b60405180910390fd5b6002600881905550565b6001600881905550565b6118db611e9b565b6000600760006101000a81548160ff0219169083151502179055507f5db9ee0a495bf2e6ff9c91a7834c1ba4fdd244a5e8aa4e537bd38aeae4b073aa61191f6112d9565b60405161192c9190612c96565b60405180910390a1565b61193f81611ee4565b50565b60006002600083815260200190815260200160002060009054906101000a900473ffffffffffffffffffffffffffffffffffffffff169050919050565b6000600760019054906101000a900473ffffffffffffffffffffffffffffffffffffffff16905081600760016101000a81548173ffffffffffffffffffffffffffffffffffffffff021916908373ffffffffffffffffffffffffffffffffffffffff1602179055508173ffffffffffffffffffffffffffffffffffffffff168173ffffffffffffffffffffffffffffffffffffffff167f8be0079c531659141344cd1fd0a4f28419497f9722a3daafe3b4186f6b6457e060405160405180910390a35050565b611a4d611f37565b6001600760006101000a81548160ff0219169083151502179055507f62e78cea01bee320cd4e420270b5ea74000d11b0c9f74754ebdbfc544b05a258611a916112d9565b604051611a9e9190612c96565b60405180910390a1565b8173ffffffffffffffffffffffffffffffffffffffff168373ffffffffffffffffffffffffffffffffffffffff161415611b17576040517f08c379a0000000000000000000000000000000000000000000000000000000008152600401611b0e906139c7565b60405180910390fd5b80600560008573ffffffffffffffffffffffffffffffffffffffff1673ffffffffffffffffffffffffffffffffffffffff16815260200190815260200160002060008473ffffffffffffffffffffffffffffffffffffffff1673ffffffffffffffffffffffffffffffffffffffff16815260200190815260200160002060006101000a81548160ff0219169083151502179055508173ffffffffffffffffffffffffffffffffffffffff168373ffffffffffffffffffffffffffffffffffffffff167f17307eab39ab6107e8899845ad3d59bd9653f200f220920489ca2b5937696c3183604051611c089190612b67565b60405180910390a3505050565b611c20848484611501565b611c2c84848484611f81565b611c6b576040517f08c379a0000000000000000000000000000000000000000000000000000000008152600401611c6290613a59565b60405180910390fd5b50505050565b600081600001549050919050565b60008073ffffffffffffffffffffffffffffffffffffffff16611ca183611942565b73ffffffffffffffffffffffffffffffffffffffff1614159050919050565b6060611ccb8261128e565b6000600660008481526020019081526020016000208054611ceb906130bc565b80601f0160208091040260200160405190810160405280929190818152602001828054611d17906130bc565b8015611d645780601f10611d3957610100808354040283529160200191611d64565b820191906000526020600020905b815481529060010190602001808311611d4757829003601f168201915b505050505090506000611d75612118565b9050600081511415611d8b578192505050611dce565b600082511115611dc0578082604051602001611da8929190613ab5565b60405160208183030381529060405292505050611dce565b611dc9846121aa565b925050505b919050565b6001816000016000828254019250508190555050565b611e03828260405180602001604052806000815250612212565b5050565b611e1082611c7f565b611e4f576040517f08c379a0000000000000000000000000000000000000000000000000000000008152600401611e4690613b4b565b60405180910390fd5b80600660008481526020019081526020016000209080519060200190611e7692919061294d565b505050565b611e83611f37565b611e8f8484848461226d565b50505050565b50505050565b611ea3610d38565b611ee2576040517f08c379a0000000000000000000000000000000000000000000000000000000008152600401611ed990613bb7565b60405180910390fd5b565b611eed81612393565b6000600660008381526020019081526020016000208054611f0d906130bc565b905014611f3457600660008281526020019081526020016000206000611f3391906129d3565b5b50565b611f3f610d38565b15611f7f576040517f08c379a0000000000000000000000000000000000000000000000000000000008152600401611f7690613c23565b60405180910390fd5b565b6000611fa28473ffffffffffffffffffffffffffffffffffffffff166124e1565b1561210b578373ffffffffffffffffffffffffffffffffffffffff1663150b7a02611fcb6112d9565b8786866040518563ffffffff1660e01b8152600401611fed9493929190613c98565b602060405180830381600087803b15801561200757600080fd5b505af192505050801561203857506040513d601f19601f820116820180604052508101906120359190613cf9565b60015b6120bb573d8060008114612068576040519150601f19603f3d011682016040523d82523d6000602084013e61206d565b606091505b506000815114156120b3576040517f08c379a00000000000000000000000000000000000000000000000000000000081526004016120aa90613a59565b60405180910390fd5b805181602001fd5b63150b7a0260e01b7bffffffffffffffffffffffffffffffffffffffffffffffffffffffff1916817bffffffffffffffffffffffffffffffffffffffffffffffffffffffff191614915050612110565b600190505b949350505050565b6060600c8054612127906130bc565b80601f0160208091040260200160405190810160405280929190818152602001828054612153906130bc565b80156121a05780601f10612175576101008083540402835291602001916121a0565b820191906000526020600020905b81548152906001019060200180831161218357829003601f168201915b5050505050905090565b60606121b58261128e565b60006121bf612118565b905060008151116121df576040518060200160405280600081525061220a565b806121e984612504565b6040516020016121fa929190613ab5565b6040516020818303038152906040525b915050919050565b61221c83836125dc565b6122296000848484611f81565b612268576040517f08c379a000000000000000000000000000000000000000000000000000000000815260040161225f90613a59565b60405180910390fd5b505050565b600181111561238d57600073ffffffffffffffffffffffffffffffffffffffff168473ffffffffffffffffffffffffffffffffffffffff16146123015780600360008673ffffffffffffffffffffffffffffffffffffffff1673ffffffffffffffffffffffffffffffffffffffff16815260200190815260200160002060008282546122f9919061374b565b925050819055505b600073ffffffffffffffffffffffffffffffffffffffff168373ffffffffffffffffffffffffffffffffffffffff161461238c5780600360008573ffffffffffffffffffffffffffffffffffffffff1673ffffffffffffffffffffffffffffffffffffffff16815260200190815260200160002060008282546123849190613d26565b925050819055505b5b50505050565b600061239e82610d4f565b90506123ae816000846001611e7b565b6123b782610d4f565b90506004600083815260200190815260200160002060006101000a81549073ffffffffffffffffffffffffffffffffffffffff02191690556001600360008373ffffffffffffffffffffffffffffffffffffffff1673ffffffffffffffffffffffffffffffffffffffff168152602001908152602001600020600082825403925050819055506002600083815260200190815260200160002060006101000a81549073ffffffffffffffffffffffffffffffffffffffff021916905581600073ffffffffffffffffffffffffffffffffffffffff168273ffffffffffffffffffffffffffffffffffffffff167fddf252ad1be2c89b69c2b068fc378daa952ba7f163c4a11628f55a4df523b3ef60405160405180910390a46124dd816000846001611e95565b5050565b6000808273ffffffffffffffffffffffffffffffffffffffff163b119050919050565b606060006001612513846127fa565b01905060008167ffffffffffffffff81111561253257612531612e9f565b5b6040519080825280601f01601f1916602001820160405280156125645781602001600182028036833780820191505090505b509050600082602001820190505b6001156125d1578080600190039150507f3031323334353637383961626364656600000000000000000000000000000000600a86061a8153600a85816125bb576125ba613d7c565b5b04945060008514156125cc576125d1565b612572565b819350505050919050565b600073ffffffffffffffffffffffffffffffffffffffff168273ffffffffffffffffffffffffffffffffffffffff16141561264c576040517f08c379a000000000000000000000000000000000000000000000000000000000815260040161264390613df7565b60405180910390fd5b61265581611c7f565b15612695576040517f08c379a000000000000000000000000000000000000000000000000000000000815260040161268c90613e63565b60405180910390fd5b6126a3600083836001611e7b565b6126ac81611c7f565b156126ec576040517f08c379a00000000000000000000000000000000000000000000000000000000081526004016126e390613e63565b60405180910390fd5b6001600360008473ffffffffffffffffffffffffffffffffffffffff1673ffffffffffffffffffffffffffffffffffffffff16815260200190815260200160002060008282540192505081905550816002600083815260200190815260200160002060006101000a81548173ffffffffffffffffffffffffffffffffffffffff021916908373ffffffffffffffffffffffffffffffffffffffff160217905550808273ffffffffffffffffffffffffffffffffffffffff16600073ffffffffffffffffffffffffffffffffffffffff167fddf252ad1be2c89b69c2b068fc378daa952ba7f163c4a11628f55a4df523b3ef60405160405180910390a46127f6600083836001611e95565b5050565b600080600090507a184f03e93ff9f4daa797ed6e38ed64bf6a1f0100000000000000008310612858577a184f03e93ff9f4daa797ed6e38ed64bf6a1f010000000000000000838161284e5761284d613d7c565b5b0492506040810190505b6d04ee2d6d415b85acef81000000008310612895576d04ee2d6d415b85acef8100000000838161288b5761288a613d7c565b5b0492506020810190505b662386f26fc1000083106128c457662386f26fc1000083816128ba576128b9613d7c565b5b0492506010810190505b6305f5e10083106128ed576305f5e10083816128e3576128e2613d7c565b5b0492506008810190505b612710831061291257612710838161290857612907613d7c565b5b0492506004810190505b60648310612935576064838161292b5761292a613d7c565b5b0492506002810190505b600a8310612944576001810190505b80915050919050565b828054612959906130bc565b90600052602060002090601f01602090048101928261297b57600085556129c2565b82601f1061299457805160ff19168380011785556129c2565b828001600101855582156129c2579182015b828111156129c15782518255916020019190600101906129a6565b5b5090506129cf9190612a13565b5090565b5080546129df906130bc565b6000825580601f106129f15750612a10565b601f016020900490600052602060002090810190612a0f9190612a13565b5b50565b5b80821115612a2c576000816000905550600101612a14565b5090565b600073ffffffffffffffffffffffffffffffffffffffff82169050919050565b6000612a5b82612a30565b9050919050565b612a6b81612a50565b82525050565b6000819050919050565b612a8481612a71565b82525050565b6000604082019050612a9f6000830185612a62565b612aac6020830184612a7b565b9392505050565b6000604051905090565b600080fd5b600080fd5b60007fffffffff0000000000000000000000000000000000000000000000000000000082169050919050565b612afc81612ac7565b8114612b0757600080fd5b50565b600081359050612b1981612af3565b92915050565b600060208284031215612b3557612b34612abd565b5b6000612b4384828501612b0a565b91505092915050565b60008115159050919050565b612b6181612b4c565b82525050565b6000602082019050612b7c6000830184612b58565b92915050565b600081519050919050565b600082825260208201905092915050565b60005b83811015612bbc578082015181840152602081019050612ba1565b83811115612bcb576000848401525b50505050565b6000601f19601f8301169050919050565b6000612bed82612b82565b612bf78185612b8d565b9350612c07818560208601612b9e565b612c1081612bd1565b840191505092915050565b60006020820190508181036000830152612c358184612be2565b905092915050565b612c4681612a71565b8114612c5157600080fd5b50565b600081359050612c6381612c3d565b92915050565b600060208284031215612c7f57612c7e612abd565b5b6000612c8d84828501612c54565b91505092915050565b6000602082019050612cab6000830184612a62565b92915050565b612cba81612a50565b8114612cc557600080fd5b50565b600081359050612cd781612cb1565b92915050565b60008060408385031215612cf457612cf3612abd565b5b6000612d0285828601612cc8565b9250506020612d1385828601612c54565b9150509250929050565b6000606082019050612d326000830186612a7b565b612d3f6020830185612a7b565b612d4c6040830184612a7b565b949350505050565b600080600060608486031215612d6d57612d6c612abd565b5b6000612d7b86828701612cc8565b9350506020612d8c86828701612cc8565b9250506040612d9d86828701612c54565b9150509250925092565b600060208284031215612dbd57612dbc612abd565b5b6000612dcb84828501612cc8565b91505092915050565b6000602082019050612de96000830184612a7b565b92915050565b600063ffffffff82169050919050565b612e0881612def565b82525050565b6000602082019050612e236000830184612dff565b92915050565b612e3281612b4c565b8114612e3d57600080fd5b50565b600081359050612e4f81612e29565b92915050565b60008060408385031215612e6c57612e6b612abd565b5b6000612e7a85828601612cc8565b9250506020612e8b85828601612e40565b9150509250929050565b600080fd5b600080fd5b7f4e487b7100000000000000000000000000000000000000000000000000000000600052604160045260246000fd5b612ed782612bd1565b810181811067ffffffffffffffff82111715612ef657612ef5612e9f565b5b80604052505050565b6000612f09612ab3565b9050612f158282612ece565b919050565b600067ffffffffffffffff821115612f3557612f34612e9f565b5b612f3e82612bd1565b9050602081019050919050565b82818337600083830152505050565b6000612f6d612f6884612f1a565b612eff565b905082815260208101848484011115612f8957612f88612e9a565b5b612f94848285612f4b565b509392505050565b600082601f830112612fb157612fb0612e95565b5b8135612fc1848260208601612f5a565b91505092915050565b60008060008060808587031215612fe457612fe3612abd565b5b6000612ff287828801612cc8565b945050602061300387828801612cc8565b935050604061301487828801612c54565b925050606085013567ffffffffffffffff81111561303557613034612ac2565b5b61304187828801612f9c565b91505092959194509250565b6000806040838503121561306457613063612abd565b5b600061307285828601612cc8565b925050602061308385828601612cc8565b9150509250929050565b7f4e487b7100000000000000000000000000000000000000000000000000000000600052602260045260246000fd5b600060028204905060018216806130d457607f821691505b602082108114156130e8576130e761308d565b5b50919050565b7f4552433732313a20617070726f76616c20746f2063757272656e74206f776e6560008201527f7200000000000000000000000000000000000000000000000000000000000000602082015250565b600061314a602183612b8d565b9150613155826130ee565b604082019050919050565b600060208201905081810360008301526131798161313d565b9050919050565b7f4552433732313a20617070726f76652063616c6c6572206973206e6f7420746f60008201527f6b656e206f776e6572206f7220617070726f76656420666f7220616c6c000000602082015250565b60006131dc603d83612b8d565b91506131e782613180565b604082019050919050565b6000602082019050818103600083015261320b816131cf565b9050919050565b7f4e487b7100000000000000000000000000000000000000000000000000000000600052601160045260246000fd5b600061324c82612def565b915061325783612def565b92508263ffffffff038211156132705761326f613212565b5b828201905092915050565b7f4d6178206d696e74206c696d6974207065722077616c6c65742072656163686560008201527f6400000000000000000000000000000000000000000000000000000000000000602082015250565b60006132d7602183612b8d565b91506132e28261327b565b604082019050919050565b60006020820190508181036000830152613306816132ca565b9050919050565b7f4e6f7420656e6f75676820455448000000000000000000000000000000000000600082015250565b6000613343600e83612b8d565b915061334e8261330d565b602082019050919050565b6000602082019050818103600083015261337281613336565b9050919050565b7f4552433732313a2063616c6c6572206973206e6f7420746f6b656e206f776e6560008201527f72206f7220617070726f76656400000000000000000000000000000000000000602082015250565b60006133d5602d83612b8d565b91506133e082613379565b604082019050919050565b60006020820190508181036000830152613404816133c8565b9050919050565b600081905092915050565b50565b600061342660008361340b565b915061343182613416565b600082019050919050565b600061344782613419565b9150819050919050565b7f5472616e73666572206661696c65640000000000000000000000000000000000600082015250565b6000613487600f83612b8d565b915061349282613451565b602082019050919050565b600060208201905081810360008301526134b68161347a565b9050919050565b7f4552433732313a20696e76616c696420746f6b656e2049440000000000000000600082015250565b60006134f3601883612b8d565b91506134fe826134bd565b602082019050919050565b60006020820190508181036000830152613522816134e6565b9050919050565b7f4552433732313a2061646472657373207a65726f206973206e6f74206120766160008201527f6c6964206f776e65720000000000000000000000000000000000000000000000602082015250565b6000613585602983612b8d565b915061359082613529565b604082019050919050565b600060208201905081810360008301526135b481613578565b9050919050565b7f4552433732314d657461646174613a2055524920717565727920666f72206e6f60008201527f6e6578697374656e7420746f6b656e3a00000000000000000000000000000000602082015250565b6000613617603083612b8d565b9150613622826135bb565b604082019050919050565b600060208201905081810360008301526136468161360a565b9050919050565b7f4f776e61626c653a206e6577206f776e657220697320746865207a65726f206160008201527f6464726573730000000000000000000000000000000000000000000000000000602082015250565b60006136a9602683612b8d565b91506136b48261364d565b604082019050919050565b600060208201905081810360008301526136d88161369c565b9050919050565b7f4e65656420746f2073656e64206d6f7265204554480000000000000000000000600082015250565b6000613715601583612b8d565b9150613720826136df565b602082019050919050565b6000602082019050818103600083015261374481613708565b9050919050565b600061375682612a71565b915061376183612a71565b92508282101561377457613773613212565b5b828203905092915050565b7f4552433732313a207472616e736665722066726f6d20696e636f72726563742060008201527f6f776e6572000000000000000000000000000000000000000000000000000000602082015250565b60006137db602583612b8d565b91506137e68261377f565b604082019050919050565b6000602082019050818103600083015261380a816137ce565b9050919050565b7f4552433732313a207472616e7366657220746f20746865207a65726f2061646460008201527f7265737300000000000000000000000000000000000000000000000000000000602082015250565b600061386d602483612b8d565b915061387882613811565b604082019050919050565b6000602082019050818103600083015261389c81613860565b9050919050565b7f4f776e61626c653a2063616c6c6572206973206e6f7420746865206f776e6572600082015250565b60006138d9602083612b8d565b91506138e4826138a3565b602082019050919050565b60006020820190508181036000830152613908816138cc565b9050919050565b7f5265656e7472616e637947756172643a207265656e7472616e742063616c6c00600082015250565b6000613945601f83612b8d565b91506139508261390f565b602082019050919050565b6000602082019050818103600083015261397481613938565b9050919050565b7f4552433732313a20617070726f766520746f2063616c6c657200000000000000600082015250565b60006139b1601983612b8d565b91506139bc8261397b565b602082019050919050565b600060208201905081810360008301526139e0816139a4565b9050919050565b7f4552433732313a207472616e7366657220746f206e6f6e20455243373231526560008201527f63656976657220696d706c656d656e7465720000000000000000000000000000602082015250565b6000613a43603283612b8d565b9150613a4e826139e7565b604082019050919050565b60006020820190508181036000830152613a7281613a36565b9050919050565b600081905092915050565b6000613a8f82612b82565b613a998185613a79565b9350613aa9818560208601612b9e565b80840191505092915050565b6000613ac18285613a84565b9150613acd8284613a84565b91508190509392505050565b7f45524337323155524953746f726167653a2055524920736574206f66206e6f6e60008201527f6578697374656e7420746f6b656e000000000000000000000000000000000000602082015250565b6000613b35602e83612b8d565b9150613b4082613ad9565b604082019050919050565b60006020820190508181036000830152613b6481613b28565b9050919050565b7f5061757361626c653a206e6f7420706175736564000000000000000000000000600082015250565b6000613ba1601483612b8d565b9150613bac82613b6b565b602082019050919050565b60006020820190508181036000830152613bd081613b94565b9050919050565b7f5061757361626c653a2070617573656400000000000000000000000000000000600082015250565b6000613c0d601083612b8d565b9150613c1882613bd7565b602082019050919050565b60006020820190508181036000830152613c3c81613c00565b9050919050565b600081519050919050565b600082825260208201905092915050565b6000613c6a82613c43565b613c748185613c4e565b9350613c84818560208601612b9e565b613c8d81612bd1565b840191505092915050565b6000608082019050613cad6000830187612a62565b613cba6020830186612a62565b613cc76040830185612a7b565b8181036060830152613cd98184613c5f565b905095945050505050565b600081519050613cf381612af3565b92915050565b600060208284031215613d0f57613d0e612abd565b5b6000613d1d84828501613ce4565b91505092915050565b6000613d3182612a71565b9150613d3c83612a71565b9250827fffffffffffffffffffffffffffffffffffffffffffffffffffffffffffffffff03821115613d7157613d70613212565b5b828201905092915050565b7f4e487b7100000000000000000000000000000000000000000000000000000000600052601260045260246000fd5b7f4552433732313a206d696e7420746f20746865207a65726f2061646472657373600082015250565b6000613de1602083612b8d565b9150613dec82613dab565b602082019050919050565b60006020820190508181036000830152613e1081613dd4565b9050919050565b7f4552433732313a20746f6b656e20616c7265616479206d696e74656400000000600082015250565b6000613e4d601c83612b8d565b9150613e5882613e17565b602082019050919050565b60006020820190508181036000830152613e7c81613e40565b905091905056fea2646970667358221220d22f4687a85223912f3abf68458d033f0449ac38c2a939ff96ecf702fa4b49be64736f6c63430008080033",
  "devdoc": {
    "kind": "dev",
    "methods": {
      "approve(address,uint256)": {
        "details": "See {IERC721-approve}."
      },
      "balanceOf(address)": {
        "details": "See {IERC721-balanceOf}."
      },
      "burn(uint256)": {
        "details": "Burns `tokenId`. See {ERC721-_burn}. Requirements: - The caller must own `tokenId` or be an approved operator."
      },
      "getApproved(uint256)": {
        "details": "See {IERC721-getApproved}."
      },
      "isApprovedForAll(address,address)": {
        "details": "See {IERC721-isApprovedForAll}."
      },
      "name()": {
        "details": "See {IERC721Metadata-name}."
      },
      "owner()": {
        "details": "Returns the address of the current owner."
      },
      "ownerOf(uint256)": {
        "details": "See {IERC721-ownerOf}."
      },
      "paused()": {
        "details": "Returns true if the contract is paused, and false otherwise."
      },
      "renounceOwnership()": {
        "details": "Leaves the contract without owner. It will not be possible to call `onlyOwner` functions anymore. Can only be called by the current owner. NOTE: Renouncing ownership will leave the contract without an owner, thereby removing any functionality that is only available to the owner."
      },
      "safeTransferFrom(address,address,uint256)": {
        "details": "See {IERC721-safeTransferFrom}."
      },
      "safeTransferFrom(address,address,uint256,bytes)": {
        "details": "See {IERC721-safeTransferFrom}."
      },
      "setApprovalForAll(address,bool)": {
        "details": "See {IERC721-setApprovalForAll}."
      },
      "supportsInterface(bytes4)": {
        "details": "See {IERC165-supportsInterface}."
      },
      "symbol()": {
        "details": "See {IERC721Metadata-symbol}."
      },
      "transferFrom(address,address,uint256)": {
        "details": "See {IERC721-transferFrom}."
      },
      "transferOwnership(address)": {
        "details": "Transfers ownership of the contract to a new account (`newOwner`). Can only be called by the current owner."
      }
    },
    "version": 1
  },
  "userdoc": {
    "kind": "user",
    "methods": {},
    "version": 1
  },
  "storageLayout": {
    "storage": [
      {
        "astId": 300,
        "contract": "contracts/01-Optimuhs.sol:OptimuhsSingle",
        "label": "_name",
        "offset": 0,
        "slot": "0",
        "type": "t_string_storage"
      },
      {
        "astId": 302,
        "contract": "contracts/01-Optimuhs.sol:OptimuhsSingle",
        "label": "_symbol",
        "offset": 0,
        "slot": "1",
        "type": "t_string_storage"
      },
      {
        "astId": 306,
        "contract": "contracts/01-Optimuhs.sol:OptimuhsSingle",
        "label": "_owners",
        "offset": 0,
        "slot": "2",
        "type": "t_mapping(t_uint256,t_address)"
      },
      {
        "astId": 310,
        "contract": "contracts/01-Optimuhs.sol:OptimuhsSingle",
        "label": "_balances",
        "offset": 0,
        "slot": "3",
        "type": "t_mapping(t_address,t_uint256)"
      },
      {
        "astId": 314,
        "contract": "contracts/01-Optimuhs.sol:OptimuhsSingle",
        "label": "_tokenApprovals",
        "offset": 0,
        "slot": "4",
        "type": "t_mapping(t_uint256,t_address)"
      },
      {
        "astId": 320,
        "contract": "contracts/01-Optimuhs.sol:OptimuhsSingle",
        "label": "_operatorApprovals",
        "offset": 0,
        "slot": "5",
        "type": "t_mapping(t_address,t_mapping(t_address,t_bool))"
      },
      {
        "astId": 1396,
        "contract": "contracts/01-Optimuhs.sol:OptimuhsSingle",
        "label": "_tokenURIs",
        "offset": 0,
        "slot": "6",
        "type": "t_mapping(t_uint256,t_string_storage)"
      },
      {
        "astId": 130,
        "contract": "contracts/01-Optimuhs.sol:OptimuhsSingle",
        "label": "_paused",
        "offset": 0,
        "slot": "7",
        "type": "t_bool"
      },
      {
        "astId": 7,
        "contract": "contracts/01-Optimuhs.sol:OptimuhsSingle",
        "label": "_owner",
        "offset": 1,
        "slot": "7",
        "type": "t_address"
      },
      {
        "astId": 231,
        "contract": "contracts/01-Optimuhs.sol:OptimuhsSingle",
        "label": "_status",
        "offset": 0,
        "slot": "8",
        "type": "t_uint256"
      },
      {
        "astId": 3065,
        "contract": "contracts/01-Optimuhs.sol:OptimuhsSingle",
        "label": "s_tokenIdCounter",
        "offset": 0,
        "slot": "9",
        "type": "t_struct(Counter)1893_storage"
      },
      {
        "astId": 3068,
        "contract": "contracts/01-Optimuhs.sol:OptimuhsSingle",
        "label": "s_baseExtension",
        "offset": 0,
        "slot": "10",
        "type": "t_string_storage"
      },
      {
        "astId": 3071,
        "contract": "contracts/01-Optimuhs.sol:OptimuhsSingle",
        "label": "s_currentMinted",
        "offset": 0,
        "slot": "11",
        "type": "t_uint256"
      },
      {
        "astId": 3073,
        "contract": "contracts/01-Optimuhs.sol:OptimuhsSingle",
        "label": "s_baseTokenURI",
        "offset": 0,
        "slot": "12",
        "type": "t_string_storage"
      },
      {
        "astId": 3077,
        "contract": "contracts/01-Optimuhs.sol:OptimuhsSingle",
        "label": "s_mintList",
        "offset": 0,
        "slot": "13",
        "type": "t_mapping(t_address,t_uint32)"
      },
      {
        "astId": 3087,
        "contract": "contracts/01-Optimuhs.sol:OptimuhsSingle",
        "label": "s_salesConfig",
        "offset": 0,
        "slot": "14",
        "type": "t_struct(SalesConfig)3084_storage"
      }
    ],
    "types": {
      "t_address": {
        "encoding": "inplace",
        "label": "address",
        "numberOfBytes": "20"
      },
      "t_bool": {
        "encoding": "inplace",
        "label": "bool",
        "numberOfBytes": "1"
      },
      "t_mapping(t_address,t_bool)": {
        "encoding": "mapping",
        "key": "t_address",
        "label": "mapping(address => bool)",
        "numberOfBytes": "32",
        "value": "t_bool"
      },
      "t_mapping(t_address,t_mapping(t_address,t_bool))": {
        "encoding": "mapping",
        "key": "t_address",
        "label": "mapping(address => mapping(address => bool))",
        "numberOfBytes": "32",
        "value": "t_mapping(t_address,t_bool)"
      },
      "t_mapping(t_address,t_uint256)": {
        "encoding": "mapping",
        "key": "t_address",
        "label": "mapping(address => uint256)",
        "numberOfBytes": "32",
        "value": "t_uint256"
      },
      "t_mapping(t_address,t_uint32)": {
        "encoding": "mapping",
        "key": "t_address",
        "label": "mapping(address => uint32)",
        "numberOfBytes": "32",
        "value": "t_uint32"
      },
      "t_mapping(t_uint256,t_address)": {
        "encoding": "mapping",
        "key": "t_uint256",
        "label": "mapping(uint256 => address)",
        "numberOfBytes": "32",
        "value": "t_address"
      },
      "t_mapping(t_uint256,t_string_storage)": {
        "encoding": "mapping",
        "key": "t_uint256",
        "label": "mapping(uint256 => string)",
        "numberOfBytes": "32",
        "value": "t_string_storage"
      },
      "t_string_storage": {
        "encoding": "bytes",
        "label": "string",
        "numberOfBytes": "32"
      },
      "t_struct(Counter)1893_storage": {
        "encoding": "inplace",
        "label": "struct Counters.Counter",
        "members": [
          {
            "astId": 1892,
            "contract": "contracts/01-Optimuhs.sol:OptimuhsSingle",
            "label": "_value",
            "offset": 0,
            "slot": "0",
            "type": "t_uint256"
          }
        ],
        "numberOfBytes": "32"
      },
      "t_struct(SalesConfig)3084_storage": {
        "encoding": "inplace",
        "label": "struct OptimuhsSingle.SalesConfig",
        "members": [
          {
            "astId": 3079,
            "contract": "contracts/01-Optimuhs.sol:OptimuhsSingle",
            "label": "mintPrice",
            "offset": 0,
            "slot": "0",
            "type": "t_uint256"
          },
          {
            "astId": 3081,
            "contract": "contracts/01-Optimuhs.sol:OptimuhsSingle",
            "label": "amountPerWallet",
            "offset": 0,
            "slot": "1",
            "type": "t_uint256"
          },
          {
            "astId": 3083,
            "contract": "contracts/01-Optimuhs.sol:OptimuhsSingle",
            "label": "totalSupply",
            "offset": 0,
            "slot": "2",
            "type": "t_uint256"
          }
        ],
        "numberOfBytes": "96"
      },
      "t_uint256": {
        "encoding": "inplace",
        "label": "uint256",
        "numberOfBytes": "32"
      },
      "t_uint32": {
        "encoding": "inplace",
        "label": "uint32",
        "numberOfBytes": "4"
      }
    }
  }
}