{
  "address": "0xfAc51a6A5C0FB729015B302Cb965FB072D43D6Be",
  "abi": [
    {
      "inputs": [
        {
          "internalType": "uint256",
          "name": "mintPrice_",
          "type": "uint256"
        },
        {
          "internalType": "uint256",
          "name": "amountPerWallet_",
          "type": "uint256"
        },
        {
          "internalType": "uint256",
          "name": "totalSupply_",
          "type": "uint256"
        }
      ],
      "stateMutability": "nonpayable",
      "type": "constructor"
    },
    {
      "anonymous": false,
      "inputs": [
        {
          "indexed": true,
          "internalType": "address",
          "name": "owner",
          "type": "address"
        },
        {
          "indexed": true,
          "internalType": "address",
          "name": "approved",
          "type": "address"
        },
        {
          "indexed": true,
          "internalType": "uint256",
          "name": "tokenId",
          "type": "uint256"
        }
      ],
      "name": "Approval",
      "type": "event"
    },
    {
      "anonymous": false,
      "inputs": [
        {
          "indexed": true,
          "internalType": "address",
          "name": "owner",
          "type": "address"
        },
        {
          "indexed": true,
          "internalType": "address",
          "name": "operator",
          "type": "address"
        },
        {
          "indexed": false,
          "internalType": "bool",
          "name": "approved",
          "type": "bool"
        }
      ],
      "name": "ApprovalForAll",
      "type": "event"
    },
    {
      "anonymous": false,
      "inputs": [
        {
          "indexed": true,
          "internalType": "address",
          "name": "previousOwner",
          "type": "address"
        },
        {
          "indexed": true,
          "internalType": "address",
          "name": "newOwner",
          "type": "address"
        }
      ],
      "name": "OwnershipTransferred",
      "type": "event"
    },
    {
      "anonymous": false,
      "inputs": [
        {
          "indexed": false,
          "internalType": "address",
          "name": "account",
          "type": "address"
        }
      ],
      "name": "Paused",
      "type": "event"
    },
    {
      "anonymous": false,
      "inputs": [
        {
          "indexed": false,
          "internalType": "address",
          "name": "user",
          "type": "address"
        },
        {
          "indexed": false,
          "internalType": "uint256",
          "name": "amount",
          "type": "uint256"
        }
      ],
      "name": "RecievedPayment",
      "type": "event"
    },
    {
      "anonymous": false,
      "inputs": [
        {
          "indexed": false,
          "internalType": "address",
          "name": "user",
          "type": "address"
        },
        {
          "indexed": false,
          "internalType": "uint256",
          "name": "amount",
          "type": "uint256"
        },
        {
          "indexed": false,
          "internalType": "uint256",
          "name": "value",
          "type": "uint256"
        }
      ],
      "name": "SuccessfulMint",
      "type": "event"
    },
    {
      "anonymous": false,
      "inputs": [
        {
          "indexed": true,
          "internalType": "address",
          "name": "from",
          "type": "address"
        },
        {
          "indexed": true,
          "internalType": "address",
          "name": "to",
          "type": "address"
        },
        {
          "indexed": true,
          "internalType": "uint256",
          "name": "tokenId",
          "type": "uint256"
        }
      ],
      "name": "Transfer",
      "type": "event"
    },
    {
      "anonymous": false,
      "inputs": [
        {
          "indexed": false,
          "internalType": "address",
          "name": "account",
          "type": "address"
        }
      ],
      "name": "Unpaused",
      "type": "event"
    },
    {
      "inputs": [
        {
          "internalType": "address",
          "name": "to",
          "type": "address"
        },
        {
          "internalType": "uint256",
          "name": "tokenId",
          "type": "uint256"
        }
      ],
      "name": "approve",
      "outputs": [],
      "stateMutability": "nonpayable",
      "type": "function"
    },
    {
      "inputs": [
        {
          "internalType": "address",
          "name": "owner",
          "type": "address"
        }
      ],
      "name": "balanceOf",
      "outputs": [
        {
          "internalType": "uint256",
          "name": "",
          "type": "uint256"
        }
      ],
      "stateMutability": "view",
      "type": "function"
    },
    {
      "inputs": [
        {
          "internalType": "uint256",
          "name": "tokenId",
          "type": "uint256"
        }
      ],
      "name": "burn",
      "outputs": [],
      "stateMutability": "nonpayable",
      "type": "function"
    },
    {
      "inputs": [],
      "name": "currentBalance",
      "outputs": [
        {
          "internalType": "uint256",
          "name": "",
          "type": "uint256"
        }
      ],
      "stateMutability": "view",
      "type": "function"
    },
    {
      "inputs": [
        {
          "internalType": "uint256",
          "name": "tokenId",
          "type": "uint256"
        }
      ],
      "name": "getApproved",
      "outputs": [
        {
          "internalType": "address",
          "name": "",
          "type": "address"
        }
      ],
      "stateMutability": "view",
      "type": "function"
    },
    {
      "inputs": [],
      "name": "getBase",
      "outputs": [
        {
          "internalType": "string",
          "name": "",
          "type": "string"
        }
      ],
      "stateMutability": "view",
      "type": "function"
    },
    {
      "inputs": [
        {
          "internalType": "address",
          "name": "owner",
          "type": "address"
        },
        {
          "internalType": "address",
          "name": "operator",
          "type": "address"
        }
      ],
      "name": "isApprovedForAll",
      "outputs": [
        {
          "internalType": "bool",
          "name": "",
          "type": "bool"
        }
      ],
      "stateMutability": "view",
      "type": "function"
    },
    {
      "inputs": [
        {
          "components": [
            {
              "internalType": "string",
              "name": "name",
              "type": "string"
            },
            {
              "internalType": "string",
              "name": "description",
              "type": "string"
            },
            {
              "internalType": "string",
              "name": "image",
              "type": "string"
            }
          ],
          "internalType": "struct OptimuhsSingle.TokenMetadata",
          "name": "metadata",
          "type": "tuple"
        }
      ],
      "name": "mintNFT",
      "outputs": [],
      "stateMutability": "payable",
      "type": "function"
    },
    {
      "inputs": [],
      "name": "name",
      "outputs": [
        {
          "internalType": "string",
          "name": "",
          "type": "string"
        }
      ],
      "stateMutability": "view",
      "type": "function"
    },
    {
      "inputs": [],
      "name": "owner",
      "outputs": [
        {
          "internalType": "address",
          "name": "",
          "type": "address"
        }
      ],
      "stateMutability": "view",
      "type": "function"
    },
    {
      "inputs": [
        {
          "internalType": "uint256",
          "name": "tokenId",
          "type": "uint256"
        }
      ],
      "name": "ownerOf",
      "outputs": [
        {
          "internalType": "address",
          "name": "",
          "type": "address"
        }
      ],
      "stateMutability": "view",
      "type": "function"
    },
    {
      "inputs": [],
      "name": "pause",
      "outputs": [],
      "stateMutability": "nonpayable",
      "type": "function"
    },
    {
      "inputs": [],
      "name": "paused",
      "outputs": [
        {
          "internalType": "bool",
          "name": "",
          "type": "bool"
        }
      ],
      "stateMutability": "view",
      "type": "function"
    },
    {
      "inputs": [],
      "name": "renounceOwnership",
      "outputs": [],
      "stateMutability": "nonpayable",
      "type": "function"
    },
    {
      "inputs": [],
      "name": "s_baseExtension",
      "outputs": [
        {
          "internalType": "string",
          "name": "",
          "type": "string"
        }
      ],
      "stateMutability": "view",
      "type": "function"
    },
    {
      "inputs": [
        {
          "internalType": "address",
          "name": "",
          "type": "address"
        }
      ],
      "name": "s_mintList",
      "outputs": [
        {
          "internalType": "uint32",
          "name": "",
          "type": "uint32"
        }
      ],
      "stateMutability": "view",
      "type": "function"
    },
    {
      "inputs": [],
      "name": "s_salesConfig",
      "outputs": [
        {
          "internalType": "uint256",
          "name": "mintPrice",
          "type": "uint256"
        },
        {
          "internalType": "uint256",
          "name": "amountPerWallet",
          "type": "uint256"
        },
        {
          "internalType": "uint256",
          "name": "totalSupply",
          "type": "uint256"
        }
      ],
      "stateMutability": "view",
      "type": "function"
    },
    {
      "inputs": [
        {
          "internalType": "address",
          "name": "from",
          "type": "address"
        },
        {
          "internalType": "address",
          "name": "to",
          "type": "address"
        },
        {
          "internalType": "uint256",
          "name": "tokenId",
          "type": "uint256"
        }
      ],
      "name": "safeTransferFrom",
      "outputs": [],
      "stateMutability": "nonpayable",
      "type": "function"
    },
    {
      "inputs": [
        {
          "internalType": "address",
          "name": "from",
          "type": "address"
        },
        {
          "internalType": "address",
          "name": "to",
          "type": "address"
        },
        {
          "internalType": "uint256",
          "name": "tokenId",
          "type": "uint256"
        },
        {
          "internalType": "bytes",
          "name": "data",
          "type": "bytes"
        }
      ],
      "name": "safeTransferFrom",
      "outputs": [],
      "stateMutability": "nonpayable",
      "type": "function"
    },
    {
      "inputs": [
        {
          "internalType": "address",
          "name": "operator",
          "type": "address"
        },
        {
          "internalType": "bool",
          "name": "approved",
          "type": "bool"
        }
      ],
      "name": "setApprovalForAll",
      "outputs": [],
      "stateMutability": "nonpayable",
      "type": "function"
    },
    {
      "inputs": [
        {
          "internalType": "bytes4",
          "name": "interfaceId",
          "type": "bytes4"
        }
      ],
      "name": "supportsInterface",
      "outputs": [
        {
          "internalType": "bool",
          "name": "",
          "type": "bool"
        }
      ],
      "stateMutability": "view",
      "type": "function"
    },
    {
      "inputs": [],
      "name": "symbol",
      "outputs": [
        {
          "internalType": "string",
          "name": "",
          "type": "string"
        }
      ],
      "stateMutability": "view",
      "type": "function"
    },
    {
      "inputs": [
        {
          "internalType": "uint256",
          "name": "tokenId",
          "type": "uint256"
        }
      ],
      "name": "tokenURI",
      "outputs": [
        {
          "internalType": "string",
          "name": "",
          "type": "string"
        }
      ],
      "stateMutability": "view",
      "type": "function"
    },
    {
      "inputs": [
        {
          "internalType": "address",
          "name": "from",
          "type": "address"
        },
        {
          "internalType": "address",
          "name": "to",
          "type": "address"
        },
        {
          "internalType": "uint256",
          "name": "tokenId",
          "type": "uint256"
        }
      ],
      "name": "transferFrom",
      "outputs": [],
      "stateMutability": "nonpayable",
      "type": "function"
    },
    {
      "inputs": [
        {
          "internalType": "address",
          "name": "newOwner",
          "type": "address"
        }
      ],
      "name": "transferOwnership",
      "outputs": [],
      "stateMutability": "nonpayable",
      "type": "function"
    },
    {
      "inputs": [],
      "name": "unpause",
      "outputs": [],
      "stateMutability": "nonpayable",
      "type": "function"
    },
    {
      "inputs": [
        {
          "internalType": "string",
          "name": "newUri",
          "type": "string"
        }
      ],
      "name": "updateBase",
      "outputs": [],
      "stateMutability": "nonpayable",
      "type": "function"
    },
    {
      "inputs": [
        {
          "internalType": "uint256",
          "name": "tokenId",
          "type": "uint256"
        },
        {
          "components": [
            {
              "internalType": "string",
              "name": "name",
              "type": "string"
            },
            {
              "internalType": "string",
              "name": "description",
              "type": "string"
            },
            {
              "internalType": "string",
              "name": "image",
              "type": "string"
            }
          ],
          "internalType": "struct OptimuhsSingle.TokenMetadata",
          "name": "metadata",
          "type": "tuple"
        }
      ],
      "name": "updateTokenMetadataExternal",
      "outputs": [],
      "stateMutability": "nonpayable",
      "type": "function"
    },
    {
      "inputs": [],
      "name": "withdraw",
      "outputs": [
        {
          "internalType": "bool",
          "name": "",
          "type": "bool"
        }
      ],
      "stateMutability": "nonpayable",
      "type": "function"
    },
    {
      "stateMutability": "payable",
      "type": "receive"
    }
  ],
  "transactionHash": "0xf0f2db7f0e58af1c9c95ba5e5ad4207e290708ea89d550681f5f21c733b593a7",
  "args": [
    0,
    3,
    10000
  ],
  "numDeployments": 3,
  "solcInputHash": "c4a1e92e408c9cea1e6e29e6b1177d74",
  "bytecode": "0x60806040526040518060400160405280600581526020017f2e6a736f6e000000000000000000000000000000000000000000000000000000815250600a90805190602001906200005192919062000262565b506000600b553480156200006457600080fd5b50604051620044073803806200440783398181016040528101906200008a919062000352565b6040518060400160405280600d81526020017f4f7074696d756873546f6b656e000000000000000000000000000000000000008152506040518060400160405280600381526020017f4f5054000000000000000000000000000000000000000000000000000000000081525081600090805190602001906200010e92919062000262565b5080600190805190602001906200012792919062000262565b5050506000600760006101000a81548160ff02191690831515021790555062000165620001596200019460201b60201c565b6200019c60201b60201c565b600160088190555082600f6000018190555081600f6001018190555080600f6002018190555050505062000413565b600033905090565b6000600760019054906101000a900473ffffffffffffffffffffffffffffffffffffffff16905081600760016101000a81548173ffffffffffffffffffffffffffffffffffffffff021916908373ffffffffffffffffffffffffffffffffffffffff1602179055508173ffffffffffffffffffffffffffffffffffffffff168173ffffffffffffffffffffffffffffffffffffffff167f8be0079c531659141344cd1fd0a4f28419497f9722a3daafe3b4186f6b6457e060405160405180910390a35050565b8280546200027090620003dd565b90600052602060002090601f016020900481019282620002945760008555620002e0565b82601f10620002af57805160ff1916838001178555620002e0565b82800160010185558215620002e0579182015b82811115620002df578251825591602001919060010190620002c2565b5b509050620002ef9190620002f3565b5090565b5b808211156200030e576000816000905550600101620002f4565b5090565b600080fd5b6000819050919050565b6200032c8162000317565b81146200033857600080fd5b50565b6000815190506200034c8162000321565b92915050565b6000806000606084860312156200036e576200036d62000312565b5b60006200037e868287016200033b565b935050602062000391868287016200033b565b9250506040620003a4868287016200033b565b9150509250925092565b7f4e487b7100000000000000000000000000000000000000000000000000000000600052602260045260246000fd5b60006002820490506001821680620003f657607f821691505b602082108114156200040d576200040c620003ae565b5b50919050565b613fe480620004236000396000f3fe6080604052600436106101c65760003560e01c806370a08231116100f7578063b88d4fde11610095578063e985e9c511610064578063e985e9c514610660578063f2fde38b1461069d578063f44f7618146106c6578063f949417f146106f157610206565b8063b88d4fde146105a4578063c87b56dd146105cd578063ce845d1d1461060a578063d104a1361461063557610206565b80638da5cb5b116100d15780638da5cb5b146104e857806395d89b41146105135780639a704fb41461053e578063a22cb4651461057b57610206565b806370a082311461047d578063715018a6146104ba5780638456cb59146104d157610206565b806323b872dd1161016457806342842e0e1161013e57806342842e0e146103c357806342966c68146103ec5780635c975abb146104155780636352211e1461044057610206565b806323b872dd146103585780633ccfd60b146103815780633f4ba83a146103ac57610206565b8063095ea7b3116101a0578063095ea7b3146102b05780630f77282a146102d957806317fa33b3146103025780631ed975351461032b57610206565b806301ffc9a71461020b57806306fdde0314610248578063081812fc1461027357610206565b36610206577f590459e5b10aa62befc0127acd17b19f7fe69f5bb5bd0998854ad78a48b92dd633346040516101fc9291906129e9565b60405180910390a1005b600080fd5b34801561021757600080fd5b50610232600480360381019061022d9190612a7e565b61070d565b60405161023f9190612ac6565b60405180910390f35b34801561025457600080fd5b5061025d6107ef565b60405161026a9190612b7a565b60405180910390f35b34801561027f57600080fd5b5061029a60048036038101906102959190612bc8565b610881565b6040516102a79190612bf5565b60405180910390f35b3480156102bc57600080fd5b506102d760048036038101906102d29190612c3c565b6108c7565b005b3480156102e557600080fd5b5061030060048036038101906102fb9190612db1565b6109df565b005b34801561030e57600080fd5b5061032960048036038101906103249190612ebc565b610a01565b005b34801561033757600080fd5b50610340610b0a565b60405161034f93929190612f18565b60405180910390f35b34801561036457600080fd5b5061037f600480360381019061037a9190612f4f565b610b22565b005b34801561038d57600080fd5b50610396610b82565b6040516103a39190612ac6565b60405180910390f35b3480156103b857600080fd5b506103c1610c4f565b005b3480156103cf57600080fd5b506103ea60048036038101906103e59190612f4f565b610c61565b005b3480156103f857600080fd5b50610413600480360381019061040e9190612bc8565b610c81565b005b34801561042157600080fd5b5061042a610cdd565b6040516104379190612ac6565b60405180910390f35b34801561044c57600080fd5b5061046760048036038101906104629190612bc8565b610cf4565b6040516104749190612bf5565b60405180910390f35b34801561048957600080fd5b506104a4600480360381019061049f9190612fa2565b610d7b565b6040516104b19190612fcf565b60405180910390f35b3480156104c657600080fd5b506104cf610e33565b005b3480156104dd57600080fd5b506104e6610e47565b005b3480156104f457600080fd5b506104fd610e59565b60405161050a9190612bf5565b60405180910390f35b34801561051f57600080fd5b50610528610e83565b6040516105359190612b7a565b60405180910390f35b34801561054a57600080fd5b5061056560048036038101906105609190612fa2565b610f15565b6040516105729190613009565b60405180910390f35b34801561058757600080fd5b506105a2600480360381019061059d9190613050565b610f38565b005b3480156105b057600080fd5b506105cb60048036038101906105c69190613131565b610f4e565b005b3480156105d957600080fd5b506105f460048036038101906105ef9190612bc8565b610fb0565b6040516106019190612b7a565b60405180910390f35b34801561061657600080fd5b5061061f61122c565b60405161062c9190612fcf565b60405180910390f35b34801561064157600080fd5b5061064a611234565b6040516106579190612b7a565b60405180910390f35b34801561066c57600080fd5b50610687600480360381019061068291906131b4565b6112c6565b6040516106949190612ac6565b60405180910390f35b3480156106a957600080fd5b506106c460048036038101906106bf9190612fa2565b61135a565b005b3480156106d257600080fd5b506106db6113de565b6040516106e89190612b7a565b60405180910390f35b61070b600480360381019061070691906131f4565b61146c565b005b60007f80ac58cd000000000000000000000000000000000000000000000000000000007bffffffffffffffffffffffffffffffffffffffffffffffffffffffff1916827bffffffffffffffffffffffffffffffffffffffffffffffffffffffff191614806107d857507f5b5e139f000000000000000000000000000000000000000000000000000000007bffffffffffffffffffffffffffffffffffffffffffffffffffffffff1916827bffffffffffffffffffffffffffffffffffffffffffffffffffffffff1916145b806107e857506107e7826115f5565b5b9050919050565b6060600080546107fe9061326c565b80601f016020809104026020016040519081016040528092919081815260200182805461082a9061326c565b80156108775780601f1061084c57610100808354040283529160200191610877565b820191906000526020600020905b81548152906001019060200180831161085a57829003601f168201915b5050505050905090565b600061088c8261165f565b6004600083815260200190815260200160002060009054906101000a900473ffffffffffffffffffffffffffffffffffffffff169050919050565b60006108d282610cf4565b90508073ffffffffffffffffffffffffffffffffffffffff168373ffffffffffffffffffffffffffffffffffffffff161415610943576040517f08c379a000000000000000000000000000000000000000000000000000000000815260040161093a90613310565b60405180910390fd5b8073ffffffffffffffffffffffffffffffffffffffff166109626116aa565b73ffffffffffffffffffffffffffffffffffffffff16148061099157506109908161098b6116aa565b6112c6565b5b6109d0576040517f08c379a00000000000000000000000000000000000000000000000000000000081526004016109c7906133a2565b60405180910390fd5b6109da83836116b2565b505050565b6109e761176b565b80600c90805190602001906109fd9291906128ac565b5050565b610a0961176b565b610a11610e59565b73ffffffffffffffffffffffffffffffffffffffff163373ffffffffffffffffffffffffffffffffffffffff161480610a7557503073ffffffffffffffffffffffffffffffffffffffff163373ffffffffffffffffffffffffffffffffffffffff16145b610ab4576040517f08c379a0000000000000000000000000000000000000000000000000000000008152600401610aab9061340e565b60405180910390fd5b610abd826117e9565b610afc576040517f08c379a0000000000000000000000000000000000000000000000000000000008152600401610af3906134a0565b60405180910390fd5b610b06828261182a565b5050565b600f8060000154908060010154908060020154905083565b610b33610b2d6116aa565b8261189c565b610b72576040517f08c379a0000000000000000000000000000000000000000000000000000000008152600401610b6990613532565b60405180910390fd5b610b7d838383611931565b505050565b6000610b8c61176b565b610b94611c2b565b60003373ffffffffffffffffffffffffffffffffffffffff1647604051610bba90613583565b60006040518083038185875af1925050503d8060008114610bf7576040519150601f19603f3d011682016040523d82523d6000602084013e610bfc565b606091505b5050905080610c40576040517f08c379a0000000000000000000000000000000000000000000000000000000008152600401610c37906135e4565b60405180910390fd5b80915050610c4c611c7b565b90565b610c5761176b565b610c5f611c85565b565b610c7c83838360405180602001604052806000815250610f4e565b505050565b610c92610c8c6116aa565b8261189c565b610cd1576040517f08c379a0000000000000000000000000000000000000000000000000000000008152600401610cc890613532565b60405180910390fd5b610cda81611ce8565b50565b6000600760009054906101000a900460ff16905090565b600080610d0083611cf4565b9050600073ffffffffffffffffffffffffffffffffffffffff168173ffffffffffffffffffffffffffffffffffffffff161415610d72576040517f08c379a0000000000000000000000000000000000000000000000000000000008152600401610d6990613650565b60405180910390fd5b80915050919050565b60008073ffffffffffffffffffffffffffffffffffffffff168273ffffffffffffffffffffffffffffffffffffffff161415610dec576040517f08c379a0000000000000000000000000000000000000000000000000000000008152600401610de3906136e2565b60405180910390fd5b600360008373ffffffffffffffffffffffffffffffffffffffff1673ffffffffffffffffffffffffffffffffffffffff168152602001908152602001600020549050919050565b610e3b61176b565b610e456000611d31565b565b610e4f61176b565b610e57611df7565b565b6000600760019054906101000a900473ffffffffffffffffffffffffffffffffffffffff16905090565b606060018054610e929061326c565b80601f0160208091040260200160405190810160405280929190818152602001828054610ebe9061326c565b8015610f0b5780601f10610ee057610100808354040283529160200191610f0b565b820191906000526020600020905b815481529060010190602001808311610eee57829003601f168201915b5050505050905090565b600d6020528060005260406000206000915054906101000a900463ffffffff1681565b610f4a610f436116aa565b8383611e5a565b5050565b610f5f610f596116aa565b8361189c565b610f9e576040517f08c379a0000000000000000000000000000000000000000000000000000000008152600401610f9590613532565b60405180910390fd5b610faa84848484611fc7565b50505050565b6060610fbb826117e9565b610ffa576040517f08c379a0000000000000000000000000000000000000000000000000000000008152600401610ff190613774565b60405180910390fd5b6000600e600084815260200190815260200160002060405180606001604052908160008201805461102a9061326c565b80601f01602080910402602001604051908101604052809291908181526020018280546110569061326c565b80156110a35780601f10611078576101008083540402835291602001916110a3565b820191906000526020600020905b81548152906001019060200180831161108657829003601f168201915b505050505081526020016001820180546110bc9061326c565b80601f01602080910402602001604051908101604052809291908181526020018280546110e89061326c565b80156111355780601f1061110a57610100808354040283529160200191611135565b820191906000526020600020905b81548152906001019060200180831161111857829003601f168201915b5050505050815260200160028201805461114e9061326c565b80601f016020809104026020016040519081016040528092919081815260200182805461117a9061326c565b80156111c75780601f1061119c576101008083540402835291602001916111c7565b820191906000526020600020905b8154815290600101906020018083116111aa57829003601f168201915b505050505081525050905060006111dc612023565b905060008151116111fc5760405180602001604052806000815250611223565b8082604001516040516020016112139291906137d0565b6040516020818303038152906040525b92505050919050565b600047905090565b6060600c80546112439061326c565b80601f016020809104026020016040519081016040528092919081815260200182805461126f9061326c565b80156112bc5780601f10611291576101008083540402835291602001916112bc565b820191906000526020600020905b81548152906001019060200180831161129f57829003601f168201915b5050505050905090565b6000600560008473ffffffffffffffffffffffffffffffffffffffff1673ffffffffffffffffffffffffffffffffffffffff16815260200190815260200160002060008373ffffffffffffffffffffffffffffffffffffffff1673ffffffffffffffffffffffffffffffffffffffff16815260200190815260200160002060009054906101000a900460ff16905092915050565b61136261176b565b600073ffffffffffffffffffffffffffffffffffffffff168173ffffffffffffffffffffffffffffffffffffffff1614156113d2576040517f08c379a00000000000000000000000000000000000000000000000000000000081526004016113c990613866565b60405180910390fd5b6113db81611d31565b50565b600a80546113eb9061326c565b80601f01602080910402602001604051908101604052809291908181526020018280546114179061326c565b80156114645780601f1061143957610100808354040283529160200191611464565b820191906000526020600020905b81548152906001019060200180831161144757829003601f168201915b505050505081565b600f600101546001600d60003373ffffffffffffffffffffffffffffffffffffffff1673ffffffffffffffffffffffffffffffffffffffff16815260200190815260200160002060009054906101000a900463ffffffff166114ce91906138b5565b63ffffffff161115611515576040517f08c379a000000000000000000000000000000000000000000000000000000000815260040161150c90613961565b60405180910390fd5b600f6000015434101561155d576040517f08c379a0000000000000000000000000000000000000000000000000000000008152600401611554906139cd565b60405180910390fd5b61156733826120b5565b6001600d60003373ffffffffffffffffffffffffffffffffffffffff1673ffffffffffffffffffffffffffffffffffffffff16815260200190815260200160002060008282829054906101000a900463ffffffff166115c691906138b5565b92506101000a81548163ffffffff021916908363ffffffff1602179055506115f2600f600001546120e6565b50565b60007f01ffc9a7000000000000000000000000000000000000000000000000000000007bffffffffffffffffffffffffffffffffffffffffffffffffffffffff1916827bffffffffffffffffffffffffffffffffffffffffffffffffffffffff1916149050919050565b611668816117e9565b6116a7576040517f08c379a000000000000000000000000000000000000000000000000000000000815260040161169e90613650565b60405180910390fd5b50565b600033905090565b816004600083815260200190815260200160002060006101000a81548173ffffffffffffffffffffffffffffffffffffffff021916908373ffffffffffffffffffffffffffffffffffffffff160217905550808273ffffffffffffffffffffffffffffffffffffffff1661172583610cf4565b73ffffffffffffffffffffffffffffffffffffffff167f8c5be1e5ebec7d5bd14f71427d1e84f3dd0314c0f7b2291e5b200ac8c7c3b92560405160405180910390a45050565b6117736116aa565b73ffffffffffffffffffffffffffffffffffffffff16611791610e59565b73ffffffffffffffffffffffffffffffffffffffff16146117e7576040517f08c379a00000000000000000000000000000000000000000000000000000000081526004016117de9061340e565b60405180910390fd5b565b60008073ffffffffffffffffffffffffffffffffffffffff1661180b83611cf4565b73ffffffffffffffffffffffffffffffffffffffff1614159050919050565b80600e6000848152602001908152602001600020600082015181600001908051906020019061185a9291906128ac565b5060208201518160010190805190602001906118779291906128ac565b5060408201518160020190805190602001906118949291906128ac565b509050505050565b6000806118a883610cf4565b90508073ffffffffffffffffffffffffffffffffffffffff168473ffffffffffffffffffffffffffffffffffffffff1614806118ea57506118e981856112c6565b5b8061192857508373ffffffffffffffffffffffffffffffffffffffff1661191084610881565b73ffffffffffffffffffffffffffffffffffffffff16145b91505092915050565b8273ffffffffffffffffffffffffffffffffffffffff1661195182610cf4565b73ffffffffffffffffffffffffffffffffffffffff16146119a7576040517f08c379a000000000000000000000000000000000000000000000000000000000815260040161199e90613a5f565b60405180910390fd5b600073ffffffffffffffffffffffffffffffffffffffff168273ffffffffffffffffffffffffffffffffffffffff161415611a17576040517f08c379a0000000000000000000000000000000000000000000000000000000008152600401611a0e90613af1565b60405180910390fd5b611a248383836001612187565b8273ffffffffffffffffffffffffffffffffffffffff16611a4482610cf4565b73ffffffffffffffffffffffffffffffffffffffff1614611a9a576040517f08c379a0000000000000000000000000000000000000000000000000000000008152600401611a9190613a5f565b60405180910390fd5b6004600082815260200190815260200160002060006101000a81549073ffffffffffffffffffffffffffffffffffffffff02191690556001600360008573ffffffffffffffffffffffffffffffffffffffff1673ffffffffffffffffffffffffffffffffffffffff168152602001908152602001600020600082825403925050819055506001600360008473ffffffffffffffffffffffffffffffffffffffff1673ffffffffffffffffffffffffffffffffffffffff16815260200190815260200160002060008282540192505081905550816002600083815260200190815260200160002060006101000a81548173ffffffffffffffffffffffffffffffffffffffff021916908373ffffffffffffffffffffffffffffffffffffffff160217905550808273ffffffffffffffffffffffffffffffffffffffff168473ffffffffffffffffffffffffffffffffffffffff167fddf252ad1be2c89b69c2b068fc378daa952ba7f163c4a11628f55a4df523b3ef60405160405180910390a4611c2683838360016121a1565b505050565b60026008541415611c71576040517f08c379a0000000000000000000000000000000000000000000000000000000008152600401611c6890613b5d565b60405180910390fd5b6002600881905550565b6001600881905550565b611c8d6121a7565b6000600760006101000a81548160ff0219169083151502179055507f5db9ee0a495bf2e6ff9c91a7834c1ba4fdd244a5e8aa4e537bd38aeae4b073aa611cd16116aa565b604051611cde9190612bf5565b60405180910390a1565b611cf1816121f0565b50565b60006002600083815260200190815260200160002060009054906101000a900473ffffffffffffffffffffffffffffffffffffffff169050919050565b6000600760019054906101000a900473ffffffffffffffffffffffffffffffffffffffff16905081600760016101000a81548173ffffffffffffffffffffffffffffffffffffffff021916908373ffffffffffffffffffffffffffffffffffffffff1602179055508173ffffffffffffffffffffffffffffffffffffffff168173ffffffffffffffffffffffffffffffffffffffff167f8be0079c531659141344cd1fd0a4f28419497f9722a3daafe3b4186f6b6457e060405160405180910390a35050565b611dff612243565b6001600760006101000a81548160ff0219169083151502179055507f62e78cea01bee320cd4e420270b5ea74000d11b0c9f74754ebdbfc544b05a258611e436116aa565b604051611e509190612bf5565b60405180910390a1565b8173ffffffffffffffffffffffffffffffffffffffff168373ffffffffffffffffffffffffffffffffffffffff161415611ec9576040517f08c379a0000000000000000000000000000000000000000000000000000000008152600401611ec090613bc9565b60405180910390fd5b80600560008573ffffffffffffffffffffffffffffffffffffffff1673ffffffffffffffffffffffffffffffffffffffff16815260200190815260200160002060008473ffffffffffffffffffffffffffffffffffffffff1673ffffffffffffffffffffffffffffffffffffffff16815260200190815260200160002060006101000a81548160ff0219169083151502179055508173ffffffffffffffffffffffffffffffffffffffff168373ffffffffffffffffffffffffffffffffffffffff167f17307eab39ab6107e8899845ad3d59bd9653f200f220920489ca2b5937696c3183604051611fba9190612ac6565b60405180910390a3505050565b611fd2848484611931565b611fde8484848461228d565b61201d576040517f08c379a000000000000000000000000000000000000000000000000000000000815260040161201490613c5b565b60405180910390fd5b50505050565b6060600c80546120329061326c565b80601f016020809104026020016040519081016040528092919081815260200182805461205e9061326c565b80156120ab5780601f10612080576101008083540402835291602001916120ab565b820191906000526020600020905b81548152906001019060200180831161208e57829003601f168201915b5050505050905090565b60006120c16009612424565b90506120cd6009612432565b6120d78382612448565b6120e18183612466565b505050565b80341015612129576040517f08c379a000000000000000000000000000000000000000000000000000000000815260040161212090613cc7565b60405180910390fd5b80341115612184573373ffffffffffffffffffffffffffffffffffffffff166108fc82346121579190613ce7565b9081150290604051600060405180830381858888f19350505050158015612182573d6000803e3d6000fd5b505b50565b61218f612243565b61219b848484846124bc565b50505050565b50505050565b6121af610cdd565b6121ee576040517f08c379a00000000000000000000000000000000000000000000000000000000081526004016121e590613d67565b60405180910390fd5b565b6121f9816124c2565b60006006600083815260200190815260200160002080546122199061326c565b9050146122405760066000828152602001908152602001600020600061223f9190612932565b5b50565b61224b610cdd565b1561228b576040517f08c379a000000000000000000000000000000000000000000000000000000000815260040161228290613dd3565b60405180910390fd5b565b60006122ae8473ffffffffffffffffffffffffffffffffffffffff16612610565b15612417578373ffffffffffffffffffffffffffffffffffffffff1663150b7a026122d76116aa565b8786866040518563ffffffff1660e01b81526004016122f99493929190613e48565b602060405180830381600087803b15801561231357600080fd5b505af192505050801561234457506040513d601f19601f820116820180604052508101906123419190613ea9565b60015b6123c7573d8060008114612374576040519150601f19603f3d011682016040523d82523d6000602084013e612379565b606091505b506000815114156123bf576040517f08c379a00000000000000000000000000000000000000000000000000000000081526004016123b690613c5b565b60405180910390fd5b805181602001fd5b63150b7a0260e01b7bffffffffffffffffffffffffffffffffffffffffffffffffffffffff1916817bffffffffffffffffffffffffffffffffffffffffffffffffffffffff19161491505061241c565b600190505b949350505050565b600081600001549050919050565b6001816000016000828254019250508190555050565b612462828260405180602001604052806000815250612633565b5050565b61246f826117e9565b6124ae576040517f08c379a00000000000000000000000000000000000000000000000000000000081526004016124a5906134a0565b60405180910390fd5b6124b8828261182a565b5050565b50505050565b60006124cd82610cf4565b90506124dd816000846001612187565b6124e682610cf4565b90506004600083815260200190815260200160002060006101000a81549073ffffffffffffffffffffffffffffffffffffffff02191690556001600360008373ffffffffffffffffffffffffffffffffffffffff1673ffffffffffffffffffffffffffffffffffffffff168152602001908152602001600020600082825403925050819055506002600083815260200190815260200160002060006101000a81549073ffffffffffffffffffffffffffffffffffffffff021916905581600073ffffffffffffffffffffffffffffffffffffffff168273ffffffffffffffffffffffffffffffffffffffff167fddf252ad1be2c89b69c2b068fc378daa952ba7f163c4a11628f55a4df523b3ef60405160405180910390a461260c8160008460016121a1565b5050565b6000808273ffffffffffffffffffffffffffffffffffffffff163b119050919050565b61263d838361268e565b61264a600084848461228d565b612689576040517f08c379a000000000000000000000000000000000000000000000000000000000815260040161268090613c5b565b60405180910390fd5b505050565b600073ffffffffffffffffffffffffffffffffffffffff168273ffffffffffffffffffffffffffffffffffffffff1614156126fe576040517f08c379a00000000000000000000000000000000000000000000000000000000081526004016126f590613f22565b60405180910390fd5b612707816117e9565b15612747576040517f08c379a000000000000000000000000000000000000000000000000000000000815260040161273e90613f8e565b60405180910390fd5b612755600083836001612187565b61275e816117e9565b1561279e576040517f08c379a000000000000000000000000000000000000000000000000000000000815260040161279590613f8e565b60405180910390fd5b6001600360008473ffffffffffffffffffffffffffffffffffffffff1673ffffffffffffffffffffffffffffffffffffffff16815260200190815260200160002060008282540192505081905550816002600083815260200190815260200160002060006101000a81548173ffffffffffffffffffffffffffffffffffffffff021916908373ffffffffffffffffffffffffffffffffffffffff160217905550808273ffffffffffffffffffffffffffffffffffffffff16600073ffffffffffffffffffffffffffffffffffffffff167fddf252ad1be2c89b69c2b068fc378daa952ba7f163c4a11628f55a4df523b3ef60405160405180910390a46128a86000838360016121a1565b5050565b8280546128b89061326c565b90600052602060002090601f0160209004810192826128da5760008555612921565b82601f106128f357805160ff1916838001178555612921565b82800160010185558215612921579182015b82811115612920578251825591602001919060010190612905565b5b50905061292e9190612972565b5090565b50805461293e9061326c565b6000825580601f10612950575061296f565b601f01602090049060005260206000209081019061296e9190612972565b5b50565b5b8082111561298b576000816000905550600101612973565b5090565b600073ffffffffffffffffffffffffffffffffffffffff82169050919050565b60006129ba8261298f565b9050919050565b6129ca816129af565b82525050565b6000819050919050565b6129e3816129d0565b82525050565b60006040820190506129fe60008301856129c1565b612a0b60208301846129da565b9392505050565b6000604051905090565b600080fd5b600080fd5b60007fffffffff0000000000000000000000000000000000000000000000000000000082169050919050565b612a5b81612a26565b8114612a6657600080fd5b50565b600081359050612a7881612a52565b92915050565b600060208284031215612a9457612a93612a1c565b5b6000612aa284828501612a69565b91505092915050565b60008115159050919050565b612ac081612aab565b82525050565b6000602082019050612adb6000830184612ab7565b92915050565b600081519050919050565b600082825260208201905092915050565b60005b83811015612b1b578082015181840152602081019050612b00565b83811115612b2a576000848401525b50505050565b6000601f19601f8301169050919050565b6000612b4c82612ae1565b612b568185612aec565b9350612b66818560208601612afd565b612b6f81612b30565b840191505092915050565b60006020820190508181036000830152612b948184612b41565b905092915050565b612ba5816129d0565b8114612bb057600080fd5b50565b600081359050612bc281612b9c565b92915050565b600060208284031215612bde57612bdd612a1c565b5b6000612bec84828501612bb3565b91505092915050565b6000602082019050612c0a60008301846129c1565b92915050565b612c19816129af565b8114612c2457600080fd5b50565b600081359050612c3681612c10565b92915050565b60008060408385031215612c5357612c52612a1c565b5b6000612c6185828601612c27565b9250506020612c7285828601612bb3565b9150509250929050565b600080fd5b600080fd5b7f4e487b7100000000000000000000000000000000000000000000000000000000600052604160045260246000fd5b612cbe82612b30565b810181811067ffffffffffffffff82111715612cdd57612cdc612c86565b5b80604052505050565b6000612cf0612a12565b9050612cfc8282612cb5565b919050565b600067ffffffffffffffff821115612d1c57612d1b612c86565b5b612d2582612b30565b9050602081019050919050565b82818337600083830152505050565b6000612d54612d4f84612d01565b612ce6565b905082815260208101848484011115612d7057612d6f612c81565b5b612d7b848285612d32565b509392505050565b600082601f830112612d9857612d97612c7c565b5b8135612da8848260208601612d41565b91505092915050565b600060208284031215612dc757612dc6612a1c565b5b600082013567ffffffffffffffff811115612de557612de4612a21565b5b612df184828501612d83565b91505092915050565b600080fd5b600080fd5b600060608284031215612e1a57612e19612dfa565b5b612e246060612ce6565b9050600082013567ffffffffffffffff811115612e4457612e43612dff565b5b612e5084828501612d83565b600083015250602082013567ffffffffffffffff811115612e7457612e73612dff565b5b612e8084828501612d83565b602083015250604082013567ffffffffffffffff811115612ea457612ea3612dff565b5b612eb084828501612d83565b60408301525092915050565b60008060408385031215612ed357612ed2612a1c565b5b6000612ee185828601612bb3565b925050602083013567ffffffffffffffff811115612f0257612f01612a21565b5b612f0e85828601612e04565b9150509250929050565b6000606082019050612f2d60008301866129da565b612f3a60208301856129da565b612f4760408301846129da565b949350505050565b600080600060608486031215612f6857612f67612a1c565b5b6000612f7686828701612c27565b9350506020612f8786828701612c27565b9250506040612f9886828701612bb3565b9150509250925092565b600060208284031215612fb857612fb7612a1c565b5b6000612fc684828501612c27565b91505092915050565b6000602082019050612fe460008301846129da565b92915050565b600063ffffffff82169050919050565b61300381612fea565b82525050565b600060208201905061301e6000830184612ffa565b92915050565b61302d81612aab565b811461303857600080fd5b50565b60008135905061304a81613024565b92915050565b6000806040838503121561306757613066612a1c565b5b600061307585828601612c27565b92505060206130868582860161303b565b9150509250929050565b600067ffffffffffffffff8211156130ab576130aa612c86565b5b6130b482612b30565b9050602081019050919050565b60006130d46130cf84613090565b612ce6565b9050828152602081018484840111156130f0576130ef612c81565b5b6130fb848285612d32565b509392505050565b600082601f83011261311857613117612c7c565b5b81356131288482602086016130c1565b91505092915050565b6000806000806080858703121561314b5761314a612a1c565b5b600061315987828801612c27565b945050602061316a87828801612c27565b935050604061317b87828801612bb3565b925050606085013567ffffffffffffffff81111561319c5761319b612a21565b5b6131a887828801613103565b91505092959194509250565b600080604083850312156131cb576131ca612a1c565b5b60006131d985828601612c27565b92505060206131ea85828601612c27565b9150509250929050565b60006020828403121561320a57613209612a1c565b5b600082013567ffffffffffffffff81111561322857613227612a21565b5b61323484828501612e04565b91505092915050565b7f4e487b7100000000000000000000000000000000000000000000000000000000600052602260045260246000fd5b6000600282049050600182168061328457607f821691505b602082108114156132985761329761323d565b5b50919050565b7f4552433732313a20617070726f76616c20746f2063757272656e74206f776e6560008201527f7200000000000000000000000000000000000000000000000000000000000000602082015250565b60006132fa602183612aec565b91506133058261329e565b604082019050919050565b60006020820190508181036000830152613329816132ed565b9050919050565b7f4552433732313a20617070726f76652063616c6c6572206973206e6f7420746f60008201527f6b656e206f776e6572206f7220617070726f76656420666f7220616c6c000000602082015250565b600061338c603d83612aec565b915061339782613330565b604082019050919050565b600060208201905081810360008301526133bb8161337f565b9050919050565b7f4f776e61626c653a2063616c6c6572206973206e6f7420746865206f776e6572600082015250565b60006133f8602083612aec565b9150613403826133c2565b602082019050919050565b60006020820190508181036000830152613427816133eb565b9050919050565b7f4552433732314d657461646174613a204d65746164617461207175657279206660008201527f6f72206e6f6e6578697374656e7420746f6b656e000000000000000000000000602082015250565b600061348a603483612aec565b91506134958261342e565b604082019050919050565b600060208201905081810360008301526134b98161347d565b9050919050565b7f4552433732313a2063616c6c6572206973206e6f7420746f6b656e206f776e6560008201527f72206f7220617070726f76656400000000000000000000000000000000000000602082015250565b600061351c602d83612aec565b9150613527826134c0565b604082019050919050565b6000602082019050818103600083015261354b8161350f565b9050919050565b600081905092915050565b50565b600061356d600083613552565b91506135788261355d565b600082019050919050565b600061358e82613560565b9150819050919050565b7f5472616e73666572206661696c65640000000000000000000000000000000000600082015250565b60006135ce600f83612aec565b91506135d982613598565b602082019050919050565b600060208201905081810360008301526135fd816135c1565b9050919050565b7f4552433732313a20696e76616c696420746f6b656e2049440000000000000000600082015250565b600061363a601883612aec565b915061364582613604565b602082019050919050565b600060208201905081810360008301526136698161362d565b9050919050565b7f4552433732313a2061646472657373207a65726f206973206e6f74206120766160008201527f6c6964206f776e65720000000000000000000000000000000000000000000000602082015250565b60006136cc602983612aec565b91506136d782613670565b604082019050919050565b600060208201905081810360008301526136fb816136bf565b9050919050565b7f4552433732314d657461646174613a2055524920717565727920666f72206e6f60008201527f6e6578697374656e7420746f6b656e0000000000000000000000000000000000602082015250565b600061375e602f83612aec565b915061376982613702565b604082019050919050565b6000602082019050818103600083015261378d81613751565b9050919050565b600081905092915050565b60006137aa82612ae1565b6137b48185613794565b93506137c4818560208601612afd565b80840191505092915050565b60006137dc828561379f565b91506137e8828461379f565b91508190509392505050565b7f4f776e61626c653a206e6577206f776e657220697320746865207a65726f206160008201527f6464726573730000000000000000000000000000000000000000000000000000602082015250565b6000613850602683612aec565b915061385b826137f4565b604082019050919050565b6000602082019050818103600083015261387f81613843565b9050919050565b7f4e487b7100000000000000000000000000000000000000000000000000000000600052601160045260246000fd5b60006138c082612fea565b91506138cb83612fea565b92508263ffffffff038211156138e4576138e3613886565b5b828201905092915050565b7f4d6178206d696e74206c696d6974207065722077616c6c65742072656163686560008201527f6400000000000000000000000000000000000000000000000000000000000000602082015250565b600061394b602183612aec565b9150613956826138ef565b604082019050919050565b6000602082019050818103600083015261397a8161393e565b9050919050565b7f4e6f7420656e6f75676820455448000000000000000000000000000000000000600082015250565b60006139b7600e83612aec565b91506139c282613981565b602082019050919050565b600060208201905081810360008301526139e6816139aa565b9050919050565b7f4552433732313a207472616e736665722066726f6d20696e636f72726563742060008201527f6f776e6572000000000000000000000000000000000000000000000000000000602082015250565b6000613a49602583612aec565b9150613a54826139ed565b604082019050919050565b60006020820190508181036000830152613a7881613a3c565b9050919050565b7f4552433732313a207472616e7366657220746f20746865207a65726f2061646460008201527f7265737300000000000000000000000000000000000000000000000000000000602082015250565b6000613adb602483612aec565b9150613ae682613a7f565b604082019050919050565b60006020820190508181036000830152613b0a81613ace565b9050919050565b7f5265656e7472616e637947756172643a207265656e7472616e742063616c6c00600082015250565b6000613b47601f83612aec565b9150613b5282613b11565b602082019050919050565b60006020820190508181036000830152613b7681613b3a565b9050919050565b7f4552433732313a20617070726f766520746f2063616c6c657200000000000000600082015250565b6000613bb3601983612aec565b9150613bbe82613b7d565b602082019050919050565b60006020820190508181036000830152613be281613ba6565b9050919050565b7f4552433732313a207472616e7366657220746f206e6f6e20455243373231526560008201527f63656976657220696d706c656d656e7465720000000000000000000000000000602082015250565b6000613c45603283612aec565b9150613c5082613be9565b604082019050919050565b60006020820190508181036000830152613c7481613c38565b9050919050565b7f4e65656420746f2073656e64206d6f7265204554480000000000000000000000600082015250565b6000613cb1601583612aec565b9150613cbc82613c7b565b602082019050919050565b60006020820190508181036000830152613ce081613ca4565b9050919050565b6000613cf2826129d0565b9150613cfd836129d0565b925082821015613d1057613d0f613886565b5b828203905092915050565b7f5061757361626c653a206e6f7420706175736564000000000000000000000000600082015250565b6000613d51601483612aec565b9150613d5c82613d1b565b602082019050919050565b60006020820190508181036000830152613d8081613d44565b9050919050565b7f5061757361626c653a2070617573656400000000000000000000000000000000600082015250565b6000613dbd601083612aec565b9150613dc882613d87565b602082019050919050565b60006020820190508181036000830152613dec81613db0565b9050919050565b600081519050919050565b600082825260208201905092915050565b6000613e1a82613df3565b613e248185613dfe565b9350613e34818560208601612afd565b613e3d81612b30565b840191505092915050565b6000608082019050613e5d60008301876129c1565b613e6a60208301866129c1565b613e7760408301856129da565b8181036060830152613e898184613e0f565b905095945050505050565b600081519050613ea381612a52565b92915050565b600060208284031215613ebf57613ebe612a1c565b5b6000613ecd84828501613e94565b91505092915050565b7f4552433732313a206d696e7420746f20746865207a65726f2061646472657373600082015250565b6000613f0c602083612aec565b9150613f1782613ed6565b602082019050919050565b60006020820190508181036000830152613f3b81613eff565b9050919050565b7f4552433732313a20746f6b656e20616c7265616479206d696e74656400000000600082015250565b6000613f78601c83612aec565b9150613f8382613f42565b602082019050919050565b60006020820190508181036000830152613fa781613f6b565b905091905056fea26469706673582212201ed190cfd899d6ce57d970fc300e711dbca37f3df9d1313503cf8fc86dc0de2764736f6c63430008080033",
  "devdoc": {
    "kind": "dev",
    "methods": {
      "approve(address,uint256)": {
        "details": "See {IERC721-approve}."
      },
      "balanceOf(address)": {
        "details": "See {IERC721-balanceOf}."
      },
      "burn(uint256)": {
        "details": "Burns `tokenId`. See {ERC721-_burn}. Requirements: - The caller must own `tokenId` or be an approved operator."
      },
      "getApproved(uint256)": {
        "details": "See {IERC721-getApproved}."
      },
      "isApprovedForAll(address,address)": {
        "details": "See {IERC721-isApprovedForAll}."
      },
      "name()": {
        "details": "See {IERC721Metadata-name}."
      },
      "owner()": {
        "details": "Returns the address of the current owner."
      },
      "ownerOf(uint256)": {
        "details": "See {IERC721-ownerOf}."
      },
      "paused()": {
        "details": "Returns true if the contract is paused, and false otherwise."
      },
      "renounceOwnership()": {
        "details": "Leaves the contract without owner. It will not be possible to call `onlyOwner` functions anymore. Can only be called by the current owner. NOTE: Renouncing ownership will leave the contract without an owner, thereby removing any functionality that is only available to the owner."
      },
      "safeTransferFrom(address,address,uint256)": {
        "details": "See {IERC721-safeTransferFrom}."
      },
      "safeTransferFrom(address,address,uint256,bytes)": {
        "details": "See {IERC721-safeTransferFrom}."
      },
      "setApprovalForAll(address,bool)": {
        "details": "See {IERC721-setApprovalForAll}."
      },
      "supportsInterface(bytes4)": {
        "details": "See {IERC165-supportsInterface}."
      },
      "symbol()": {
        "details": "See {IERC721Metadata-symbol}."
      },
      "transferFrom(address,address,uint256)": {
        "details": "See {IERC721-transferFrom}."
      },
      "transferOwnership(address)": {
        "details": "Transfers ownership of the contract to a new account (`newOwner`). Can only be called by the current owner."
      }
    },
    "version": 1
  },
  "userdoc": {
    "kind": "user",
    "methods": {},
    "version": 1
  },
  "storageLayout": {
    "storage": [
      {
        "astId": 300,
        "contract": "contracts/01-StakingNFT.sol:OptimuhsSingle",
        "label": "_name",
        "offset": 0,
        "slot": "0",
        "type": "t_string_storage"
      },
      {
        "astId": 302,
        "contract": "contracts/01-StakingNFT.sol:OptimuhsSingle",
        "label": "_symbol",
        "offset": 0,
        "slot": "1",
        "type": "t_string_storage"
      },
      {
        "astId": 306,
        "contract": "contracts/01-StakingNFT.sol:OptimuhsSingle",
        "label": "_owners",
        "offset": 0,
        "slot": "2",
        "type": "t_mapping(t_uint256,t_address)"
      },
      {
        "astId": 310,
        "contract": "contracts/01-StakingNFT.sol:OptimuhsSingle",
        "label": "_balances",
        "offset": 0,
        "slot": "3",
        "type": "t_mapping(t_address,t_uint256)"
      },
      {
        "astId": 314,
        "contract": "contracts/01-StakingNFT.sol:OptimuhsSingle",
        "label": "_tokenApprovals",
        "offset": 0,
        "slot": "4",
        "type": "t_mapping(t_uint256,t_address)"
      },
      {
        "astId": 320,
        "contract": "contracts/01-StakingNFT.sol:OptimuhsSingle",
        "label": "_operatorApprovals",
        "offset": 0,
        "slot": "5",
        "type": "t_mapping(t_address,t_mapping(t_address,t_bool))"
      },
      {
        "astId": 1378,
        "contract": "contracts/01-StakingNFT.sol:OptimuhsSingle",
        "label": "_tokenURIs",
        "offset": 0,
        "slot": "6",
        "type": "t_mapping(t_uint256,t_string_storage)"
      },
      {
        "astId": 130,
        "contract": "contracts/01-StakingNFT.sol:OptimuhsSingle",
        "label": "_paused",
        "offset": 0,
        "slot": "7",
        "type": "t_bool"
      },
      {
        "astId": 7,
        "contract": "contracts/01-StakingNFT.sol:OptimuhsSingle",
        "label": "_owner",
        "offset": 1,
        "slot": "7",
        "type": "t_address"
      },
      {
        "astId": 231,
        "contract": "contracts/01-StakingNFT.sol:OptimuhsSingle",
        "label": "_status",
        "offset": 0,
        "slot": "8",
        "type": "t_uint256"
      },
      {
        "astId": 3047,
        "contract": "contracts/01-StakingNFT.sol:OptimuhsSingle",
        "label": "s_tokenIdCounter",
        "offset": 0,
        "slot": "9",
        "type": "t_struct(Counter)1875_storage"
      },
      {
        "astId": 3050,
        "contract": "contracts/01-StakingNFT.sol:OptimuhsSingle",
        "label": "s_baseExtension",
        "offset": 0,
        "slot": "10",
        "type": "t_string_storage"
      },
      {
        "astId": 3053,
        "contract": "contracts/01-StakingNFT.sol:OptimuhsSingle",
        "label": "s_currentMinted",
        "offset": 0,
        "slot": "11",
        "type": "t_uint256"
      },
      {
        "astId": 3055,
        "contract": "contracts/01-StakingNFT.sol:OptimuhsSingle",
        "label": "s_baseTokenURI",
        "offset": 0,
        "slot": "12",
        "type": "t_string_storage"
      },
      {
        "astId": 3059,
        "contract": "contracts/01-StakingNFT.sol:OptimuhsSingle",
        "label": "s_mintList",
        "offset": 0,
        "slot": "13",
        "type": "t_mapping(t_address,t_uint32)"
      },
      {
        "astId": 3071,
        "contract": "contracts/01-StakingNFT.sol:OptimuhsSingle",
        "label": "_tokenMetadata",
        "offset": 0,
        "slot": "14",
        "type": "t_mapping(t_uint256,t_struct(TokenMetadata)3066_storage)"
      },
      {
        "astId": 3081,
        "contract": "contracts/01-StakingNFT.sol:OptimuhsSingle",
        "label": "s_salesConfig",
        "offset": 0,
        "slot": "15",
        "type": "t_struct(SalesConfig)3078_storage"
      }
    ],
    "types": {
      "t_address": {
        "encoding": "inplace",
        "label": "address",
        "numberOfBytes": "20"
      },
      "t_bool": {
        "encoding": "inplace",
        "label": "bool",
        "numberOfBytes": "1"
      },
      "t_mapping(t_address,t_bool)": {
        "encoding": "mapping",
        "key": "t_address",
        "label": "mapping(address => bool)",
        "numberOfBytes": "32",
        "value": "t_bool"
      },
      "t_mapping(t_address,t_mapping(t_address,t_bool))": {
        "encoding": "mapping",
        "key": "t_address",
        "label": "mapping(address => mapping(address => bool))",
        "numberOfBytes": "32",
        "value": "t_mapping(t_address,t_bool)"
      },
      "t_mapping(t_address,t_uint256)": {
        "encoding": "mapping",
        "key": "t_address",
        "label": "mapping(address => uint256)",
        "numberOfBytes": "32",
        "value": "t_uint256"
      },
      "t_mapping(t_address,t_uint32)": {
        "encoding": "mapping",
        "key": "t_address",
        "label": "mapping(address => uint32)",
        "numberOfBytes": "32",
        "value": "t_uint32"
      },
      "t_mapping(t_uint256,t_address)": {
        "encoding": "mapping",
        "key": "t_uint256",
        "label": "mapping(uint256 => address)",
        "numberOfBytes": "32",
        "value": "t_address"
      },
      "t_mapping(t_uint256,t_string_storage)": {
        "encoding": "mapping",
        "key": "t_uint256",
        "label": "mapping(uint256 => string)",
        "numberOfBytes": "32",
        "value": "t_string_storage"
      },
      "t_mapping(t_uint256,t_struct(TokenMetadata)3066_storage)": {
        "encoding": "mapping",
        "key": "t_uint256",
        "label": "mapping(uint256 => struct OptimuhsSingle.TokenMetadata)",
        "numberOfBytes": "32",
        "value": "t_struct(TokenMetadata)3066_storage"
      },
      "t_string_storage": {
        "encoding": "bytes",
        "label": "string",
        "numberOfBytes": "32"
      },
      "t_struct(Counter)1875_storage": {
        "encoding": "inplace",
        "label": "struct Counters.Counter",
        "members": [
          {
            "astId": 1874,
            "contract": "contracts/01-StakingNFT.sol:OptimuhsSingle",
            "label": "_value",
            "offset": 0,
            "slot": "0",
            "type": "t_uint256"
          }
        ],
        "numberOfBytes": "32"
      },
      "t_struct(SalesConfig)3078_storage": {
        "encoding": "inplace",
        "label": "struct OptimuhsSingle.SalesConfig",
        "members": [
          {
            "astId": 3073,
            "contract": "contracts/01-StakingNFT.sol:OptimuhsSingle",
            "label": "mintPrice",
            "offset": 0,
            "slot": "0",
            "type": "t_uint256"
          },
          {
            "astId": 3075,
            "contract": "contracts/01-StakingNFT.sol:OptimuhsSingle",
            "label": "amountPerWallet",
            "offset": 0,
            "slot": "1",
            "type": "t_uint256"
          },
          {
            "astId": 3077,
            "contract": "contracts/01-StakingNFT.sol:OptimuhsSingle",
            "label": "totalSupply",
            "offset": 0,
            "slot": "2",
            "type": "t_uint256"
          }
        ],
        "numberOfBytes": "96"
      },
      "t_struct(TokenMetadata)3066_storage": {
        "encoding": "inplace",
        "label": "struct OptimuhsSingle.TokenMetadata",
        "members": [
          {
            "astId": 3061,
            "contract": "contracts/01-StakingNFT.sol:OptimuhsSingle",
            "label": "name",
            "offset": 0,
            "slot": "0",
            "type": "t_string_storage"
          },
          {
            "astId": 3063,
            "contract": "contracts/01-StakingNFT.sol:OptimuhsSingle",
            "label": "description",
            "offset": 0,
            "slot": "1",
            "type": "t_string_storage"
          },
          {
            "astId": 3065,
            "contract": "contracts/01-StakingNFT.sol:OptimuhsSingle",
            "label": "image",
            "offset": 0,
            "slot": "2",
            "type": "t_string_storage"
          }
        ],
        "numberOfBytes": "96"
      },
      "t_uint256": {
        "encoding": "inplace",
        "label": "uint256",
        "numberOfBytes": "32"
      },
      "t_uint32": {
        "encoding": "inplace",
        "label": "uint32",
        "numberOfBytes": "4"
      }
    }
  }
}