{
  "address": "0x0a59778e2E58B3c1d83A3D95A34881bbe2D63f0E",
  "abi": [
    {
      "inputs": [
        {
          "internalType": "contract IERC721",
          "name": "_parentNFT",
          "type": "address"
        },
        {
          "internalType": "contract RewardTokenInterface",
          "name": "_rewardsToken",
          "type": "address"
        }
      ],
      "stateMutability": "nonpayable",
      "type": "constructor"
    },
    {
      "anonymous": false,
      "inputs": [
        {
          "indexed": true,
          "internalType": "address",
          "name": "previousOwner",
          "type": "address"
        },
        {
          "indexed": true,
          "internalType": "address",
          "name": "newOwner",
          "type": "address"
        }
      ],
      "name": "OwnershipTransferred",
      "type": "event"
    },
    {
      "anonymous": false,
      "inputs": [
        {
          "indexed": false,
          "internalType": "address",
          "name": "account",
          "type": "address"
        }
      ],
      "name": "Paused",
      "type": "event"
    },
    {
      "anonymous": false,
      "inputs": [
        {
          "indexed": false,
          "internalType": "uint256",
          "name": "_token",
          "type": "uint256"
        },
        {
          "indexed": false,
          "internalType": "address",
          "name": "_user",
          "type": "address"
        }
      ],
      "name": "TokenReceived",
      "type": "event"
    },
    {
      "anonymous": false,
      "inputs": [
        {
          "indexed": false,
          "internalType": "uint256",
          "name": "_token",
          "type": "uint256"
        },
        {
          "indexed": false,
          "internalType": "address",
          "name": "_user",
          "type": "address"
        },
        {
          "indexed": false,
          "internalType": "uint256",
          "name": "timestamp",
          "type": "uint256"
        }
      ],
      "name": "TokenStaked",
      "type": "event"
    },
    {
      "anonymous": false,
      "inputs": [
        {
          "indexed": false,
          "internalType": "uint256",
          "name": "_tokenid",
          "type": "uint256"
        },
        {
          "indexed": false,
          "internalType": "address",
          "name": "_user",
          "type": "address"
        },
        {
          "indexed": false,
          "internalType": "uint256",
          "name": "timestamp",
          "type": "uint256"
        }
      ],
      "name": "TokenUnstaked",
      "type": "event"
    },
    {
      "anonymous": false,
      "inputs": [
        {
          "indexed": false,
          "internalType": "uint256",
          "name": "_token",
          "type": "uint256"
        },
        {
          "indexed": false,
          "internalType": "address",
          "name": "_user",
          "type": "address"
        }
      ],
      "name": "TokenWithdrawn",
      "type": "event"
    },
    {
      "anonymous": false,
      "inputs": [
        {
          "indexed": false,
          "internalType": "address",
          "name": "account",
          "type": "address"
        }
      ],
      "name": "Unpaused",
      "type": "event"
    },
    {
      "inputs": [
        {
          "internalType": "address",
          "name": "_user",
          "type": "address"
        },
        {
          "internalType": "uint256",
          "name": "_tokenid",
          "type": "uint256"
        }
      ],
      "name": "calculateStakeRewards",
      "outputs": [
        {
          "internalType": "uint256",
          "name": "",
          "type": "uint256"
        }
      ],
      "stateMutability": "nonpayable",
      "type": "function"
    },
    {
      "inputs": [
        {
          "internalType": "uint256",
          "name": "tokenid",
          "type": "uint256"
        },
        {
          "internalType": "address",
          "name": "user",
          "type": "address"
        }
      ],
      "name": "checkOwner",
      "outputs": [
        {
          "internalType": "bool",
          "name": "",
          "type": "bool"
        }
      ],
      "stateMutability": "nonpayable",
      "type": "function"
    },
    {
      "inputs": [
        {
          "internalType": "address",
          "name": "_user",
          "type": "address"
        },
        {
          "internalType": "uint256",
          "name": "_tokenid",
          "type": "uint256"
        }
      ],
      "name": "checkTokenIsStaked",
      "outputs": [
        {
          "internalType": "bool",
          "name": "",
          "type": "bool"
        }
      ],
      "stateMutability": "view",
      "type": "function"
    },
    {
      "inputs": [],
      "name": "getStakingStatus",
      "outputs": [
        {
          "internalType": "bool",
          "name": "",
          "type": "bool"
        }
      ],
      "stateMutability": "view",
      "type": "function"
    },
    {
      "inputs": [
        {
          "internalType": "uint256",
          "name": "_tokenid",
          "type": "uint256"
        }
      ],
      "name": "getTokenStakeTime",
      "outputs": [
        {
          "internalType": "uint256",
          "name": "",
          "type": "uint256"
        }
      ],
      "stateMutability": "view",
      "type": "function"
    },
    {
      "inputs": [
        {
          "internalType": "address",
          "name": "_userAddress",
          "type": "address"
        }
      ],
      "name": "getUserStake",
      "outputs": [
        {
          "internalType": "uint256[]",
          "name": "_tokenid",
          "type": "uint256[]"
        }
      ],
      "stateMutability": "view",
      "type": "function"
    },
    {
      "inputs": [
        {
          "internalType": "address",
          "name": "user",
          "type": "address"
        }
      ],
      "name": "getUserTokenList",
      "outputs": [
        {
          "internalType": "uint256[]",
          "name": "",
          "type": "uint256[]"
        }
      ],
      "stateMutability": "view",
      "type": "function"
    },
    {
      "inputs": [
        {
          "internalType": "address",
          "name": "operator",
          "type": "address"
        },
        {
          "internalType": "address",
          "name": "from",
          "type": "address"
        },
        {
          "internalType": "uint256",
          "name": "tokenId",
          "type": "uint256"
        },
        {
          "internalType": "bytes",
          "name": "data",
          "type": "bytes"
        }
      ],
      "name": "onERC721Received",
      "outputs": [
        {
          "internalType": "bytes4",
          "name": "",
          "type": "bytes4"
        }
      ],
      "stateMutability": "nonpayable",
      "type": "function"
    },
    {
      "inputs": [],
      "name": "owner",
      "outputs": [
        {
          "internalType": "address",
          "name": "",
          "type": "address"
        }
      ],
      "stateMutability": "view",
      "type": "function"
    },
    {
      "inputs": [],
      "name": "pause",
      "outputs": [],
      "stateMutability": "nonpayable",
      "type": "function"
    },
    {
      "inputs": [],
      "name": "paused",
      "outputs": [
        {
          "internalType": "bool",
          "name": "",
          "type": "bool"
        }
      ],
      "stateMutability": "view",
      "type": "function"
    },
    {
      "inputs": [],
      "name": "renounceOwnership",
      "outputs": [],
      "stateMutability": "nonpayable",
      "type": "function"
    },
    {
      "inputs": [],
      "name": "setStaking",
      "outputs": [],
      "stateMutability": "nonpayable",
      "type": "function"
    },
    {
      "inputs": [
        {
          "internalType": "uint256",
          "name": "_tokenid",
          "type": "uint256"
        }
      ],
      "name": "stakeToken",
      "outputs": [],
      "stateMutability": "nonpayable",
      "type": "function"
    },
    {
      "inputs": [
        {
          "internalType": "address",
          "name": "",
          "type": "address"
        }
      ],
      "name": "stakes",
      "outputs": [
        {
          "internalType": "uint256",
          "name": "unclaimedRewards",
          "type": "uint256"
        }
      ],
      "stateMutability": "view",
      "type": "function"
    },
    {
      "inputs": [
        {
          "internalType": "uint256",
          "name": "",
          "type": "uint256"
        }
      ],
      "name": "tokenStakingTime",
      "outputs": [
        {
          "internalType": "uint256",
          "name": "",
          "type": "uint256"
        }
      ],
      "stateMutability": "view",
      "type": "function"
    },
    {
      "inputs": [
        {
          "internalType": "address",
          "name": "newOwner",
          "type": "address"
        }
      ],
      "name": "transferOwnership",
      "outputs": [],
      "stateMutability": "nonpayable",
      "type": "function"
    },
    {
      "inputs": [],
      "name": "unpause",
      "outputs": [],
      "stateMutability": "nonpayable",
      "type": "function"
    },
    {
      "inputs": [
        {
          "internalType": "address",
          "name": "_user",
          "type": "address"
        },
        {
          "internalType": "uint256",
          "name": "_tokenid",
          "type": "uint256"
        }
      ],
      "name": "unstakeToken",
      "outputs": [],
      "stateMutability": "nonpayable",
      "type": "function"
    },
    {
      "inputs": [],
      "name": "withdraw",
      "outputs": [
        {
          "internalType": "bool",
          "name": "",
          "type": "bool"
        }
      ],
      "stateMutability": "nonpayable",
      "type": "function"
    }
  ],
  "transactionHash": "0x7a0c72fa09f94662d8cc860031f4e2d719696b7e2bfa1d97fbc7d6e554e07ed3",
  "args": [
    "0xfAc51a6A5C0FB729015B302Cb965FB072D43D6Be",
    "0xc51f6DAbc7f6CbC89151e72457662CefbD312912"
  ],
  "numDeployments": 3,
  "solcInputHash": "046f26a15156211db7ca464f2fb05d59",
  "bytecode": "0x60e06040526201518060c0908152506000600260006101000a81548160ff0219169083151502179055503480156200003657600080fd5b50604051620031e7380380620031e783398181016040528101906200005c9190620002a2565b6200007c620000706200011360201b60201c565b6200011b60201b60201c565b60008060146101000a81548160ff021916908315150217905550600180819055508173ffffffffffffffffffffffffffffffffffffffff1660808173ffffffffffffffffffffffffffffffffffffffff1660601b815250508073ffffffffffffffffffffffffffffffffffffffff1660a08173ffffffffffffffffffffffffffffffffffffffff1660601b815250505050620002e9565b600033905090565b60008060009054906101000a900473ffffffffffffffffffffffffffffffffffffffff169050816000806101000a81548173ffffffffffffffffffffffffffffffffffffffff021916908373ffffffffffffffffffffffffffffffffffffffff1602179055508173ffffffffffffffffffffffffffffffffffffffff168173ffffffffffffffffffffffffffffffffffffffff167f8be0079c531659141344cd1fd0a4f28419497f9722a3daafe3b4186f6b6457e060405160405180910390a35050565b600080fd5b600073ffffffffffffffffffffffffffffffffffffffff82169050919050565b60006200021182620001e4565b9050919050565b6000620002258262000204565b9050919050565b620002378162000218565b81146200024357600080fd5b50565b60008151905062000257816200022c565b92915050565b60006200026a8262000204565b9050919050565b6200027c816200025d565b81146200028857600080fd5b50565b6000815190506200029c8162000271565b92915050565b60008060408385031215620002bc57620002bb620001df565b5b6000620002cc8582860162000246565b9250506020620002df858286016200028b565b9150509250929050565b60805160601c60a05160601c60c051612e976200035060003960008181610a9f0152610c5a01526000611bcb01526000818161045101528181610b1501528181610e73015281816112e1015281816113d8015281816114ef015261163e0152612e976000f3fe608060405234801561001057600080fd5b506004361061012c5760003560e01c80638456cb59116100ad578063be8dbea611610071578063be8dbea61461031f578063cab9b8fb1461034f578063cda6b8471461036d578063d9078b2b14610389578063f2fde38b146103b95761012c565b80638456cb591461028d57806384f334cb146102975780638da5cb5b146102c7578063b4ff5b50146102e5578063bbadc93a146102ef5761012c565b80634b18de1a116100f45780634b18de1a146101e957806354098092146102195780635c975abb146102495780636c82a72614610267578063715018a6146102835761012c565b8063150b7a021461013157806316934fc4146101615780631703b6a5146101915780633ccfd60b146101c15780633f4ba83a146101df575b600080fd5b61014b60048036038101906101469190612074565b6103d5565b6040516101589190612132565b60405180910390f35b61017b6004803603810190610176919061214d565b6107ee565b6040516101889190612189565b60405180910390f35b6101ab60048036038101906101a691906121a4565b61080c565b6040516101b891906121ff565b60405180910390f35b6101c9610935565b6040516101d691906121ff565b60405180910390f35b6101e7610a02565b005b61020360048036038101906101fe91906121a4565b610a14565b6040516102109190612189565b60405180910390f35b610233600480360381019061022e919061214d565b610c95565b60405161024091906122d8565b60405180910390f35b610251610d2f565b60405161025e91906121ff565b60405180910390f35b610281600480360381019061027c91906121a4565b610d45565b005b61028b61102f565b005b610295611043565b005b6102b160048036038101906102ac91906122fa565b611055565b6040516102be9190612189565b60405180910390f35b6102cf61106d565b6040516102dc9190612336565b60405180910390f35b6102ed611096565b005b6103096004803603810190610304919061214d565b611115565b60405161031691906122d8565b60405180910390f35b61033960048036038101906103349190612351565b6111af565b60405161034691906121ff565b60405180910390f35b610357611268565b60405161036491906121ff565b60405180910390f35b610387600480360381019061038291906122fa565b61127f565b005b6103a3600480360381019061039e91906122fa565b6117b8565b6040516103b09190612189565b60405180910390f35b6103d360048036038101906103ce919061214d565b6117d5565b005b60008083101561041a576040517f08c379a0000000000000000000000000000000000000000000000000000000008152600401610411906123ee565b60405180910390fd5b3373ffffffffffffffffffffffffffffffffffffffff168473ffffffffffffffffffffffffffffffffffffffff16148061052757507f000000000000000000000000000000000000000000000000000000000000000073ffffffffffffffffffffffffffffffffffffffff16636352211e846040518263ffffffff1660e01b81526004016104a89190612189565b60206040518083038186803b1580156104c057600080fd5b505afa1580156104d4573d6000803e3d6000fd5b505050506040513d601f19601f820116820180604052508101906104f89190612423565b73ffffffffffffffffffffffffffffffffffffffff168573ffffffffffffffffffffffffffffffffffffffff16145b610566576040517f08c379a000000000000000000000000000000000000000000000000000000000815260040161055d9061249c565b60405180910390fd5b6001600460008673ffffffffffffffffffffffffffffffffffffffff1673ffffffffffffffffffffffffffffffffffffffff1681526020019081526020016000206000018054905010156107085760006040518060400160405280600067ffffffffffffffff8111156105dc576105db611f49565b5b60405190808252806020026020018201604052801561060a5781602001602082028036833780820191505090505b5081526020016000815250905080600460008773ffffffffffffffffffffffffffffffffffffffff1673ffffffffffffffffffffffffffffffffffffffff1681526020019081526020016000206000820151816000019080519060200190610673929190611e1c565b5060208201518160010155905050600460008673ffffffffffffffffffffffffffffffffffffffff1673ffffffffffffffffffffffffffffffffffffffff1681526020019081526020016000206000018490806001815401808255809150506001900390600052602060002001600090919091909150554260056000868152602001908152602001600020819055505061078a565b600460008573ffffffffffffffffffffffffffffffffffffffff1673ffffffffffffffffffffffffffffffffffffffff1681526020019081526020016000206000018390806001815401808255809150506001900390600052602060002001600090919091909150554260056000858152602001908152602001600020819055505b7f5e1786925079a770f2d6d163c1f590c00c2ac4186b0c223746d3573606fb2a4583856040516107bb9291906124bc565b60405180910390a17f150b7a023d4804d13e8c85fb27262cb750cf6ba9f9dd3bb30d90f482ceeb4b1f9050949350505050565b60046020528060005260406000206000915090508060010154905081565b600080600460008573ffffffffffffffffffffffffffffffffffffffff1673ffffffffffffffffffffffffffffffffffffffff16815260200190815260200160002060000180549050111561092a576000600360008573ffffffffffffffffffffffffffffffffffffffff1673ffffffffffffffffffffffffffffffffffffffff1681526020019081526020016000206000848152602001908152602001600020549050600460008573ffffffffffffffffffffffffffffffffffffffff1673ffffffffffffffffffffffffffffffffffffffff1681526020019081526020016000206000018181548110610904576109036124e5565b5b906000526020600020015483141561092057600191505061092f565b600091505061092f565b600090505b92915050565b600061093f611859565b6109476118d7565b60003373ffffffffffffffffffffffffffffffffffffffff164760405161096d90612545565b60006040518083038185875af1925050503d80600081146109aa576040519150601f19603f3d011682016040523d82523d6000602084013e6109af565b606091505b50509050806109f3576040517f08c379a00000000000000000000000000000000000000000000000000000000081526004016109ea906125a6565b60405180910390fd5b809150506109ff611927565b90565b610a0a611859565b610a12611930565b565b600080600460008573ffffffffffffffffffffffffffffffffffffffff1673ffffffffffffffffffffffffffffffffffffffff1681526020019081526020016000206000018054905011610a9d576040517f08c379a0000000000000000000000000000000000000000000000000000000008152600401610a9490612638565b60405180910390fd5b7f000000000000000000000000000000000000000000000000000000000000000060056000848152602001908152602001600020541015610b13576040517f08c379a0000000000000000000000000000000000000000000000000000000008152600401610b0a906126ca565b60405180910390fd5b7f000000000000000000000000000000000000000000000000000000000000000073ffffffffffffffffffffffffffffffffffffffff16636352211e836040518263ffffffff1660e01b8152600401610b6c9190612189565b60206040518083038186803b158015610b8457600080fd5b505afa158015610b98573d6000803e3d6000fd5b505050506040513d601f19601f82011682018060405250810190610bbc9190612423565b73ffffffffffffffffffffffffffffffffffffffff163373ffffffffffffffffffffffffffffffffffffffff1614610c29576040517f08c379a0000000000000000000000000000000000000000000000000000000008152600401610c2090612736565b60405180910390fd5b6000610c5160056000858152602001908152602001600020544261199290919063ffffffff16565b90506000610c887f0000000000000000000000000000000000000000000000000000000000000000836119a890919063ffffffff16565b9050809250505092915050565b6060600460008373ffffffffffffffffffffffffffffffffffffffff1673ffffffffffffffffffffffffffffffffffffffff168152602001908152602001600020600001805480602002602001604051908101604052809291908181526020018280548015610d2357602002820191906000526020600020905b815481526020019060010190808311610d0f575b50505050509050919050565b60008060149054906101000a900460ff16905090565b610d4d6118d7565b6000610d5982846111af565b90506000600460008573ffffffffffffffffffffffffffffffffffffffff1673ffffffffffffffffffffffffffffffffffffffff1681526020019081526020016000206000018054905011610de3576040517f08c379a0000000000000000000000000000000000000000000000000000000008152600401610dda906127a2565b60405180910390fd5b80610e23576040517f08c379a0000000000000000000000000000000000000000000000000000000008152600401610e1a90612736565b60405180910390fd5b6000610e2f848461080c565b905080610e71576040517f08c379a0000000000000000000000000000000000000000000000000000000008152600401610e689061280e565b60405180910390fd5b7f000000000000000000000000000000000000000000000000000000000000000073ffffffffffffffffffffffffffffffffffffffff166342842e0e3086866040518463ffffffff1660e01b8152600401610ece9392919061282e565b600060405180830381600087803b158015610ee857600080fd5b505af1158015610efc573d6000803e3d6000fd5b505050506000600360008673ffffffffffffffffffffffffffffffffffffffff1673ffffffffffffffffffffffffffffffffffffffff16815260200190815260200160002060008581526020019081526020016000205490506000610f618686610a14565b9050610f6d82876119be565b60006005600087815260200190815260200160002081905550600360008773ffffffffffffffffffffffffffffffffffffffff1673ffffffffffffffffffffffffffffffffffffffff168152602001908152602001600020600086815260200190815260200160002060009055610fe48682611bc9565b7f8400aad51ec7b4a6d1c58218ea03e51798a0485003beae9e5b76662e91d7058f85874260405161101793929190612865565b60405180910390a15050505061102b611927565b5050565b611037611859565b6110416000611c5a565b565b61104b611859565b611053611d1e565b565b60056020528060005260406000206000915090505481565b60008060009054906101000a900473ffffffffffffffffffffffffffffffffffffffff16905090565b61109e611859565b60011515600260009054906101000a900460ff16151514156110da576000600260006101000a81548160ff021916908315150217905550611113565b60001515600260009054906101000a900460ff1615151415611112576001600260006101000a81548160ff0219169083151502179055505b5b565b6060600460008373ffffffffffffffffffffffffffffffffffffffff1673ffffffffffffffffffffffffffffffffffffffff1681526020019081526020016000206000018054806020026020016040519081016040528092919081815260200182805480156111a357602002820191906000526020600020905b81548152602001906001019080831161118f575b50505050509050919050565b600080600460008473ffffffffffffffffffffffffffffffffffffffff1673ffffffffffffffffffffffffffffffffffffffff16815260200190815260200160002060000180549050111561125d576000600360008473ffffffffffffffffffffffffffffffffffffffff1673ffffffffffffffffffffffffffffffffffffffff16815260200190815260200160002060008581526020019081526020016000205490506001915050611262565b600090505b92915050565b6000600260009054906101000a900460ff16905090565b6112876118d7565b60011515600260009054906101000a900460ff161515146112dd576040517f08c379a00000000000000000000000000000000000000000000000000000000081526004016112d4906128e8565b60405180910390fd5b60007f000000000000000000000000000000000000000000000000000000000000000073ffffffffffffffffffffffffffffffffffffffff16636352211e836040518263ffffffff1660e01b81526004016113389190612189565b60206040518083038186803b15801561135057600080fd5b505afa158015611364573d6000803e3d6000fd5b505050506040513d601f19601f820116820180604052508101906113889190612423565b90508073ffffffffffffffffffffffffffffffffffffffff163373ffffffffffffffffffffffffffffffffffffffff16148061149757503073ffffffffffffffffffffffffffffffffffffffff167f000000000000000000000000000000000000000000000000000000000000000073ffffffffffffffffffffffffffffffffffffffff1663081812fc846040518263ffffffff1660e01b815260040161142f9190612189565b60206040518083038186803b15801561144757600080fd5b505afa15801561145b573d6000803e3d6000fd5b505050506040513d601f19601f8201168201806040525081019061147f9190612423565b73ffffffffffffffffffffffffffffffffffffffff16145b6114d6576040517f08c379a00000000000000000000000000000000000000000000000000000000081526004016114cd9061297a565b60405180910390fd5b3073ffffffffffffffffffffffffffffffffffffffff167f000000000000000000000000000000000000000000000000000000000000000073ffffffffffffffffffffffffffffffffffffffff1663081812fc846040518263ffffffff1660e01b81526004016115469190612189565b60206040518083038186803b15801561155e57600080fd5b505afa158015611572573d6000803e3d6000fd5b505050506040513d601f19601f820116820180604052508101906115969190612423565b73ffffffffffffffffffffffffffffffffffffffff16146115ec576040517f08c379a00000000000000000000000000000000000000000000000000000000081526004016115e390612a0c565b60405180910390fd5b600015156115fa338461080c565b15151461163c576040517f08c379a000000000000000000000000000000000000000000000000000000000815260040161163390612a78565b60405180910390fd5b7f000000000000000000000000000000000000000000000000000000000000000073ffffffffffffffffffffffffffffffffffffffff166342842e0e8230856040518463ffffffff1660e01b81526004016116999392919061282e565b600060405180830381600087803b1580156116b357600080fd5b505af11580156116c7573d6000803e3d6000fd5b505050506001600460003373ffffffffffffffffffffffffffffffffffffffff1673ffffffffffffffffffffffffffffffffffffffff1681526020019081526020016000206000018054905061171d9190612ac7565b600360003373ffffffffffffffffffffffffffffffffffffffff1673ffffffffffffffffffffffffffffffffffffffff1681526020019081526020016000206000848152602001908152602001600020819055507f8af1bb49fb16c7835975aa59449ba4328dd54737dfb2ae9fa6c5eca71fda51f98233426040516117a493929190612865565b60405180910390a1506117b5611927565b50565b600060056000838152602001908152602001600020549050919050565b6117dd611859565b600073ffffffffffffffffffffffffffffffffffffffff168173ffffffffffffffffffffffffffffffffffffffff16141561184d576040517f08c379a000000000000000000000000000000000000000000000000000000000815260040161184490612b6d565b60405180910390fd5b61185681611c5a565b50565b611861611d81565b73ffffffffffffffffffffffffffffffffffffffff1661187f61106d565b73ffffffffffffffffffffffffffffffffffffffff16146118d5576040517f08c379a00000000000000000000000000000000000000000000000000000000081526004016118cc90612bd9565b60405180910390fd5b565b6002600154141561191d576040517f08c379a000000000000000000000000000000000000000000000000000000000815260040161191490612c45565b60405180910390fd5b6002600181905550565b60018081905550565b611938611d89565b60008060146101000a81548160ff0219169083151502179055507f5db9ee0a495bf2e6ff9c91a7834c1ba4fdd244a5e8aa4e537bd38aeae4b073aa61197b611d81565b6040516119889190612336565b60405180910390a1565b600081836119a09190612ac7565b905092915050565b600081836119b69190612c94565b905092915050565b600460008273ffffffffffffffffffffffffffffffffffffffff1673ffffffffffffffffffffffffffffffffffffffff168152602001908152602001600020600001805490508210611a45576040517f08c379a0000000000000000000000000000000000000000000000000000000008152600401611a3c90612d11565b60405180910390fd5b6000600460008373ffffffffffffffffffffffffffffffffffffffff1673ffffffffffffffffffffffffffffffffffffffff168152602001908152602001600020600001805490509050600460008373ffffffffffffffffffffffffffffffffffffffff1673ffffffffffffffffffffffffffffffffffffffff168152602001908152602001600020600001600182611ade9190612ac7565b81548110611aef57611aee6124e5565b5b9060005260206000200154600460008473ffffffffffffffffffffffffffffffffffffffff1673ffffffffffffffffffffffffffffffffffffffff1681526020019081526020016000206000018481548110611b4e57611b4d6124e5565b5b9060005260206000200181905550600460008373ffffffffffffffffffffffffffffffffffffffff1673ffffffffffffffffffffffffffffffffffffffff168152602001908152602001600020600001805480611bae57611bad612d31565b5b60019003818190600052602060002001600090559055505050565b7f000000000000000000000000000000000000000000000000000000000000000073ffffffffffffffffffffffffffffffffffffffff166380cb88f483836040518363ffffffff1660e01b8152600401611c24929190612d60565b600060405180830381600087803b158015611c3e57600080fd5b505af1158015611c52573d6000803e3d6000fd5b505050505050565b60008060009054906101000a900473ffffffffffffffffffffffffffffffffffffffff169050816000806101000a81548173ffffffffffffffffffffffffffffffffffffffff021916908373ffffffffffffffffffffffffffffffffffffffff1602179055508173ffffffffffffffffffffffffffffffffffffffff168173ffffffffffffffffffffffffffffffffffffffff167f8be0079c531659141344cd1fd0a4f28419497f9722a3daafe3b4186f6b6457e060405160405180910390a35050565b611d26611dd2565b6001600060146101000a81548160ff0219169083151502179055507f62e78cea01bee320cd4e420270b5ea74000d11b0c9f74754ebdbfc544b05a258611d6a611d81565b604051611d779190612336565b60405180910390a1565b600033905090565b611d91610d2f565b611dd0576040517f08c379a0000000000000000000000000000000000000000000000000000000008152600401611dc790612dd5565b60405180910390fd5b565b611dda610d2f565b15611e1a576040517f08c379a0000000000000000000000000000000000000000000000000000000008152600401611e1190612e41565b60405180910390fd5b565b828054828255906000526020600020908101928215611e58579160200282015b82811115611e57578251825591602001919060010190611e3c565b5b509050611e659190611e69565b5090565b5b80821115611e82576000816000905550600101611e6a565b5090565b6000604051905090565b600080fd5b600080fd5b600073ffffffffffffffffffffffffffffffffffffffff82169050919050565b6000611ec582611e9a565b9050919050565b611ed581611eba565b8114611ee057600080fd5b50565b600081359050611ef281611ecc565b92915050565b6000819050919050565b611f0b81611ef8565b8114611f1657600080fd5b50565b600081359050611f2881611f02565b92915050565b600080fd5b600080fd5b6000601f19601f8301169050919050565b7f4e487b7100000000000000000000000000000000000000000000000000000000600052604160045260246000fd5b611f8182611f38565b810181811067ffffffffffffffff82111715611fa057611f9f611f49565b5b80604052505050565b6000611fb3611e86565b9050611fbf8282611f78565b919050565b600067ffffffffffffffff821115611fdf57611fde611f49565b5b611fe882611f38565b9050602081019050919050565b82818337600083830152505050565b600061201761201284611fc4565b611fa9565b90508281526020810184848401111561203357612032611f33565b5b61203e848285611ff5565b509392505050565b600082601f83011261205b5761205a611f2e565b5b813561206b848260208601612004565b91505092915050565b6000806000806080858703121561208e5761208d611e90565b5b600061209c87828801611ee3565b94505060206120ad87828801611ee3565b93505060406120be87828801611f19565b925050606085013567ffffffffffffffff8111156120df576120de611e95565b5b6120eb87828801612046565b91505092959194509250565b60007fffffffff0000000000000000000000000000000000000000000000000000000082169050919050565b61212c816120f7565b82525050565b60006020820190506121476000830184612123565b92915050565b60006020828403121561216357612162611e90565b5b600061217184828501611ee3565b91505092915050565b61218381611ef8565b82525050565b600060208201905061219e600083018461217a565b92915050565b600080604083850312156121bb576121ba611e90565b5b60006121c985828601611ee3565b92505060206121da85828601611f19565b9150509250929050565b60008115159050919050565b6121f9816121e4565b82525050565b600060208201905061221460008301846121f0565b92915050565b600081519050919050565b600082825260208201905092915050565b6000819050602082019050919050565b61224f81611ef8565b82525050565b60006122618383612246565b60208301905092915050565b6000602082019050919050565b60006122858261221a565b61228f8185612225565b935061229a83612236565b8060005b838110156122cb5781516122b28882612255565b97506122bd8361226d565b92505060018101905061229e565b5085935050505092915050565b600060208201905081810360008301526122f2818461227a565b905092915050565b6000602082840312156123105761230f611e90565b5b600061231e84828501611f19565b91505092915050565b61233081611eba565b82525050565b600060208201905061234b6000830184612327565b92915050565b6000806040838503121561236857612367611e90565b5b600061237685828601611f19565b925050602061238785828601611ee3565b9150509250929050565b600082825260208201905092915050565b7f4d7573742070726f7669646520612076616c696420746f6b656e000000000000600082015250565b60006123d8601a83612391565b91506123e3826123a2565b602082019050919050565b60006020820190508181036000830152612407816123cb565b9050919050565b60008151905061241d81611ecc565b92915050565b60006020828403121561243957612438611e90565b5b60006124478482850161240e565b91505092915050565b7f4f70657261746f72206973206e6f74207468652063616c6c6572000000000000600082015250565b6000612486601a83612391565b915061249182612450565b602082019050919050565b600060208201905081810360008301526124b581612479565b9050919050565b60006040820190506124d1600083018561217a565b6124de6020830184612327565b9392505050565b7f4e487b7100000000000000000000000000000000000000000000000000000000600052603260045260246000fd5b600081905092915050565b50565b600061252f600083612514565b915061253a8261251f565b600082019050919050565b600061255082612522565b9150819050919050565b7f5472616e73666572206661696c65640000000000000000000000000000000000600082015250565b6000612590600f83612391565b915061259b8261255a565b602082019050919050565b600060208201905081810360008301526125bf81612583565b9050919050565b7f4d75737420686176652061207374616b652061637469766520746f2063616c6360008201527f756c617465207265776172647300000000000000000000000000000000000000602082015250565b6000612622602d83612391565b915061262d826125c6565b604082019050919050565b6000602082019050818103600083015261265181612615565b9050919050565b7f4d7573742068617665207374616b656420666f72206174206c6561737420323460008201527f20686f7572730000000000000000000000000000000000000000000000000000602082015250565b60006126b4602683612391565b91506126bf82612658565b604082019050919050565b600060208201905081810360008301526126e3816126a7565b9050919050565b7f5573657220646f6573206e6f74206f776e207468697320746f6b656e00000000600082015250565b6000612720601c83612391565b915061272b826126ea565b602082019050919050565b6000602082019050818103600083015261274f81612713565b9050919050565b7f4e6f20746f6b656e287329207374616b65640000000000000000000000000000600082015250565b600061278c601283612391565b915061279782612756565b602082019050919050565b600060208201905081810360008301526127bb8161277f565b9050919050565b7f546f6b656e206973206e6f742063757272656e746c79207374616b6564000000600082015250565b60006127f8601d83612391565b9150612803826127c2565b602082019050919050565b60006020820190508181036000830152612827816127eb565b9050919050565b60006060820190506128436000830186612327565b6128506020830185612327565b61285d604083018461217a565b949350505050565b600060608201905061287a600083018661217a565b6128876020830185612327565b612894604083018461217a565b949350505050565b7f5374616b696e67206973206e6f74206f70656e20796574000000000000000000600082015250565b60006128d2601783612391565b91506128dd8261289c565b602082019050919050565b60006020820190508181036000830152612901816128c5565b9050919050565b7f43616c6c6572206973206e6f74206f776e6572206f7220617070726f7665642060008201527f746f207472616e7366657220746f6b656e000000000000000000000000000000602082015250565b6000612964603183612391565b915061296f82612908565b604082019050919050565b6000602082019050818103600083015261299381612957565b9050919050565b7f546f6b656e206973206e6f7420617070726f76656420666f72207374616b696e60008201527f6700000000000000000000000000000000000000000000000000000000000000602082015250565b60006129f6602183612391565b9150612a018261299a565b604082019050919050565b60006020820190508181036000830152612a25816129e9565b9050919050565b7f746f6b656e206e6f74207374616b61626c650000000000000000000000000000600082015250565b6000612a62601283612391565b9150612a6d82612a2c565b602082019050919050565b60006020820190508181036000830152612a9181612a55565b9050919050565b7f4e487b7100000000000000000000000000000000000000000000000000000000600052601160045260246000fd5b6000612ad282611ef8565b9150612add83611ef8565b925082821015612af057612aef612a98565b5b828203905092915050565b7f4f776e61626c653a206e6577206f776e657220697320746865207a65726f206160008201527f6464726573730000000000000000000000000000000000000000000000000000602082015250565b6000612b57602683612391565b9150612b6282612afb565b604082019050919050565b60006020820190508181036000830152612b8681612b4a565b9050919050565b7f4f776e61626c653a2063616c6c6572206973206e6f7420746865206f776e6572600082015250565b6000612bc3602083612391565b9150612bce82612b8d565b602082019050919050565b60006020820190508181036000830152612bf281612bb6565b9050919050565b7f5265656e7472616e637947756172643a207265656e7472616e742063616c6c00600082015250565b6000612c2f601f83612391565b9150612c3a82612bf9565b602082019050919050565b60006020820190508181036000830152612c5e81612c22565b9050919050565b7f4e487b7100000000000000000000000000000000000000000000000000000000600052601260045260246000fd5b6000612c9f82611ef8565b9150612caa83611ef8565b925082612cba57612cb9612c65565b5b828204905092915050565b7f496e646578206f7574206f6620626f756e647300000000000000000000000000600082015250565b6000612cfb601383612391565b9150612d0682612cc5565b602082019050919050565b60006020820190508181036000830152612d2a81612cee565b9050919050565b7f4e487b7100000000000000000000000000000000000000000000000000000000600052603160045260246000fd5b6000604082019050612d756000830185612327565b612d82602083018461217a565b9392505050565b7f5061757361626c653a206e6f7420706175736564000000000000000000000000600082015250565b6000612dbf601483612391565b9150612dca82612d89565b602082019050919050565b60006020820190508181036000830152612dee81612db2565b9050919050565b7f5061757361626c653a2070617573656400000000000000000000000000000000600082015250565b6000612e2b601083612391565b9150612e3682612df5565b602082019050919050565b60006020820190508181036000830152612e5a81612e1e565b905091905056fea26469706673582212207a08fb51ab3b7f26cc529011326185f667decb27b0c60b205bc972deb7f1c5ec64736f6c63430008080033",
  "devdoc": {
    "kind": "dev",
    "methods": {
      "onERC721Received(address,address,uint256,bytes)": {
        "details": "Whenever an {IERC721} `tokenId` token is transferred to this contract via {IERC721-safeTransferFrom} by `operator` from `from`, this function is called. It must return its Solidity selector to confirm the token transfer. If any other value is returned or the interface is not implemented by the recipient, the transfer will be reverted. The selector can be obtained in Solidity with `IERC721Receiver.onERC721Received.selector`."
      },
      "owner()": {
        "details": "Returns the address of the current owner."
      },
      "paused()": {
        "details": "Returns true if the contract is paused, and false otherwise."
      },
      "renounceOwnership()": {
        "details": "Leaves the contract without owner. It will not be possible to call `onlyOwner` functions anymore. Can only be called by the current owner. NOTE: Renouncing ownership will leave the contract without an owner, thereby removing any functionality that is only available to the owner."
      },
      "transferOwnership(address)": {
        "details": "Transfers ownership of the contract to a new account (`newOwner`). Can only be called by the current owner."
      }
    },
    "version": 1
  },
  "userdoc": {
    "kind": "user",
    "methods": {},
    "version": 1
  },
  "storageLayout": {
    "storage": [
      {
        "astId": 7,
        "contract": "contracts/03-StakingContract.sol:TokenStaking",
        "label": "_owner",
        "offset": 0,
        "slot": "0",
        "type": "t_address"
      },
      {
        "astId": 130,
        "contract": "contracts/03-StakingContract.sol:TokenStaking",
        "label": "_paused",
        "offset": 20,
        "slot": "0",
        "type": "t_bool"
      },
      {
        "astId": 231,
        "contract": "contracts/03-StakingContract.sol:TokenStaking",
        "label": "_status",
        "offset": 0,
        "slot": "1",
        "type": "t_uint256"
      },
      {
        "astId": 4287,
        "contract": "contracts/03-StakingContract.sol:TokenStaking",
        "label": "STAKING_OPEN",
        "offset": 0,
        "slot": "2",
        "type": "t_bool"
      },
      {
        "astId": 4293,
        "contract": "contracts/03-StakingContract.sol:TokenStaking",
        "label": "stakedIndicies",
        "offset": 0,
        "slot": "3",
        "type": "t_mapping(t_address,t_mapping(t_uint256,t_uint256))"
      },
      {
        "astId": 4304,
        "contract": "contracts/03-StakingContract.sol:TokenStaking",
        "label": "stakes",
        "offset": 0,
        "slot": "4",
        "type": "t_mapping(t_address,t_struct(Stake)4299_storage)"
      },
      {
        "astId": 4308,
        "contract": "contracts/03-StakingContract.sol:TokenStaking",
        "label": "tokenStakingTime",
        "offset": 0,
        "slot": "5",
        "type": "t_mapping(t_uint256,t_uint256)"
      }
    ],
    "types": {
      "t_address": {
        "encoding": "inplace",
        "label": "address",
        "numberOfBytes": "20"
      },
      "t_array(t_uint256)dyn_storage": {
        "base": "t_uint256",
        "encoding": "dynamic_array",
        "label": "uint256[]",
        "numberOfBytes": "32"
      },
      "t_bool": {
        "encoding": "inplace",
        "label": "bool",
        "numberOfBytes": "1"
      },
      "t_mapping(t_address,t_mapping(t_uint256,t_uint256))": {
        "encoding": "mapping",
        "key": "t_address",
        "label": "mapping(address => mapping(uint256 => uint256))",
        "numberOfBytes": "32",
        "value": "t_mapping(t_uint256,t_uint256)"
      },
      "t_mapping(t_address,t_struct(Stake)4299_storage)": {
        "encoding": "mapping",
        "key": "t_address",
        "label": "mapping(address => struct TokenStaking.Stake)",
        "numberOfBytes": "32",
        "value": "t_struct(Stake)4299_storage"
      },
      "t_mapping(t_uint256,t_uint256)": {
        "encoding": "mapping",
        "key": "t_uint256",
        "label": "mapping(uint256 => uint256)",
        "numberOfBytes": "32",
        "value": "t_uint256"
      },
      "t_struct(Stake)4299_storage": {
        "encoding": "inplace",
        "label": "struct TokenStaking.Stake",
        "members": [
          {
            "astId": 4296,
            "contract": "contracts/03-StakingContract.sol:TokenStaking",
            "label": "tokenids",
            "offset": 0,
            "slot": "0",
            "type": "t_array(t_uint256)dyn_storage"
          },
          {
            "astId": 4298,
            "contract": "contracts/03-StakingContract.sol:TokenStaking",
            "label": "unclaimedRewards",
            "offset": 0,
            "slot": "1",
            "type": "t_uint256"
          }
        ],
        "numberOfBytes": "64"
      },
      "t_uint256": {
        "encoding": "inplace",
        "label": "uint256",
        "numberOfBytes": "32"
      }
    }
  }
}